:020000040800F2
:105800000040022079D80008DDD00008E3D000086D
:105810000000000000000000000000000000000088
:105820000000000000000000000000008DAF010833
:105830000000000000000000B1B00108F9B001084C
:10584000C9D80008C9D80008C9D80008C9D80008B4
:10585000C9D80008E9D00008C9D80008F9D0000864
:10586000C9D800080DD1000825D10008C9D8000802
:10587000C9D800083DD10008C9D80008C9D8000817
:1058800055D100086DD10008C9D80008C9D8000852
:10589000C9D8000889D10008C9D80008C9D80008AB
:1058A000C9D80008C9D80008C9D80008C9D8000854
:0C58B000C9D80008C9D80008C9D80008F1
:1058C00010B5064C2378002B07D1054B002B02D0D6
:1058D000044800E000BF0123237010BD3001002008
:1058E00000000000A4B60108044B10B5002B03D043
:1058F0000349044800E000BF10BDC046000000009E
:1059000034010020A4B60108002243088B4274D35E
:1059100003098B425FD3030A8B4244D3030B8B42B0
:1059200028D3030C8B420DD3FF22090212BA030CB9
:105930008B4202D31212090265D0030B8B4219D39A
:1059400000E0090AC30B8B4201D3CB03C01A5241BA
:10595000830B8B4201D38B03C01A5241430B8B4202
:1059600001D34B03C01A5241030B8B4201D30B03EB
:10597000C01A5241C30A8B4201D3CB02C01A524112
:10598000830A8B4201D38B02C01A5241430A8B42D5
:1059900001D34B02C01A5241030A8B4201D30B02BE
:1059A000C01A5241CDD2C3098B4201D3CB01C01AD8
:1059B000524183098B4201D38B01C01A52414309E2
:1059C0008B4201D34B01C01A524103098B4201D3D0
:1059D0000B01C01A5241C3088B4201D3CB00C01A3D
:1059E000524183088B4201D38B00C01A52414308B5
:1059F0008B4201D34B00C01A5241411A00D20146DA
:105A0000524110467047FFE701B5002000F0F0F862
:105A100002BDC0460029F7D076E7704703460B4326
:105A20007FD4002243088B4274D303098B425FD397
:105A3000030A8B4244D3030B8B4228D3030C8B42C3
:105A40000DD3FF22090212BA030C8B4202D31212A9
:105A5000090265D0030B8B4219D300E0090AC30B7E
:105A60008B4201D3CB03C01A5241830B8B4201D32B
:105A70008B03C01A5241430B8B4201D34B03C01A14
:105A80005241030B8B4201D30B03C01A5241C30A8C
:105A90008B4201D3CB02C01A5241830A8B4201D3FD
:105AA0008B02C01A5241430A8B4201D34B02C01AE7
:105AB0005241030A8B4201D30B02C01A5241CDD28C
:105AC000C3098B4201D3CB01C01A524183098B42D7
:105AD00001D38B01C01A524143098B4201D34B01C0
:105AE000C01A524103098B4201D30B01C01A524123
:105AF000C3088B4201D3CB00C01A524183088B42AA
:105B000001D38B00C01A524143088B4201D34B0092
:105B1000C01A5241411A00D2014652411046704704
:105B20005DE0CA0F00D04942031000D34042534009
:105B300000229C4603098B422DD3030A8B4212D3C9
:105B4000FC22890112BA030A8B420CD389019211FB
:105B50008B4208D3890192118B4204D389013AD038
:105B6000921100E08909C3098B4201D3CB01C01A0D
:105B7000524183098B4201D38B01C01A5241430920
:105B80008B4201D34B01C01A524103098B4201D30E
:105B90000B01C01A5241C3088B4201D3CB00C01A7B
:105BA000524183088B4201D38B00C01A5241D9D293
:105BB00043088B4201D34B00C01A5241411A00D214
:105BC0000146634652415B10104601D34042002B10
:105BD00000D54942704763465B1000D3404201B58F
:105BE000002000F005F802BD0029F8D016E7704744
:105BF0007047C0468446100062468C4619006346D2
:105C000000E0C0461FB501F019FE002801D40021B4
:105C1000C8421FBD10B501F069FD4042013010BD02
:105C200010B501F00BFE002801DB002010BD0120A3
:105C300010BDC04610B501F001FE002801DD0020B6
:105C400010BD012010BDC04610B501F091FD002827
:105C500001DC002010BD012010BDC04610B501F0D0
:105C600087FD002801DA002010BD012010BDC046CC
:105C7000844608006146FFE71FB500F08BFB002853
:105C800001D40021C8421FBD10B500F017FB4042EF
:105C9000013010BD10B500F07DFB002801DB0020B5
:105CA00010BD012010BDC04610B500F073FB0028E8
:105CB00001DD002010BD012010BDC04610B500F070
:105CC00023FB002801DC002010BD012010BDC046D0
:105CD00010B500F019FB002801DA002010BD0120EA
:105CE00010BDC0469E2110B5C905041CFFF7F0FF8A
:105CF000002803D1201C00F065FE10BD9E21201C51
:105D0000C90500F0B1FC00F05DFE80231B069C4637
:105D10006044F2E770B500220C4B04000D00FFF761
:105D20009DFF002804D12000290002F007FC70BD6F
:105D3000064B00222000290002F050F802F0FEFB82
:105D400080231B069C466044F1E7C0460000E0410A
:105D5000F0B5C64643025B0A4E0245004F00DA002A
:105D6000C40F9C46700A904600B52D0E3F0EC90F19
:105D7000B6098C424BD0EA1B002A36DD002F61D0D9
:105D8000FF2D00D1ADE08023DB041E431B2A00DC85
:105D9000D3E001204346181A430100D48CE080016F
:105DA0008709380002F026FD05388740854200DC6F
:105DB000B6E02D1AB3483840430704D00F23034000
:105DC000042B00D00430430100D478E06A1CFE2D7F
:105DD00065D08001430A9C46D2B26346D005184381
:105DE000E407204380BCB846F0BD002A35D07A1BBA
:105DF000002D00D0AFE04346002B00D1A7E0531E9A
:105E0000012A00D12FE1FF2A69D01A00AAE0E91B7C
:105E1000002970DD002F37D0FF2D62D08023DB04F6
:105E20001E431B2900DCB0E001204044430143D560
:105E30000135FF2D33D00123934A03404008104021
:105E40001843B9E7002E00D183E0511E012A00D18A
:105E5000D8E0FF2A45D00A0098E7FE276A1C1742BF
:105E600000D086E0002D00D0B7E04346002B00D1E3
:105E7000F3E00022002EB0D0981B430100D4FAE0DA
:105E800043460C00F01A97E7002E00D1C8E04A1EE6
:105E9000012900D1AEE0FF2923D01100C1E7002382
:105EA000FF229C4699E7FE216A1C114277D0FF2A07
:105EB000F5D0150046447008430700D07EE7C308BC
:105EC000FF2D0ED05B025B0A9C46EAB285E7002EEE
:105ED00007D08022D203134203D0104201D10C001C
:105EE0000300002BDBD08020C00318434002430A8C
:105EF0009C46FF2271E70029D5D07A1B002D60D186
:105F00004346002B24D0531E012A73D0FF2AE7D02A
:105F10001A001B2A00DC85E001203D00801985E77E
:105F200020233A00451B38000135EA405D1BA8409C
:105F3000431E9841002510433EE7202330009B1A62
:105F400031009840D140431E9841084322E70C009D
:105F500003001500B4E7FF2FC1D080234046DB04C7
:105F6000184380461B2A51DD01200C003D00301AE9
:105F700012E743469F1B7B012BD4002F00D010E774
:105F80000023002400229C4627E720233200300013
:105F9000CA40591A8840431E9841104345E7002DD6
:105FA0004AD14346002B63D00022002E00D114E7D3
:105FB00030004044430100D47EE7324B01351840A5
:105FC0007AE7FF2F8CD080234146DB0419438846B3
:105FD0009FE743460C00F71AE3E64246002A00D04A
:105FE00075E7002E00D07AE78023DB0300249C466F
:105FF000FF22F2E6300040440125430100D45BE774
:10600000022518E743460125981BC5E62023444690
:106010004046D4409A1A9040431E98412043A4E73A
:106020000D004DE7202341464046D1409A1A90404A
:10603000431E9841084370E74246002A00D14FE7CB
:10604000002E00D14DE78022D203134200D148E751
:10605000104200D045E7030043E7002E90D00C002B
:1060600084460022B9E643460C00F01A013593E657
:1060700084460022B1E6002800D01DE7002300245A
:106080009C46AAE6FFFFFFFBFFFFFF7DF0B54F46F2
:106090004646D6464502C0B547000C1C6D0A3F0E69
:1060A000C60F002F00D170E0FF2F00D175E0EB008C
:1060B0008025ED041D43002399469A467F3F6002E8
:1060C000430A984663001B0EE40F002B4ED0FF2BB3
:1060D00046D04246D0008022D2040243904600229D
:1060E0007F3B3100FF1A4B466140C9B213430F2B6F
:1060F00000D9B5E06E489B00C3589F4600239846E0
:106100002600454692465346022B00D189E0032BD8
:1061100000D19EE0012B18D03B007F33002B69DDBE
:106120006A0704D00F222A40042A00D004352A012D
:1061300003D5604B1D403B008033FE2B00DD70E03B
:10614000AD016D0AD8B202E00E0000200025C005A6
:106150002843F6073043E0BCBA46B146A846F0BD36
:106160004346002B3FD10222FF3F03E04346002B72
:106170002DD1012231004B466140C9B213430F2B90
:1061800034D84D489B00C3589F46002D13D104239B
:106190009946033B00279A4691E7002D05D1082335
:1061A0009946063BFF279A4689E70C239946093B07
:1061B000FF279A4683E7280002F01CFB7627431F3F
:1061C0009D4000237F4299469A463F1A77E7404612
:1061D00002F010FB4246431F9A4076235B429046F2
:1061E0001B1A00227DE7FF2303227AE70E00FF201F
:1061F0000025ACE70120C01A1B28A6DC9E372A0028
:10620000BD40C2406B1E9D4115436B0704D00F2358
:106210002B40042B00D004356B0144D50120002510
:1062200095E7FF20002592E780250026FF20ED035B
:106230008DE7002398468020C003054209D04346DD
:10624000034206D1454605436D022600FF206D0A34
:106250007DE78020C00305436D02FF206D0A76E7CD
:1062600042466B015001834219D21B220025013F97
:1062700001261C006D005B00002C01DB984201D858
:106280001B1A3543013A002AF3D15A1E93411D438C
:106290003B007F330E00002B00DD41E7AAE71A2206
:1062A00001251B1AE4E7AD0100206D0A4FE7C04647
:1062B00004BB0108FFFFFFF744BB010870B54200B3
:1062C00045024E024C00C30F6D0A0120120E760AE1
:1062D000240EC90FFF2A06D0FF2C03D0A24201D101
:1062E000B54206D070BD002DFCD1FF2CFAD1002E96
:1062F000F8D18B4206D00120002AF3D12800431E9A
:106300009841EFE70020EDE770B5420045024E02EC
:106310004C00C30F6D0A120E760A240EC80FFF2A16
:106320001BD0FF2C0ED0002A1BD1002C01D1002E37
:106330001CD0002D0CD083421CD00221581E0840D6
:10634000013870BD002E22D1002AF4D1002DF2D1E7
:106350000028F6D101204042F3E7002D17D1FF2C91
:10636000F0D0002CE7D1002EE5D1E6E70020002D8B
:10637000E7D0E2E7A24205DCEADBB54202D8E7D388
:106380000020DEE74342584140000138D9E70220AF
:106390004042D6E770B5420045024E024C00C30FA2
:1063A0006D0A120E760A240EC80FFF2A0BD0FF2C9E
:1063B0000DD0002A1FD1002C16D1002E14D10020A0
:1063C000002D10D009E0002D0CD1FF2C13D1002E90
:1063D00008D1002A08D0834212D00221581E08405A
:1063E000013800E0022070BD002DF4D10028FAD160
:1063F00001204042F7E7002CEDD1002EEBD1ECE775
:10640000A24205DCF2DBB54202D8EFD30020EAE776
:106410004342584140000138E5E7C046F0B54F46D9
:106420004646D64644024500C0B5640A0F1C2D0EF0
:10643000C60F002D00D18DE0FF2D00D192E000238A
:10644000802099469A46E400C00404437F3D7802C8
:10645000430A98467B001B0EFF0F002B00D170E013
:10646000FF2B00D186E04246D00080227F3BED1812
:106470000023D204024390469C4631004B467940AB
:10648000681C0F2B1CD8764A9B00D3589F463900B6
:106490004446E2465346022B0FD0032B00D1D7E0EF
:1064A000012B37D100200024C0052043C907084331
:1064B000E0BCBA46B146A846F0BDFF200024F3E791
:1064C000260C2404220C44462404240C43462700B2
:1064D0001B0C574374435A435E4312193B0C9B18E1
:1064E0009C4203D980225202944666443F041A0417
:1064F0003F0CD2199401671EBC411B0C920E9B19D4
:1065000014439B011C431B0100D49BE00123620840
:106510001C40144302007F32002A64DD630704D06C
:106520000F232340042B00D00434230103D50200A1
:106530004C4B80321C40FE2ABFDCA401640AD0B25E
:10654000B2E74346002B3DD14A4601331A439146F8
:106550009C4692E7002C29D104239946033B002551
:106560009A4674E7002C1BD108239946063BFF2569
:106570009A466CE74346FF35002B0BD102234A466F
:106580001A4391469C4678E753463100022B00D0CF
:1065900083E792E703234A461A4391469C466CE7F9
:1065A0000C239946093BFF259A4650E7200002F04C
:1065B00021F97625431F9C4000236D4299469A4657
:1065C0002D1A44E7404602F015F94246431F9A400F
:1065D00000232D1A90469C46763D4EE780240021EC
:1065E000FF20E40360E701239B1A1B2B00DD59E722
:1065F00022009E30DA4084401300621E94411C4306
:10660000630704D00F232340042B00D0043463011C
:106610001AD50120002447E78020C003044209D096
:106620004346034206D14446044364023900FF2036
:10663000640A39E78020C003044364023100FF206C
:10664000640A31E7280065E7A4010020640A2BE70B
:106650008020C00304436402FF20640A24E7C0468C
:1066600084BB0108FFFFFFF7F8B5CE46474643025B
:106670005B0A4E02DA009446720A914645004A00CF
:1066800080B52D0E1F00C40F120EC90FB609FF2AC8
:106690005BD0012041408C4239D0A81A00285ADD35
:1066A000002A6AD0FF2D00D1D9E08022D2041643FF
:1066B0001B2800DCE9E001206346181A430100D4DE
:1066C000B4E080018709380002F094F8053887406B
:1066D000854200DCCCE02D1AB5483840430704D091
:1066E0000F230340042B00D00430430100D4A0E06A
:1066F0006A1CFE2D00D18DE08001470AD2B2D00580
:106700003843E4072043C0BCB946B046F8BDA81AD8
:106710008046002845DD002A70D0FF2D00D19EE084
:106720008023DB041E4343461B2B00DCD2E0012008
:10673000604443017AD50135FF2D6BD001239D4A7A
:106740000340400810401843C8E7002E20D08C4278
:1067500023D02800FF38002839D0571B002D00D047
:106760009DE06346002B00D1DBE07B1E012F00D1B2
:106770000DE1FF2F71D01F0098E0002E00D1A7E09F
:10678000421E012800D1E6E0FF2868D010008FE704
:1067900001204140A14200D07FE7FF2040428046D7
:1067A000A8444046002838D0511B002D00D1AEE04F
:1067B000FF2A00D1DFE080236046DB0418438446D3
:1067C0001B2900DCD9E0012015008019B1E7FE206B
:1067D0006A1C104271D1002D00D0A6E06346002B48
:1067E00000D1D9E00022002E00D188E7981B430198
:1067F00000D4E1E063460C00F01A6FE7002E00D1F0
:10680000B7E00200013A012800D19CE0FF2826D021
:10681000904688E7FF22002771E7FE206A1C10429D
:1068200064D0FF2AF6D0150066447008430700D0F4
:1068300056E7C308FF2D12D05B025F0AEAB25EE79B
:106840006246002A00D196E0002E08D08022D203B2
:10685000134204D04846104201D10C004B46002B95
:10686000D8D08027FF031F437F02FF227F0A46E71D
:1068700020233A00451B38000135EA405D1BA84043
:10688000431E98410025104328E720231B1A32009D
:106890009E40C2403000431E984110430CE7FF2A3F
:1068A000DBD080236046DB04184384461B2F56DD73
:1068B00001200C001500301A00E763469F1B7B0186
:1068C0003DD4002F00D0FEE600240022002716E76A
:1068D0000500AFE7320043464146DA4020235B1A09
:1068E0009E403000431E9841104321E7002DA7D160
:1068F0006346002B59D00022002E00D1FFE6300065
:106900006044430192D52A4B013518408EE7634617
:10691000002B47D04B1E012915D0FF292BD0190081
:106920004EE70C004B463D0084E76246002A8BD1BF
:10693000002E92D180270024FF22FF03DFE663466A
:106940000C00F71ABFE6300060440125430100D473
:106950006CE70225F2E663460125981BAEE620238C
:1069600064466046FC40DF1BB840431E984120430C
:106970009FE705005EE74B4671E7202365466046CA
:10698000CD40591A8840431E984128431CE763466E
:106990000C000125F01A91E6002E95D00C004F4610
:1069A0000022ACE64B460D0044E74F460022A6E627
:1069B000FFFFFFFBFFFFFF7D002800D036E700242C
:1069C00000279CE641024200C30F490A0020120E34
:1069D0007E2A03DD9D2A02DD094A9818704780202F
:1069E00000040143952A07DC9620821AD1404842D0
:1069F000002BF3D10800F1E7963A9140F7E7C04643
:106A0000FFFFFF7F70B5051E0ED001F0F3FE9E2341
:106A100004001B1A962B0CDC082801DD083CA5405D
:106A20006D026D0AD8B201E000200025C0052843A0
:106A300070BD992B09DD020029001B3291404A1ECE
:106A400091410522121AD5400D43052C12DC290074
:106A50000C4E31406A0709D00F202840042805D089
:106A600004314A0102D59F2331401B1B89014D0A85
:106A7000D8B2DBE7621F95402900024E31406A0719
:106A8000F4D0E9E7FFFFFFFBF0B54F464646D64698
:106A90000D000400C0B51F0011002803620F400A5A
:106AA00010437A00520DE3003C039146640AFA0F4A
:106AB0004F0F6E0027439246B846760DED0FC90082
:106AC000954200D199E04C46341BA446002C00DCD2
:106AD0007CE04A46002A00D1B8E0C54A964200D17F
:106AE0001CE180223C0012041443A0466246382A6E
:106AF00000DD61E11F2A00DDCCE164462022121B8B
:106B0000444694400F00A14664469140E7404C46FD
:106B10004A1E91413C43424621436446E240801A6A
:106B20005C1AA3429B415F42C71B3B0200D4D0E0EA
:106B30007F027F0A002F00D1FFE0380001F05AFEEB
:106B400001000839202322005B1A8F40DA408C4074
:106B50001743B14200DAFFE0891B4B1C1F2B00DDFD
:106B6000A8E020223900D21A200094409140D84059
:106B7000621E9441DF40002601430C43630709D0A5
:106B80000F232340042B05D0231DA342A4416442BC
:106B90003F191C003B0200D49EE0954B01369E42FB
:106BA00000D1B7E0934AE40817407B0771057F02E4
:106BB00023433F0B4A0D12053A43ED072A431800C1
:106BC0001100E0BCBA46B146A846F0BD002C4BD03F
:106BD0004C46A41BA446002E00D023E104001C4315
:106BE00000D1AFE16246541E012A00D115E2804D6A
:106BF000AC4500D1C8E1A4461BE14A46B21A94460E
:106C0000002A00DCACE04A46002A43D0784A96428B
:106C100000D1AFE180223C0012041443A04662463A
:106C2000382A67DC1F2A00DC5FE14746203AD7405C
:106C30006246202A05D064464022121B44469440F6
:106C400021434A1E91410C003C4357E03A000A435D
:106C500000D105E12200013A012C00D182E1644C0F
:106C6000A4455BD0944641E7634C771C274200D093
:106C7000C4E004001C43002E00D069E1002C00D1C8
:106C8000BFE144460C4300D0D0E14207DB08134388
:106C9000C00829E03A000A4300D170E16246644628
:106CA000013A012C00D1E0E0514CA44500D161E152
:106CB0009446B4E73A001F39CA401100202B03D094
:106CC0004022D31A9F403C43631E9C41002700266C
:106CD0000C43630700D053E7B446E4087B07234323
:106CE000F808434A94451DD06246070352053F0BFE
:106CF000520D60E744460C43621E9441E4189C42E6
:106D00009B415F423F183B02E3D5394B01369E421F
:106D100000D0B5E03200002700234CE74207DB0833
:106D20001343C0081A00024300D1E1E180273F036A
:106D300007433F032E4A3F0B3DE7200001F05AFD79
:106D4000010018311F2900DCFCE6083884402700C8
:106D50000024B14200DBFFE6264A761A17400DE711
:106D6000002A2FD04A46921B9446002E00D1ADE057
:106D70001F4A914500D10FE1802212041043624660
:106D8000382A00DD0FE11F2A00DD80E16446202261
:106D90001E00121B6746040093409440FE405A1E9A
:106DA0009341F84034431C43804464188C42BF41F3
:106DB0007F424E464744A6E742460A4311004A1E18
:106DC0009141ADE60C4C721C224200D0A1E00200C1
:106DD0001A43002E00D0FAE0002A00D145E13A0023
:106DE0000A4300D046E14207DB081343C0087BE7B3
:106DF000FF070000FFFF7FFFFE07000047465C1A09
:106E0000C21BA342BF417F42B94617004A46BF1A80
:106E10003A0200D58DE023003B4300D08AE60020F3
:106E2000002561E7B44CA14500D1ADE080242404E5
:106E300020436446382C3DDC62461F2C00DDB7E061
:106E400020251E002D1B0400AB40AC40D640D04096
:106E500042465D1EAB413443121A904623432CE058
:106E60004207DB081343C0083BE75C189C429B4188
:106E700040445B42C71801263B0200D429E70226A2
:106E80009E4A63081740012214401C43FB071C4321
:106E90007F0873E64446203AD4406246202A05D053
:106EA00067464022D21B4746974039434A1E9141CC
:106EB000214335E60343581E8341CC1AA142BF410A
:106EC00043467F4255464E46DF1B2EE602001A43DC
:106ED00000D1BDE062466446013A012C00D1E5E0F4
:106EE000854CA44558D0944649E764462022121B9D
:106EF000444694400F00A14664469140E7404C460A
:106F00004A1E91413C4342460C436146CA408018A8
:106F1000F4E6794CA24200D1FDE6591899429B4112
:106F200040445F42C719FC07490816000C437F081C
:106F3000CFE6CC1AA142BF4143467F42181A5546BC
:106F4000C71BF7E5C9087B0755460B43F808C8E699
:106F5000002C00D081E043460B4315D18020002552
:106F60000003E3E65C1AA3429B41C71B5B42012678
:106F7000FF1ADAE54207DB081343C008D2E64207EE
:106F8000DB081343C008ACE643464246C9085B072A
:106F900055460B43D008C5E6434642465B07C90841
:106FA0000B43D008BEE603431C00631E9C41FCE675
:106FB0000200203CE24014006246202A03D0402513
:106FC000AD1AA8400343581E8341234375E7002AA6
:106FD000E2D03A000A43CDD04207DB0813438022B7
:106FE000C0081203104206D0FC08144203D120004E
:106FF000CB087A0713435A0FDB005207DB08134311
:1070000090E643460B4300D109E743464246C90890
:107010005B0755460B43D00866E6CC1AA14289416E
:107020003F1A4942554601267F1A7EE542465C1AC0
:10703000871AA34292415242BF1A3A023DD5CC1A56
:10704000A1428941434649421F1A55467F1A95E598
:107050007B07C9080B43F80843E64446DB080C43AA
:1070600030D142071343C0085CE67B07C9080B43D5
:10707000F80839E65C189C429B4140445B42C718C3
:107080003B0200D425E61D4B01261F4021E60400EB
:10709000203AD4406246202A04D040226646921B01
:1070A000904003435A1E93411C437EE65C188C4279
:1070B0008941404449424718DDE623003B4300D163
:1070C000ADE606E6440723438024C008240320429B
:1070D00008D04246D608264204D155463000CB0897
:1070E00051070B435A0FDB00DB085207134319E625
:1070F0000023014A1F005EE5FF070000FFFF7FFF3E
:10710000F0B557464E464546DE46E0B58146050099
:107110000C03480092461F0085B0240B400DCE0F93
:10712000002800D156E1D44B984200D172E16B0F98
:10713000E4001C4380231B0423439846CF4BED00FF
:107140009B4600239946834400933C037B005046B2
:10715000240B5B0DFF0F002B00D11FE1C64A9342A9
:1071600000D162E1C549420F8C46E4005946144300
:10717000802263441204CB1A14439B46C2000020B1
:1071800033007B409A464B460F2B27D8BC499B00C7
:10719000CB589F46B246009B022B16D0032B00D142
:1071A0008EE2012B00D0D9E00023002400255246B6
:1071B0001B052343D20713432800190005B0F0BC78
:1071C000BB46B246A946A046F0BD00240025AA4B06
:1071D000EDE7BA46A04615000090DCE7444500D232
:1071E000C7E100D1C2E101235B429C462E0040462C
:1071F0000025E3442302140E1C431B0C9946230470
:107200001F0C1202494600920197FEF703FC020090
:107210007A430B04310C804619438A4207D9012373
:107220005B429C460919E0448C4200D807E2881A68
:107230004946FEF7EFFB09048C4631046646019A85
:10724000090C4243030031438A4204D90919013B26
:107250008C4200D8EDE1881A424612041A43904647
:107260004146009B0E041B0C1F000293009B360C32
:107270001B04190C0B007343120C7E430391514302
:107280007A431F0CBC4676186644B14203D980216C
:1072900049028C466244310C8A1831041E04360CB3
:1072A0008E19904202D312D1B54210D24346591ED4
:1072B000009B9C4665441F009D429B415B421B19FD
:1072C000C018844200D2A0E100D19BE18846AE1BE9
:1072D000B542AD41801A6D42401B844200D1D5E1D8
:1072E0004946FEF797FB019A0B044243310C050017
:1072F00019438A4200D96CE1881A4946FEF78AFB95
:10730000019A360442430904360C03000E43B2428C
:1073100000D953E10398B61A02002D041D43029FC1
:107320002B041B0C5A437B439C46290C4843130CEB
:10733000844463447943984203D9802040028446C0
:107340006144180C12041B04120C41189B188E4245
:1073500000D2FFE000D1FAE001231D43494A5A441C
:10736000002A00DCAAE06B0700D03DE1ED084346AF
:10737000DB0106D54246444B1A4090468022D2009B
:107380005A44424B9A4200DD1FE743465B071D43C8
:10739000434652055C02240B530D08E75246224334
:1073A00000D17BE0002C00D1FAE0200001F022FAAD
:1073B00002000B3A1D2301009B1A52460839DA409D
:1073C0008C40144352468A40314B58449B46834478
:1073D0000020D5E64B462343984644D0002C00D1EC
:1073E000CEE0200001F006FA010002000B391D2357
:1073F0005B1A49461000D940083884400B004D46BE
:107400002343984685402348831A9B460023994688
:1074100000939AE64B46234398461DD1082399468C
:10742000063B0025834600938FE65246224309D14E
:10743000022349461943184B89469C4600240220E2
:10744000E3449DE603234A461A43134B91469C4668
:1074500052460320E34493E60C239946093BA04699
:107460008346009371E60423994600239B4601332B
:107470000025009369E6C046FF07000001FCFFFFFE
:10748000C4BB0108FF030000FFFFFFFEFE07000072
:10749000F30300000DFCFFFF01F8FFFF4946012345
:1074A00019438946002401206AE6002380249A4675
:1074B00000258A4B24037AE601256D4201239B1A9D
:1074C000382B00DD70E61F2B00DCBFE01F21494296
:1074D0008A1A4146D1400A00202B04D04146804BF5
:1074E0005B4499400D436B1E9D4107232A431D00B9
:1074F00000241540134200D1D4E00F210023114095
:10750000042900D1CBE0111D9142924152429B18B7
:107510000A00190200D4C2E001230024002546E637
:10752000802341461B03194208D01C4206D11C434C
:107530002403BA461500694B240B38E680244346E1
:1075400024031C432403B246644B240B2FE6002B78
:1075500000D103E7A619681EA64200D28DE08E4234
:1075600000D2A3E000D1B3E00500F5E6AA4200D9BD
:1075700039E64346DE0758086B081E43ED0739E637
:10758000484601F037F901000200153120321C296C
:1075900000DC2CE74B46083883400025984632E74C
:1075A00001F028F903001A00153220301C2A00DCF3
:1075B00000E75446083B00229C4005E73619013B92
:1075C000B44200D9A6E6B24200D8A3E6831E36191B
:1075D000A0E60919013D8C4200D98DE68A4200D807
:1075E0008AE6851E091987E60F232B40042B00D15C
:1075F000BCE605235B42AB429B4104355B42ED0890
:107600009844B4E6AF4200D960E6824204D800D084
:107610005CE6AE4200D859E602235B429C46009BE2
:10762000E0449C4665449D429B415B421B19C01847
:107630004DE68A4200D80EE6831E09190BE68A42FF
:1076400000D8F4E5831E98460919F0E5254928007D
:1076500059448D4042468A40691E8D414146D8407A
:10766000D94002432A430B00510700D151E70F21B3
:107670001140042900D046E74BE705008E4200D0B8
:107680006AE6009A934200D066E667E6164A5A44D4
:10769000002A00DC10E701230025984467E65D0717
:1076A0005B021C0BD2080023154380E50098023DC5
:1076B00042008242BF417F423C1936190092DDE709
:1076C0008024434624031C432403044B240B6EE50F
:1076D000009A9A42EAD30500D3E7C046FF070000AC
:1076E0003E0400001E040000FF030000F0B54E46FB
:1076F0004546DE4657469046E0B517001A03120B82
:107700000500844619480E034C0091465A00DB0FD1
:107710009B46360B640DC90F520D844219D082422C
:1077200010D0012094420ED14E450CD10120C44509
:1077300009D1594517D0002C05D130002843431EEC
:10774000984100E00120F0BCBB46B246A946A046E5
:10775000F0BD330001202B43F5D1A242F3D14B46BB
:107760003B43F0D1E2E70020EDE7C046FF07000011
:10777000F0B54746CE460400180016001B031B0B4D
:107780002D4D4A00994680B543000F03A446B046EC
:107790003F0B520DC90F5B0DC00FAA4221D0AB4267
:1077A00013D0002A22D13C43002B02D14D462E4358
:1077B00022D0002C10D0814222D002200139084072
:1077C0000138C0BCB946B046F0BD4D462E4329D164
:1077D000002AF0D13C43EED10028F2D101204042F2
:1077E000EFE73D0025431DD19342EED0002BE2D1BF
:1077F0004C462643DFD1E0E70020002CE1D0DCE757
:107800009A420ADCE8DB4F45D7D80ED000204F451E
:10781000D7D20029E2D00800D3E7434258414000C4
:107820000138CEE702204042CBE7C445C5D800204E
:10783000C445C6D2EDE7C046FF070000F0B5474695
:10784000CE460400180016001B031B0B2C4D4A00EB
:10785000994680B543000F03A446B0463F0B520D36
:10786000C90F5B0DC00FAA420DD0AB4210D0002A49
:1078700027D13C43002B11D14D462E430ED1002081
:10788000002C15D00EE03D00254310D1934218D1B5
:107890004D462E430BD1002A02D13C43002C0BD085
:1078A000814214D0022001390840013800E0022052
:1078B000C0BCB946B046F0BD0028F9D10120404215
:1078C000F6E7002BECD14C462643E9D1EAE79A4291
:1078D00004DD4342584140000138E9E79A42EBDBBE
:1078E0004F45DFD806D000204F45E1D20029E5D032
:1078F0000800DDE7C445D5D80020C445D8D2F5E757
:10790000FF070000F0B557464E464546DE46E0B557
:1079100098460C034B000600924687B0240B5B0D83
:10792000CF0F002B00D15CE1D94A934200D175E121
:10793000420FE4001443802212041443D54AC500C8
:10794000944663440093002399469B46434642462F
:107950001E03D20F5B0050469046360B5B0D00D1E4
:1079600020E1CB4A934200D162E1CA49420F8C46E2
:1079700000996344F6008C46164380229C4412040E
:1079800063461643C200002000930099434601312C
:107990008C4649467B4001930F2926D8BE4B89006F
:1079A00059588F46434601933400150083465B4681
:1079B000022B16D0032B00D103E2012B00D0CDE027
:1079C000002200240025019B12052243DB071A43F5
:1079D0002800110007B0F0BCBB46B246A946A0463D
:1079E000F0BD00240025AA4AEDE7280C2D042D0C3B
:1079F0002B00110C1204120C5343984613002F0055
:107A0000434399464F434F44BB4647460B003F0C08
:107A1000BA464343DA440293D14504D980277F0212
:107A2000B9464B44029353461B0C9B4653461F04D6
:107A300043461B041B0C98463B0043440493330C01
:107A40003604360C98463300434399464346434335
:107A50002F009A46434677435D43380C4D44451901
:107A6000A94503D980235B029946CA443F04280CE8
:107A70003F0C2D04ED19270C2404240C03002000D6
:107A800050437A4391463A0053440593030C9A4677
:107A90004A43614349445144AB44894503D9802357
:107AA0005B0299464A4400040B0C000C09040918B7
:107AB00020009946434670435C437E435F43030C7A
:107AC0009846A41944444A440397A64204D9802303
:107AD0005B029846474403972304029E9A46059BFF
:107AE0005E449846AE42AD4176188E42894100040C
:107AF000000C504440446D424719B84693464942F1
:107B00008946C344D94498428041A845AD41934534
:107B10009241894589416D4240422843240C52429A
:107B200049420A43039B00198018C7184B46DC0DD5
:107B3000049B75021D436A1E95414B46F60D7F025C
:107B400035435A023C431543FB0100D41CE101219B
:107B50006A080D401543E207154364084F49614424
:107B6000002900DCB0E06B0709D00F222A40042A6C
:107B700005D02A1DAA42AD416D4264191500E301EA
:107B800004D58021464AC90014406144454A9142C7
:107B900000DD26E76207ED08640249051543240B62
:107BA0004A0D10E75246324300D17FE0002E00D14B
:107BB000DCE0300000F01EFE02000B3A1D23010045
:107BC0009B1A52460839DA408E40164352468A4084
:107BD000009B3549181A03008C466344002000932B
:107BE000D3E6250005434AD0002C00D1B0E02000A8
:107BF00000F000FE010002000B391D2310005B1A8B
:107C00003100350008388440D94085400C4326486F
:107C1000831A0093002399469B4697E60500254367
:107C200026D1082200930223002491469B468DE62C
:107C30005246009B324310D1154900268C466344BE
:107C40004946009302231943894602209DE65B467C
:107C50000197022B00D0ADE6C3E60D4A03209446FF
:107C600063444A46009303231A43914652468CE6E6
:107C70000C2200930323050091469B4666E60423ED
:107C8000994600230093013300249B465EE6C046DC
:107C9000FF07000001FCFFFF04BC0108FF03000018
:107CA000FFFFFFFEFE0700000DFCFFFF494601231A
:107CB000194389460026012067E600238024002519
:107CC000434A019324037EE60120401A382800DD50
:107CD00076E61F285BDD1F2223005242511ACB405B
:107CE0001900202803D03B4A6244944025436A1E71
:107CF00095412A000A4307210D0000241540114236
:107D00005BD00F2100241140042953D0111D914252
:107D100092415242A4180A0023024BD501220024AA
:107D2000002550E680231B031C4209D01E4207D1C8
:107D300033431C0343461500240B254A019342E6B6
:107D40008022120314432403214A240B01973AE6AC
:107D500000F050FD01000200153120321C2900DC2A
:107D60004BE7340008380025844050E700F042FD1E
:107D700003001A00153220301C2A00DC1EE756468C
:107D8000083B00229E4023E7009B9C46E6E6124902
:107D9000220061442E008D408A40C640691E8D41FC
:107DA00032432A43C4405307B6D00F21114004295F
:107DB000ACD1B1E765076402240BD2081543002259
:107DC00001E68022120314432403014A240BFAE53E
:107DD000FF0700003E0400001E040000F8B55746EF
:107DE0004E464546DE46E0B51E0017004A000B032E
:107DF000520D5B0A9046420F1A43CD0FCD4C310312
:107E0000C300944670007A0F490AFF009A46B946AB
:107E1000400DF60F1143A04200D1B1E001225640BF
:107E2000B346B54200D188E04246121A002A00DC6F
:107E3000AEE0002800D1C1E0BE48804500D151E14C
:107E4000802000040143382A00DD7BE11F2A00DD89
:107E5000EEE120203E00801A0C00D640D140874041
:107E600062468440521A781E874194463443274321
:107E7000DC1BA3429B4162465B42D31A99464B46A8
:107E80001B0200D418E14B465802430A99464B4660
:107E9000002B00D137E1484600F0ACFC0100083966
:107EA0002023220048465B1ADA4088408C40434633
:107EB0001043884500DD36E1C91A4B1C1F2B00DD3D
:107EC000EAE020222600D21A01009440DE40D84089
:107ED00000239140621E94418146984631430C43F1
:107EE000630709D00F232340042B05D0231DA34291
:107EF000A4416442A1441C004B461B0200D4DEE0B6
:107F000041468C4B0131994200D1E7E04B468A480B
:107F1000E4080340180049055B07400223434A0D6B
:107F2000040B1205ED0722432A4318001100F0BC90
:107F3000BB46B246A946A046F8BD4246121A002AE0
:107F400052DD002800D19CE0A04500D1CAE080208D
:107F500000040143382A00DD49E11F2A00DC97E1D3
:107F600010000E002038C640202A04D04020821A7B
:107F700091400F43B9464C46621E944134433AE166
:107F80000A003A4328D0B346B5422BD06B4A42444C
:107F9000002A5DD042464446821A002C00D0F5E00B
:107FA00065461D4300D19CE1551E012A00D1FBE12D
:107FB000604CA24200D1BDE12A00F0E00800384345
:107FC00000D1C3E0501E012A00D1A8E1594CA242C1
:107FD00000D187E0020036E701225640B346B542A1
:107FE00000D021E7554A4244002A00D1B5E042467C
:107FF0004446821A002C00D138E14E4EB04200D1E6
:10800000DEE18026644636043443A446382A00DD87
:1080100096E11F2A00DD24E22026B41AA246644617
:108020005646B440A1461C004E46D4402643340078
:108030005646B3405E1EB3411C436346D340C91845
:10804000E419BC42BF417F42B94680468944D8E02A
:1080500040463B4C0130204200D0B4E0404600286E
:1080600000D044E16046184300D190E10800384355
:1080700000D0AAE16146DB0849070B436146CC0802
:1080800027E00800384361D0501E012A00D139E1B1
:10809000A24227D002005DE702001F39CA4011004A
:1080A000202B03D04022D31A98400443631E9C41E6
:1080B0000023994698460C43630700D012E74B46CD
:1080C0004A46E4085B072343D408424619498A42DA
:1080D0000ED024035205240B520D22E70A0000247F
:1080E00000231EE7DB086246520713436246D408AA
:1080F0001A00224300D1FCE180221203144324031E
:108100000C4A240B0DE7200000F074FB010018312D
:108110001F2900DCC4E608388440434620000024C0
:10812000884500DCC8E6044A5B1A10409846814640
:10813000D6E6C046FF070000FFFF7FFF01F8FFFF04
:10814000FE0700000F437A1E974191E66146DB0867
:1081500049070B436146CC08B8E74046D34C013091
:10816000204200D0A2E04046002800D001E1604655
:10817000184300D15EE10800384300D05FE161465A
:10818000DB0849070B436146CC08A2E7C84DA8426B
:1081900000D1CFE0802564462D042C43A446382A24
:1081A00056DC1F2A00DDD1E020251E00AD1A6446F2
:1081B000AB40AC40D6405D1EAB41344323436446E4
:1081C000D440091B49E06046DC1B461AA3428041AB
:1081D0004042814630004E46801B8146000276D4E4
:1081E0004B46234300D052E60024002571E7394373
:1081F0000C00621E9441E4189C429B415B42634424
:1082000099464B461B0200D456E701239C46A84BD7
:10821000E044984538D04B46A64801220340180058
:10822000630814401C43C3071C434308994657E6A0
:1082300010000E002038C640202A04D04020821AA8
:1082400091400F43B9464F467A1E974137430FE698
:1082500062461A4313005A1E9341FC1AA742BF41BB
:108260007F42CB1B99465D46804608E666461E4324
:1082700000D1BEE0561E012A00D109E18C4CA24279
:1082800000D119E13200C1E642460024002348E64D
:1082900020200C00801A3E0087408440D640781E83
:1082A0008741D14034433C438C44A4E7804A904208
:1082B00000D1E9E0DF199F429B4161445B42C9184C
:1082C000CC077F084B08994680463C43F4E6FC1AED
:1082D000A742BF4163467F42C91ACB1B99465D4600
:1082E000D5E5FF084B075D463B43CC08EEE662460A
:1082F0001A4300D082E00B003B431BD180240025B1
:108300002403F9E6DC199C429B41614489465B42A7
:1083100099444B461B0244D401239846CCE6DC1B0F
:108320006246A3429B41511A5B42CB1A99460123F4
:108330009846A4E5FF084B075D463B43CC08D7E6CB
:1083400062461A431400631E9C4179E61500644698
:10835000203DEC40A046202A05D040256446AA1ABC
:10836000944023439A465446631E9C41434623430C
:1083700073E762461A4323D00A003A4300D0A0E0D4
:108380006246DB08520713436246D408B0E60B008E
:108390003B4300D128E7FF084B075D463B43CC0831
:1083A00097E60223984636E7FC1AA742BF41634688
:1083B0007F42C91ACB1B994601235D4698465EE56C
:1083C0004B07FF083B43CC0892E6DC1B6046A34208
:1083D000B641401A7642801B8146000260D5FC1AE5
:1083E000A742BF4163467F42C91ACB1B99465D46EF
:1083F00076E5FF084B073B43CC0867E60A00DB083D
:108400003A4300D16FE66246520713436246D408EE
:1084100080221203144207D0C808104204D15D46DE
:108420000400FB0849070B435A0FDB00DB08520727
:1084300013435DE64B07FF083B43CC0849E6DC19D4
:108440009C429B41614489465B4299444B461B02D6
:1084500000D431E64A46174B1A400123914698460C
:108460002AE616006446203EF440A046202A05D0A5
:1084700040266446B21A944023439A465446631EEB
:108480009C4143461C43DBE502000024002348E5F1
:10849000DC19BC42BF41614489467F42B94438E798
:1084A0004B46234300D19FE606E6C046FE07000088
:1084B000FF070000FFFF7FFFFF084B073B43CC088F
:1084C00016E66246DB08520713436246D408802250
:1084D0001203144207D0C808104204D15D460400BC
:1084E000FB0849070B435A0FDB005207DB08134315
:1084F000FEE50023014A1C0013E5C046FF0700000B
:1085000070B505000C481C0316005B000A03490007
:10851000120B490D240B5B0D814208D0064A002046
:10852000934203D120003043431E984170BD012087
:108530002A43FBD1F2E7C046FF0700000A0030B52E
:10854000134C530009030500090B00205B0DD20FEB
:10855000A34204DD0F48834202DD0F4BD01830BD2B
:108560008020400301430D48C01A1F2808DD0C4835
:10857000C31AD9400B005842002AF0D11800EEE788
:10858000084CC540A446634499400B002B43F2E7D6
:10859000FE0300001D040000FFFFFF7F3304000006
:1085A00013040000EDFBFFFF70B5002816D0C317C1
:1085B000C5185D40C40F280000F01CF9114A121ABA
:1085C0000A2816DC03002E0015339E400B23181AD0
:1085D000C54052052D032D0B530D03E0002400234D
:1085E000002500261B052B43E40723433000190018
:1085F00070BD0B38854052052D0300262D0B530D01
:10860000F0E7C0461E04000010B5041E10D000F0B4
:10861000F1F80F4B1B1A0A2811DC0B222100121A49
:10862000D14015300A035B058440120B5B0D01E05D
:10863000002300221B0513432000190010BD220057
:108640000B3882405B0512030024120B5B0DF1E72F
:108650001E04000070B543004602C40FFE201B0E2E
:10866000591C750A08420CD0E022920094466D070E
:10867000360B63441B053343E407234328001900EA
:1086800070BD002B14D1002D1BD0280000F0B2F8D3
:108690000A281CDC0B232E001B1ADE4003001533B6
:1086A0009D400E4A3603121A5205360B530DE1E770
:1086B000002D09D08022360B1203094B6D0716439B
:1086C000D8E700230026D5E70026054BD2E70300B4
:1086D0000B3B9D402E000025E3E7C04689030000C8
:1086E000FF07000002004B00F0B55B0D0C033D4E90
:1086F000640A400F5F1CC90F0443D50037420AD0FB
:1087000039481E18FE2E16DDFF200024C005204328
:10871000C9070843F0BD002B06D12C4326D0052203
:108720009201540AD8B2F1E72543EDD08020C0036E
:108730000443FF20EAE7002E1BDD9201531E9A41FD
:10874000E4006D0F22432A43530748D00F23134000
:10875000042B00D004328023DB0413403FD0701C74
:10876000FE2ED1D09201540AC0B2CFE700200024DF
:10877000CCE73200173222DB8020000420431E2485
:10878000A41B1F2C1DDD02225242961B0200F24048
:108790001600202C04D0154A9446634498400543A3
:1087A0002A00531E9A41324300265307CED180241B
:1087B0001300E404012023402242D3D1B0E7002378
:1087C000ADE70B4A94462A00E24014002A006344B5
:1087D0009A409840551EAA4102432243E4E73300E1
:1087E0009EE7C046FE07000080FCFFFFA2FCFFFFE3
:1087F00082FCFFFF1C2101231B04984201D3000CC3
:1088000010391B0A984201D3000A08391B09984203
:1088100001D30009043902A2105C40187047C04619
:108820000403020201010101000000000000000039
:1088300080B582B000AF0200FB1D1A70384B0022D9
:108840001A70384B00221A60374B14221A70374BBB
:10885000374A1A60374B00221A80374B0E221A70A3
:10886000364B00221A60364B00221A60354B00222C
:108870001A60354B00221A60344B00221A60344BC8
:1088800000221A60334B00221A60334B00221A7008
:10889000324B00221A70324B00221A70314B0022E8
:1088A0001A70314B00221A70304B00221A70304B74
:1088B00001221A702F4B00221A702F4B00221A60CF
:1088C0002E4B00221A602E4B00221A602D4B0022E4
:1088D0001A602D4B00221A602C4B00221A602C4B80
:1088E00000221A602B4B00221A602B4B00221A60C8
:1088F0002A4B00221A602A4B00221A60294B0022C0
:108900001A60294B294A1A60274B294A9A60294B39
:10891000FA1D12781A70C046BD4602B080BDC0462E
:108920004C01002084010020C80100205C010020CF
:10893000B80B0000C4010020C90100206001002024
:1089400064010020680100206C01002074010020F7
:10895000780100207C010020CA010020CB0100200A
:10896000CC010020CD010020CE010020D20100204A
:10897000CF010020D6010020B8010020880100208E
:108980008C0100209001002094010020980100201B
:108990009C010020A0010020A4010020A8010020CB
:1089A000AC010020B00100205001002034B70000CD
:1089B000ECD60000DA01002080B500AF594B1B78DF
:1089C000002B00D16CE0574B1B78012B08D1564B84
:1089D00001221A7010F024FA0200544B1A605CE075
:1089E000504B1B78022B0ED14F4B02221A70504B6A
:1089F00000221A704F4B00221A7010F011FA020078
:108A00004D4B1A6049E0474B1B78032B0ED1464B68
:108A100003221A70464B00221A70464B00221A702D
:108A200010F0FEF90200454B1A6036E03D4B1B7812
:108A3000042B0ED13C4B04221A703D4B00221A70BD
:108A40003C4B00221A7010F0EBF902003C4B1A600C
:108A500023E0344B1B78052B08D1334B05221A70C9
:108A600010F0DEF90200374B1A6016E02D4B1B7830
:108A7000072B0BD12C4B07221A7010F0D1F90200F2
:108A8000314B1B68D21A314B1A6006E0254B1B781C
:108A9000062B02D1244B06221A70224B00221A7098
:108AA000214B1B78082B2AD89A00294BD3181B6816
:108AB0009F4600F053F827E000F006F924E000F0AC
:108AC000A1F921E000F04CFA1EE000F0E9FA1BE009
:108AD00010F0A6F902001F4B1B68D21AFA235B01A3
:108AE0009A4210D91B4B00221A600E4B07221A70B3
:108AF00009E000F08BFB07E000F064FB04E0094BA9
:108B000001221A7000E0C04600F05CFC00F0E0FBBF
:108B1000114B1B78012B02D1034B00221A70C04667
:108B2000BD4680BD4D0100204C0100208C0100207D
:108B3000D8010020D701002098010020A0010020CA
:108B4000A8010020B001002088010020B801002009
:108B500044BC0108B4010020DB01002080B500AF57
:108B600000F09CFC484B00221A7010F059F90200EA
:108B7000464B1B68D21A464B1A60454B1A68FA23BB
:108B80009B009A4260D9434B1B78012B12D1424B78
:108B90001B78012B0ED1414B1B78002B0AD1404B87
:108BA0000A221A803F4B02221A7010F039F9020093
:108BB0003D4B1A603D4B00221A703C4B1B78012B39
:108BC00006D1364B1B78002B02D1364B06221A7089
:108BD000374B1B78012B0AD12E4B01221A70354BD3
:108BE0001B68082293431A00324B1A6008E0294B95
:108BF00000221A702F4B1B6808221A432D4B1A6053
:108C00002D4B01221A70234B1B78012B1CD12A4BB0
:108C10001B78012B18D1294B1B88002B06D1254B23
:108C20001B6810221A43234B1A6006E0214B1B6875
:108C3000102293431A001F4B1A60174B1B78002B0E
:108C400002D1154B01221A70114B1A68FA235B00EE
:108C50009A420AD8114B01221A700D4B1B68052B42
:108C60000FD9174B01221A700BE00C4B00221A701F
:108C7000134B00221A70134B00221A70084B0A2261
:108C80001A80C046BD4680BDCE0100208C01002068
:108C900090010020D2010020D3010020CF0100204C
:108CA000C60100204D01002088010020CB010020DA
:108CB000CA01002084010020D4010020C40100204A
:108CC000D5010020D101002080B500AF3A4B1A68D1
:108CD0003A4B1A603A4B1B78002B0AD0394B1B7861
:108CE0001A0013005B019B1A9B009B18DB001A0003
:108CF00000E00022344B1A60344B01221A7010F04D
:108D00008FF80200324B1B68D21A324B1A60324B7A
:108D10001A682A4B1B689A421FD92E4B1B682F4A90
:108D200093421AD92E4B1B78012B0CD110F078F8F6
:108D300002002C4B1B78D31A284A934214D92A4B91
:108D400003221A7010E0264B01221A7010F068F806
:108D50000300DAB2234B1A7006E0214B00221A708E
:108D6000204B00221A7000E0C04610F059F80200B3
:108D70001E4B1B68D21A1E4B1A60164B1B681D4AED
:108D8000934208D91C4B1B6801221A431A4B1A60E4
:108D9000154B06221A70194B1B78012B02D1124B6E
:108DA00006221A70164B1B78002B02D10E4B0122A3
:108DB0001A70C046BD4680BD5001002078010020D9
:108DC000CD010020C80100207C010020CE01002040
:108DD000980100209401002070010020B80B0000D1
:108DE000D8010020D70100204D010020880100207B
:108DF000B801002040771B0084010020CB01002037
:108E0000D301002080B500AF3F4B5A683F4B1A603A
:108E10003F4B1B78002B0AD03E4B1B781A001300E7
:108E20005B019B1A9B009B18DB001A0000E00022EC
:108E3000394B1A60394B01221A700FF0F1FF020012
:108E4000374B1B68D21A374B1A600FF0E9FF02004C
:108E5000354B1B68D21A354B1A60354B1A682B4BB1
:108E60001B689A4229D9334B1A68334B1B689A42C4
:108E700023D32E4B1B68314A93421ED9304B1B78AB
:108E8000012B10D10FF0CCFF02002E4B1B78D31A10
:108E90002A4A934218D9204B1A682B4B1A602B4B45
:108EA00004221A7010E0264B01221A700FF0B8FF4E
:108EB0000300DAB2234B1A7006E0214B00221A702D
:108EC000204B00221A7000E0C046184B1B68204A55
:108ED000934208D91F4B1B6802221A431D4B1A608C
:108EE0001A4B06221A701C4B1B78012B02D1174B10
:108EF00006221A70194B1B78002B02D1134B01224A
:108F00001A70C046BD4680BD500100207801002087
:108F1000CD010020C80100207C010020CE010020EE
:108F200088010020B8010020A00100209C01002041
:108F300070010020740100205C010020B80B0000CB
:108F4000D8010020D7010020800100204D01002021
:108F50000074B70184010020CB010020D301002060
:108F600080B500AF394B9A68394B1A60394B1B7882
:108F7000002B02D0384B1A6800E00022374B1A60F1
:108F8000374B01221A700FF04BFF0200354B1B6864
:108F9000D21A354B1A600FF043FF0200334B1B68A7
:108FA000D21A334B1A60334B1A68294B1B689A420A
:108FB00025D9314B1A68314B1B689A421FD32C4B71
:108FC0001B682F4A93421AD92E4B1B78012B0CD1C8
:108FD0000FF026FF02002C4B1B78D31A284A93422D
:108FE00014D92A4B05221A7010E0264B01221A7060
:108FF0000FF016FF0300DAB2234B1A7006E0214B84
:1090000000221A70204B00221A7000E0C046184B54
:109010001B681F4A934208D91E4B1B6804221A433F
:109020001C4B1A60194B06221A701B4B1B78012B24
:1090300002D1164B06221A70184B1B78002B02D156
:10904000124B01221A70C046BD4680BD500100205F
:1090500078010020CD010020800100207C0100204B
:10906000CE01002088010020B8010020A8010020C6
:10907000A401002070010020740100205C01002088
:10908000983A0000D8010020D70100204D010020AF
:1090900000BADB0084010020CB010020D3010020B6
:1090A00080B500AF344B9A68344B1A60344B1B7850
:1090B000002B02D0334B1A6800E00022324B1A60BA
:1090C000324B01221A700FF0ABFE0200304B1B68CE
:1090D000D21A304B1A600FF0A3FE02002E4B1B6811
:1090E000D21A2E4B1A602E4B1A682E4B1B689A42CE
:1090F0001AD8234B1B78012B16D12B4B1B7801332D
:10910000DAB2294B1A70284B1B78052B08D9274B4C
:1091100008221A700FF084FE0200254B1A6006E048
:10912000244B00221A7002E0224B00221A701B4BC3
:109130001B68214A934215D91B4B1B780133DAB2C5
:10914000194B1A70184B1B78052B08D91B4B08229A
:109150001A700FF065FE0200154B1A6002E0154B05
:1091600000221A70164B1B78002B02D0134B0622DC
:109170001A70C046BD4680BD500100207801002015
:10918000CD010020800100207C010020CE010020C4
:1091900088010020B8010020B0010020AC010020AF
:1091A000740100205C010020DC0100204C01002043
:1091B000B4010020CC01002000BADB004D010020EA
:1091C000CB01002080B500AF0A4B01221A700A4B78
:1091D00000221A70094B00221A70094B00221A70E3
:1091E000084B1B78002B02D1074B01221A70C04696
:1091F000BD4680BDCC010020CD010020CE01002065
:10920000D2010020D30100204D01002080B500AF25
:1092100000F044F90FF004FE0200244B1B68D31A3F
:10922000092B12D9224B1B78002B02D1214B012292
:109230001A700FF0F5FD02001C4B1A601E4B012244
:109240001A701E4B00221A700AE00FF0E9FD0200AE
:10925000164B1B68D31A952B02D9164B01221A7094
:10926000174B1B78002B11D1164B1B68002B0DD10F
:109270000FF0D6FD02000D4B1B68D31A092B05D940
:109280000D4B01221A700D4B00221A700E4B1B88D9
:109290000A2B05D90C4B1B88013B9AB20A4B1A804A
:1092A0000A4B01221A70C046BD4680BD8C010020C9
:1092B000D0010020D50100204D010020D301002065
:1092C000CB01002084010020C6010020D101002034
:1092D000B0B500AF2C4B1B78012B52D92A4B1B7811
:1092E000052B4ED8294B1B68F53BFF3B1A00274B3B
:1092F0001A60274B1B781A00264B53431A00264B43
:109300001A60224B1A68244B9A60204B1A68224B31
:109310005A60224B1B68224A93421CD8214B1B786F
:10932000002B07D11F4B01221A700FF079FD0200AC
:109330001D4B1A601C4B1B681C4A9C180FF070FDDB
:1093400003009C4203D21A4B00221A700CE0184B07
:1093500001221A7008E0144B00221A60114B0022FF
:109360001A70134B01221A70124B1B78012B04D177
:10937000114B1A68114B1A6003E0114B1A680F4B1E
:109380001A60C046BD46B0BD4C01002068010020F7
:10939000C9010020160D00005001002060010020CE
:1093A000DFA50100DD010020E0010020881300009E
:1093B000CD010020DA0100206401002070010020AE
:1093C0006C01002090B583B000AF2E4B1B78022BB0
:1093D0004CD92C4B1B78052B48D82B4B1B68002BEA
:1093E00007D12A4B1B68002B03D1294B00221A609E
:1093F0003CE0254B1A68254B1B685343FA22910029
:109400001800FCF781FA03007B607B68214A9342D5
:109410002CD90FF005FD02001F4B1A601E4B1B6874
:10942000FA22D2009C180FF0FBFC03009C421DD2D4
:10943000154B1B68013319001648FCF765FA030049
:109440003B603A6813005B019B1A9B009B18DB0092
:109450001A000E4B1B68D21A0D4B1B68D2180C4B0E
:109460001A600FF0DDFC02000B4B1A60074B1A6804
:10947000074B1B68D21A054B1A60C046BD4603B0A5
:1094800090BDC0464C010020780100207C010020E6
:10949000E4010020804F1200E801002080B500AFF9
:1094A000044B00221A60044B00221A60C046BD46DD
:1094B00080BDC046780100207C01002090B585B0B9
:1094C00000AF02003960BB1D1A803A4B1A683A4B54
:1094D0001B689A4206D2374B1B6864331A00354B1F
:1094E0001A6003E0344B1A68324B1A6001F06CF8D2
:1094F0000300012B07D12F4B1B68180000F066F802
:1095000002002D4B1A602C4B1C682B4B1A68BB1D9C
:1095100000215B5E1100180000F0B2F80300E31AAE
:10952000FB60254B1B68FA689A4208D23B6801220F
:109530001A700FF075FC0200204B1A6012E01F4BEE
:109540001B68002B0ED01D4B1B681D4A9C180FF08A
:1095500067FC03009C4205D23B6800221A70174B3F
:1095600000221A60FB68180000F0B8F8154B1B6861
:10957000002B11D0144B1B78052B07D101F024F8D8
:109580000300012B02D10F4B0A221A600D4B1B68FE
:1095900018000FF01DF902E000200FF019F900F09B
:1095A000C1F8030018000FF031F9C046BD4605B000
:1095B00090BDC046C00100207C010020EC010020CD
:1095C000B80B0000BC0100204C01002080B584B025
:1095D00000AF78607B68FB60074B1B68074A9342CB
:1095E00001D9FB6804E000F00BF80300FB60FB68A6
:1095F0001800BD4604B080BD6001002020BF0200FD
:1096000080B582B000AF1B4B1B781A0013005B01C2
:109610009B1A9B009B18DB007B60FB1C00221A70CE
:109620001FE0FB1C1A78144BD200D258134B1B6856
:109630009A4211D2FB1C1B780F4ADB00D31804336B
:109640001B686422D31A7A68534364211800FCF71C
:109650005BF903007B6008E0FB1C1A78FB1C0132FD
:109660001A70FB1C1B780E2BDBD97B681800BD46DB
:1096700002B080BDC8010020000000206001002071
:1096800080B584B000AF02003960BB1D1A80BB1DDD
:1096900000229B5E592B1BDDBB1D00229B5E632BB2
:1096A00016DCBB1D00229B5E5A3B1A003B685A43E6
:1096B00013009B009B185B0064211800FCF724F941
:1096C0000300FB603A68FB68934202D9130000E094
:1096D00000231800BD4604B080BD000080B582B0F4
:1096E00000AF78607B68002B14D00C4B1B687A6845
:1096F0009A4209D9094B1B6864331A00074B1A6058
:10970000074B00221A7005E0044B7A681A60044B7C
:1097100001221A70C046BD4602B080BDBC010020C7
:10972000D901002080B582B000AF00237B600F4BD1
:109730001B78042B02DC022B03DA0EE0052B08D089
:109740000BE00B4B1B68FA22D200944663447B600B
:1097500006E0084B1B687B6002E000237B60C0468C
:109760007B681800BD4602B080BDC0464C01002099
:10977000680100207801002080B500AF054B002271
:109780001A70054B00221A60044B00221A60C04672
:10979000BD4680BDD9010020BC010020C0010020D1
:1097A00080B582B000AF7860034B7A681A60C0461B
:1097B000BD4602B080BDC0466401002080B582B0C5
:1097C00000AF7860034B7A681A60C046BD4602B0AD
:1097D00080BDC0466801002080B582B000AF7860CF
:1097E000034B7A681A60C046BD4602B080BDC046D1
:1097F0006C01002080B582B000AF7860034B7A68BE
:109800001A60C046BD4602B080BDC046740100204B
:1098100080B582B000AF7860034B7A681A60C046AA
:10982000BD4602B080BDC0466001002080B582B058
:1098300000AF0200FB1D1A70034BFA1D12781A705C
:10984000C046BD4602B080BDCA01002080B582B0CE
:1098500000AF0200BB1D1A80034BBA1D12881A808C
:10986000C046BD4602B080BDC401002080B582B0B4
:1098700000AF0200FB1D1A70034BFA1D12781A701C
:10988000C046BD4602B080BDC901002080B582B08F
:1098900000AF0200FB1D1A70034BFA1D12781A70FC
:1098A000C046BD4602B080BDC801002080B582B070
:1098B00000AF7860034B7A681A60C046BD4602B0BC
:1098C00080BDC0465C01002080B582B000AF0200C0
:1098D000FB1D1A70034BFA1D12781A70C046BD4664
:1098E00002B080BD4D01002080B582B000AF020003
:1098F000FB1D1A70034BFA1D12781A70C046BD4644
:1099000002B080BDDB01002080B500AF024B1B78A8
:109910001800BD4680BDC0464C01002080B500AF98
:10992000024B1B681800BD4680BDC0468401002064
:1099300080B500AF024B1B781800BD4680BDC04605
:10994000CC01002080B500AF024B1B781800BD464B
:1099500080BDC046D201002080B500AF024B1B780D
:109960001800BD4680BDC046CE01002080B500AFC6
:10997000224B00221A70224B00221A70214B002227
:109980001A70214B00221A70204B00221A70204BB3
:1099900000221A701F4B00221A701F4B00221A70EF
:1099A0001E4B00221A601E4B00221A601D4B002223
:1099B0001A601D4B00221A601C4B00221A601C4BBF
:1099C00000221A601B4B00221A601B4B1B4A1A60B4
:1099D0001B4B14221A701B4B1B4A1A601B4B1C4A50
:1099E0001A601C4B1C4A1A601C4B64221A601C4BE8
:1099F00000221A60C046BD4680BDC0462E0200202F
:109A00002F02002030020020290200202A0200201C
:109A10002B0200202C0200202D020020F00100204B
:109A2000180200201C020020F4010020F801002090
:109A3000FC0100200402002000020020ECD60000FF
:109A40002802002008020020C0DA00000C020020DA
:109A5000EC90000010020020A8610000200200200D
:109A60002402002080B582B000AF0200FB1D1A70F6
:109A7000BB1D0A1C1A7000F097FCBB1D1B78012B44
:109A800002D100F0B9F801E000F068F800F0F4F855
:109A900000F01AFD00F040F900F0CAF900F006FAF3
:109AA00000F018F800F0DAFA00F036FB00F092FB54
:109AB00000F0DAFB00F04CFA00F020FC00F08CFC27
:109AC000FB1D1B78012B01D100F036FDC046BD46C1
:109AD00002B080BDB0B500AF194B1B78012B2CD163
:109AE000184B1B78012B1CD1174B1B78002B07D16F
:109AF000154B01221A700FF093F90200134B1A60F4
:109B0000124B1B68FA2292009C180FF089F903008F
:109B10009C4212D20E4B1B680E4A1A430C4B1A6021
:109B20000BE0094B00221A70084B00221A60084B08
:109B30001B68094A1A40064B1A60C046BD46B0BDB4
:109B40002F0200202B0200203402002038020020C7
:109B50000402002000010010FFFEFFFFB0B500AFBF
:109B60001D4B1B681D4A93421CD91D4B1B78002BB3
:109B700007D10FF055F902001A4B1A60184B012259
:109B80001A70184B1B68FA22D2009C180FF048F983
:109B900003009C420CD2144B1B68144A1A43124B0C
:109BA0001A6005E00F4B00221A600D4B00221A705C
:109BB000094B1B680E4A93420BD80A4B00221A60CD
:109BC000094B1B680B4A1A40074B1A60044B0022D2
:109BD0001A70C046BD46B0BDF0010020F0BA0400C6
:109BE0003C0200204002002004020020000200107D
:109BF00058800400FFFDFFFFB0B500AF184B1B6895
:109C0000184A93421CD9184B1B78002B07D10FF030
:109C100007F90200154B1A60134B01221A70134BFF
:109C20001B68FA22D2009C180FF0FAF803009C423D
:109C300013D20F4B1B680F4A1A430D4B1A600CE0EE
:109C40000A4B00221A60084B00221A70084B1B684E
:109C5000012293431A00064B1A60C046BD46B0BDB0
:109C6000F0010020383204004402002048020020A5
:109C70000402002001000010B0B500AF1D4B1B68AE
:109C80001D4A93421BD81D4B1B78002B07D10FF0A8
:109C9000C7F802001A4B1A60184B01221A70184BB1
:109CA0001B68184A9C180FF0BBF803009C420CD2AA
:109CB000154B1B68154A1A43134B1A6005E00F4BEE
:109CC00000221A700E4B00221A600A4B1B68104AC1
:109CD00093420BD9094B00221A70094B00221A60DB
:109CE000094B1B680B4A1A40074B1A60C046BD4619
:109CF000B0BDC046F0010020AFAD01004C02002015
:109D0000500200208813000004020020000400100C
:109D1000BFD40100FFFBFFFFB0B500AF384B1B788D
:109D2000012B3CD1374B1B78012B38D1364B1B68AC
:109D3000F533FF331A00354B1B689A4221D2344B5E
:109D40001A68FA23DB009A421BD9324B1B78002B8E
:109D500007D1304B01221A700FF062F802002E4B2F
:109D60001A602D4B1B682D4A9C180FF059F8030000
:109D70009C4213D22A4B1B682A4A1A43284B1A606A
:109D80000CE0244B00221A70234B00221A60244B53
:109D90001B68254A1A40224B1A602EE02DE01B4B0F
:109DA0001B68224A93421BD91A4B1B78002B07D100
:109DB000184B01221A700FF033F80200164B1A608C
:109DC000154B1B68154A9C180FF02AF803009C429B
:109DD00013D2134B1B68134A1A43114B1A600CE041
:109DE0000C4B00221A700C4B00221A600C4B1B68A3
:109DF0000D4A1A400A4B1A60FFE7C046BD46B0BD87
:109E00002F0200203002002008020020F80100206C
:109E1000FC0100205402002058020020881300009A
:109E20000402002000200010FFDFFFFFA0860100D9
:109E3000B0B500AF184B1B78012B1CD1174B1B780A
:109E4000002B07D1154B01221A700EF0E9FF02001A
:109E5000134B1A60124B1B68FA2292009C180EF0EA
:109E6000DFFF03009C4213D20E4B1B680E4A1A43BD
:109E70000C4B1A600CE0094B00221A70084B0022B0
:109E80001A60084B1B68402293431A00054B1A6066
:109E9000C046BD46B0BDC046290200205C0200207D
:109EA000600200200402002040000010B0B500AFA6
:109EB0001F4B1B78012B38D11E4B1B781A00130047
:109EC0005B019B1A9B009B18DB00F533FF331A00E4
:109ED000194B1B689A421CD2184B1B78002B07D1D8
:109EE000164B01221A700EF09BFF0200144B1A60F1
:109EF000134B1B68FA2292009C180EF091FF03008E
:109F00009C4212D20F4B1B680F4A1A430D4B1A602A
:109F10000BE00A4B00221A70094B00221A60094B11
:109F20001B680A4A1A40074B1A60C046BD46B0BDBE
:109F30002F02002028020020FC01002064020020E3
:109F4000680200200402002000000110FFFFFEFF55
:109F5000B0B500AF334B1B78012B5FD1324B1B7870
:109F6000012B5BD1314B1B68314A934205D92F4BF2
:109F70001A68304B1B689A421FD32F4B1A68FA237A
:109F80005B009A4219D22D4B1B78002B07D12B4B2B
:109F900001221A700EF044FF0200294B1A60284B70
:109FA0001B689C1C0EF03CFF03009C4205D2254B15
:109FB0001B68254A1A43234B1A60224B1B688022D8
:109FC00013402BD0194B1B68194A934226D9174BC3
:109FD0001B681E4A934221D81D4B1B78002B07D1CA
:109FE0001B4B01221A700EF01BFF0200194B1A6066
:109FF000184B1B68184A9C180EF012FF03009C4275
:10A000000CD2134B00221A70124B00221A600D4B17
:10A010001B68802293431A000A4B1A60C046BD4653
:10A02000B0BDC0462F02002030020020F801002001
:10A030001F4E000000020020FC0100206C020020E6
:10A0400070020020040200208000001030F20000A6
:10A050007402002078020020581B0000B0B500AF49
:10A06000264B1B78012B32D1254B1B78012B2ED18F
:10A07000244B1B78012B1CD1234B1B78002B07D1C1
:10A08000214B01221A700EF0CBFE02001F4B1A600A
:10A090001E4B1B68FA2292009C180EF0C1FE0300B2
:10A0A0009C4226D21A4B1B681A4A1A43184B1A6054
:10A0B0001FE0154B00221A70144B00221A60144B3B
:10A0C0001B68082293431A00114B1A6011E00D4BD4
:10A0D0001B78002B0ED10C4B00221A700B4B002268
:10A0E0001A600B4B1B68082293431A00084B1A6036
:10A0F00000E0C046C046BD46B0BDC0462F020020AD
:10A10000300200202C0200207C020020800200206F
:10A110000402002008000010B0B500AF264B1B78E9
:10A12000012B32D1254B1B78012B2ED1244B1B78D0
:10A13000012B1CD1234B1B78002B07D1214B012273
:10A140001A700EF06DFE02001F4B1A601E4B1B684A
:10A15000FA2292009C180EF063FE03009C4226D265
:10A160001A4B1B681A4A1A43184B1A601FE0154B0A
:10A1700000221A70144B00221A60144B1B68102224
:10A1800093431A00114B1A6011E00D4B1B78002B02
:10A190000ED10C4B00221A700B4B00221A600B4B95
:10A1A0001B68102293431A00084B1A6000E0C04657
:10A1B000C046BD46B0BDC0462F0200203002002080
:10A1C0002D020020840200208802002004020020CA
:10A1D00010000010B0B500AF1C4B1B78012B31D123
:10A1E0001B4B1B78012B2DD11A4B1B68642B1CDDDC
:10A1F000194B1B78002B07D1174B01221A700EF058
:10A200000FFE0200154B1A60144B1B68FA229200D5
:10A210009C180EF005FE03009C4213D2104B1B68E5
:10A22000104A1A430E4B1A600CE00B4B00221A70B6
:10A230000A4B00221A600A4B1B68022293431A0041
:10A24000074B1A60C046BD46B0BDC0462F02002075
:10A25000300200201C0200208C020020900200200E
:10A260000402002002000010B0B500AF1C4B1B78A8
:10A27000012B31D11B4B1B78012B2DD11A4B1B68A5
:10A28000002B1CDA194B1B78002B07D1174B01222E
:10A290001A700EF0C5FD0200154B1A60144B1B68B6
:10A2A000FA2292009C180EF0BBFD03009C4213D2D0
:10A2B000104B1B68104A1A430E4B1A600CE00B4BF4
:10A2C00000221A700A4B00221A600A4B1B680422F3
:10A2D00093431A00074B1A60C046BD46B0BDC04646
:10A2E0002F020020300200201C02002094020020D7
:10A2F00098020020040200200400001090B583B0F2
:10A3000000AFFC1D0EF0F8FB030023700EF064FD9F
:10A3100003001A001E4B1A70FB1D1B78002B04D182
:10A320001B4B1B78DBB2002B1BD01A4B1B78002B6E
:10A3300007D1184B01221A700EF072FD0200164B65
:10A340001A60154B1B68FA2292009C180EF068FDEB
:10A3500003009C4205D2114B1B68114A1A430F4B54
:10A360001A60FB1D1B78002B0ED10A4B00221A70BD
:10A37000094B00221A60064B00221A70074B1B681B
:10A38000084A1A40054B1A60C046BD4603B090BD4E
:10A39000330200209C020020A002002004020020C2
:10A3A00000000810FFFFF7FF80B582B000AF0EF08D
:10A3B0002DFD03007B607B68002B05D0044B1B68E0
:10A3C000044A1A43024B1A60C046BD4602B080BD23
:10A3D000040200200000101090B583B000AFFC1DF7
:10A3E0000EF0F0FC03002370FB1D1B78272B1BD8FD
:10A3F0002B4B1B78002B07D1294B01221A700EF032
:10A400000FFD0200274B1A60264B1B68264A9C183A
:10A410000EF006FD03009C4212D2244B1B68244A16
:10A420001A43224B1A600BE0204B1B68214A1A404A
:10A430001E4B1A601B4B00221A60194B00221A7027
:10A44000FB1D1B78502B1BD91B4B1B78002B07D1F6
:10A45000194B01221A700EF0E3FC0200174B1A6030
:10A46000164B1B68104A9C180EF0DAFC03009C4245
:10A4700012D20E4B1B68124A1A430C4B1A600BE0A7
:10A480000A4B1B680F4A1A40084B1A600B4B0022FC
:10A490001A60094B00221A70C046BD4603B090BD39
:10A4A000A4020020A802002088130000040200205B
:10A4B00000000410FFFFFBFFAC020020B0020020F0
:10A4C00000000210FFFFFDFFB0B500AF144B1B688A
:10A4D000144A934218D8144B1B78002B07D1124B07
:10A4E00001221A700EF09CFC0200104B1A600F4BF8
:10A4F0001B680F4A9C180EF093FC03009C420CD280
:10A500000C4B01221A7008E00A4B00221A70074B0C
:10A5100000221A60044B00221A70C046BD46B0BD2E
:10A52000F00100201FBF0200B4020020B80200208A
:10A530008813000031020020B0B500AF174B1B7824
:10A54000002B1CD1164B1B78002B07D1144B01227A
:10A550001A700EF065FC0200124B1A60114B1B685A
:10A56000FA22D2009C180EF05BFC03009C4212D22F
:10A570000D4B1B680D4A1A430B4B1A600BE00A4B3C
:10A580001B680B4A1A40084B1A60064B00221A60DF
:10A59000034B00221A70C046BD46B0BD32020020F7
:10A5A000BC020020C0020020040200200080001035
:10A5B000FF7FFFFF80B500AF024B1B681800BD4650
:10A5C00080BDC0460402002080B500AF024B1B785E
:10A5D0001800BD4680BDC0463102002080B582B063
:10A5E00000AF7860034B7A681A60C046BD4602B07F
:10A5F00080BDC0461802002080B582B000AF7860F0
:10A60000034B7A681A60C046BD4602B080BDC046A2
:10A61000F401002080B582B000AF7860034B7A6807
:10A620001A60C046BD4602B080BDC0460002002090
:10A6300080B582B000AF7860034B7A681A60C0467C
:10A64000BD4602B080BDC0460402002080B582B085
:10A6500000AF0200FB1D1A70034BFA1D12781A702E
:10A66000C046BD4602B080BD2E02002080B582B03B
:10A6700000AF0200FB1D1A70034BFA1D12781A700E
:10A68000C046BD4602B080BD2D02002080B582B01C
:10A6900000AF0200FB1D1A70034BFA1D12781A70EE
:10A6A000C046BD4602B080BD2C02002080B582B0FD
:10A6B00000AF0200FB1D1A70034BFA1D12781A70CE
:10A6C000C046BD4602B080BD2B02002080B582B0DE
:10A6D00000AF0200FB1D1A70034BFA1D12781A70AE
:10A6E000C046BD4602B080BD2A02002080B582B0BF
:10A6F00000AF0200FB1D1A70034BFA1D12781A708E
:10A70000C046BD4602B080BD2902002080B582B09F
:10A7100000AF7860034B7A681A60C046BD4602B04D
:10A7200080BDC0461002002080B582B000AF7860C6
:10A730007A68034B1A60C046BD4602B080BDC04671
:10A740002402002080B582B000AF7860034B7A68A5
:10A750001A60C046BD4602B080BDC046200200203F
:10A7600080B582B000AF78607A68034B1A60C0464B
:10A77000BD4602B080BDC0460C02002080B582B04C
:10A7800000AF7860034B7A681A60C046BD4602B0DD
:10A7900080BDC0460802002080B582B000AF020034
:10A7A000FB1D1A70034BFA1D12781A70C046BD4685
:10A7B00002B080BD3002002080B582B000AF020040
:10A7C000FB1D1A70034BFA1D12781A70C046BD4665
:10A7D00002B080BD2F02002080B582B000AF78604B
:10A7E000034B7A681A60C046BD4602B080BDC046C1
:10A7F000FC01002080B582B000AF7860034B7A681E
:10A800001A60C046BD4602B080BDC046F8010020B7
:10A8100080B582B000AF78607A68034B1A60C0469A
:10A82000BD4602B080BDC0461C02002080B582B08B
:10A8300000AF7860034B7A681A60C046BD4602B02C
:10A8400080BDC046F001002080B582B000AF7860C6
:10A85000034B7A681A60C046BD4602B080BDC04650
:10A860001402002080B582B000AF0200FB1D1A70F8
:10A87000034BFA1D12781A70C046BD4602B080BD67
:10A880003202002090B583B000AF134B1B78012B30
:10A890001ED1124B1B68FA22D2009C180EF0C0FA8F
:10A8A00003009C4214D2FC1D0EF0E2F8030023705A
:10A8B000FB1D1B78012B08D1094B01221A70094B93
:10A8C00000221A7000F032F802E0054B00221A70E4
:10A8D000C046BD4603B090BDCA020020C40200209D
:10A8E000CB020020C802002080B500AF0EF0D0F8E7
:10A8F0000EF086F80EF0A0F8084B01221A70084BF3
:10A9000001221A70074B01221A700EF089FA020018
:10A91000054B1A60C046BD4680BDC046CA02002035
:10A92000C9020020C8020020C402002080B500AF88
:10A930000EF0BBF80EF072F80EF08CF8044B00220B
:10A940001A70044B00221A70C046BD4680BDC04636
:10A95000CA020020C902002080B500AF0EF098F8AE
:10A960000EF04EF80EF076F8084B01221A70084BE4
:10A9700001221A70074B01221A700EF051FA0200E0
:10A98000054B1A60C046BD4680BDC046CA020020C5
:10A99000CC020020C9020020C402002080B500AF14
:10A9A0000EF083F80EF03AF80EF054F8044B002243
:10A9B0001A70044B00221A70C046BD4680BDC046C6
:10A9C000CA020020C902002080B500AF024B1B78EC
:10A9D0001800BD4680BDC046C802002080B500AF4B
:10A9E000024B1B781800BD4680BDC046C90200203E
:10A9F00080B500AF134B00221A70134B00221A705F
:10AA0000124B00221A70124B00221A70114B0022B6
:10AA10001A60114B00221A600A4B00221A700EF0C5
:10AA200017F90E4BFF221A700D4B00221A700D4BB6
:10AA300000221A700C4B00221A700EF09FF9C046CB
:10AA4000BD4680BDDB020020DC020020DD020020CC
:10AA5000DE020020D0020020D4020020CD0200201F
:10AA6000D8020020D9020020DA020020B0B500AFE1
:10AA70001F4B1B78012B36D11E4B01221A701E4B27
:10AA80001A681E4B1B68D4180EF0CAF903009C42CA
:10AA900023D91B4B1B7818000EF061F90EF0C0F99A
:10AAA0000200184B1B689A421DD9174B1A78174B96
:10AAB0001B78190010000EF0EBF80EF0B1F903004E
:10AAC000FA2292009A180F4B1A600D4B1B78012244
:10AAD0005340DAB20A4B1A7005E0064B00221A7096
:10AAE000034B00221A7000F01BF9C046BD46B0BDF2
:10AAF000DB020020DE020020D0020020D402002071
:10AB000078000020E0020020DC020020DD020020AE
:10AB100090B583B000AF040008001100FB1D221C9B
:10AB20001A70BB1D021C1A707B1D0A1C1A70384B50
:10AB30001B7818000EF013F90EF072F90200354B75
:10AB40001B689A425FD9BB1D1B78022B48D04ADC98
:10AB5000002B1ED0012B46D1FA1DFB1D1B78D9B24C
:10AB6000632900D963231370FB1D1B780A21180089
:10AB7000FAF7CAFE0300DCB2FB1D1B780A2118009D
:10AB8000FAF748FF0B00DBB2190020000EF0A2F824
:10AB90002AE07B1D1B78002B05D1FB1D1B781800BC
:10ABA0000EF0B1F820E0FA1DFB1D1B78D9B2632925
:10ABB00000D963231370FB1D1B780A211800FAF7D4
:10ABC000A3FE0300DCB2FB1D1B780A211800FAF774
:10ABD00021FF0B00DBB2190020000EF07BF803E030
:10ABE0000EF0B0F800E0C046094B1B78012253403C
:10ABF000DAB2074B1A700EF013F90300FA22920032
:10AC00009A18044B1A60C046BD4603B090BDC046BA
:10AC100079000020E402002080B582B000AF3A60E5
:10AC2000FB1D021C1A70BB1D0A1C1A700C4BFA1D6E
:10AC300012781A700B4BBA1D12781A700A4B3A68C8
:10AC40001A600A4B01221A70094B01221A700EF089
:10AC5000E7F80200074B1A60C046BD4602B080BD4F
:10AC6000DC020020DD020020D4020020DB020020F4
:10AC7000DE020020D002002080B582B000AF0200CA
:10AC8000FB1D1A70BB1D0A1C1A70214B1B78FA1D84
:10AC900012789A4203D31E4B1B78FF2B1AD1BB1D8F
:10ACA0001B78012B0ED11A4BFA1D12781A70184B13
:10ACB0001A78184B1A70184B01221A70174B012280
:10ACC0001A7020E0154B1B78002B1CD1104BFF2273
:10ACD0001A7018E00E4B1B78FA1D12789A4213D1A5
:10ACE000BB1D1B78002B0FD10C4B00221A70084B98
:10ACF000FF221A70074B00221A70074B00221A70AD
:10AD00000EF054F800E0C046C046BD4602B080BD1B
:10AD1000CD020020DA020020D9020020D802002053
:10AD200080B500AF204B1B78FF2B35D01F4B1B7815
:10AD3000012B31D11C4B1B78042B0AD02EDC002BAD
:10AD400004D02BDB013B012B28D802E00EF022F8C7
:10AD500027E0174B1B78002B0AD1134B1A78144BA2
:10AD60001A70144B1B7801225340DAB2114B1A703F
:10AD70000F4B1B78002B13D00E4B1B78012B02D1ED
:10AD80000EF008F801E00EF011F8094B1B78013BBA
:10AD9000DAB2074B1A7003E0C04602E0C04600E09A
:10ADA000C046C046BD4680BDCD020020D80200206E
:10ADB000DA020020D902002080B500AF024B1B78D8
:10ADC0001800BD4680BDC046DE02002080B500AF41
:10ADD000BFF34F8FC046044B044ADA60BFF34F8F76
:10ADE000C046C046FDE7C04600ED00E00400FA059D
:10ADF00080B582B000AF78600D4A7B681A607B68CE
:10AE000005220C499B183722180010F0EFFB7B68D5
:10AE1000094A3C3311003722180010F0E7FB7B6829
:10AE200000221A717B681800BD4602B080BDC04682
:10AE300070BC0108BCB60108F4B6010880B582B048
:10AE400000AF7860034A7B681A607B681800BD46D3
:10AE500002B080BD70BC010880B582B000AF7860E0
:10AE60007B681800FFF7C4FF6E4A7B681A607B6836
:10AE700075229B1819220021180010F0C0FB7B6876
:10AE80009A229B180D220021180010F0B8FB7B6855
:10AE9000A72265499B183F22180010F0A7FB7A688B
:10AEA00088235B000021D1507B68E8225F499950DC
:10AEB0007B68EC22002199507A689C235B0000217A
:10AEC000D1547A683A23FF330021D1547A689D2304
:10AED0005B000021D1547A683C23FF330021D15418
:10AEE0007A689E235B000021D1547A68A0235B001E
:10AEF0000021D1547A684223FF330121D1547A686A
:10AF0000A1235B000021D1547A684423FF33002140
:10AF1000D1547A68A2235B000021D1547A68462379
:10AF2000FF330021D1547A6888235B000021D1507F
:10AF30007A684023FF330021D1547A688A235B006A
:10AF40000021D1507A688C235B003949D1507A684E
:10AF5000A3235B000021D1547A683E23FF330021F4
:10AF6000D1547A688E235B003249D1507A6890239D
:10AF70005B003149D1507A6892235B000021D150A7
:10AF80007A6894235B000021D1507A6896235B0095
:10AF90000021D1507A6898235B000021D1507A6853
:10AFA0009A235B000021D1507A689F235B00002127
:10AFB000D1547B68F022002199507B68F422002153
:10AFC00099507B68F822002199507B68FC2200216F
:10AFD00099507A6880235B000021D1507A688223DF
:10AFE0005B000021D1507A6884235B000021D1509E
:10AFF0007A6886235B000021D1507A68A4235B0025
:10B000000021D1547A684A23FF330021D1547A6851
:10B01000AC235B000021D1547B681800BD4602B010
:10B0200080BDC046B8BD01082CB70108B80B0000B0
:10B03000ECD60000A8610000C0DA000080B582B044
:10B0400000AF7860054A7B681A607B681800FFF7DC
:10B05000F5FE7B681800BD4602B080BDB8BD010892
:10B0600080B584B002AFFB1D00221A7001F0D6FC3F
:10B0700000F0A2F8274800230093002300220021BB
:10B0800007F00AF803005A1E9341DBB2002B02D0EE
:10B09000FB1DFF221A701F4B00220121180007F030
:10B0A00021FB03005A1E9341DBB2002B02D0FB1D93
:10B0B000FF221A70174B00220321180007F05CF8DA
:10B0C00003005A1E9341DBB2002B02D0FB1DFF226E
:10B0D0001A70104B180007F087F803005A1E9341AE
:10B0E000DBB2002B02D0FB1DFF221A70094B1800A7
:10B0F00007F09AF803005A1E9341DBB2002B02D0EE
:10B10000FB1DFF221A70FB1D1B785BB21800BD46A9
:10B1100002B080BDD025002090B58FB000AFF860A0
:10B12000B960FB1D1A7014243B1924220021180059
:10B1300010F065FA21007B18FA681A60FA6880231B
:10B140001B019A4204D37B188022D2055A6003E087
:10B150001423FB1800225A6014217B1800229A60E5
:10B16000FB1D1B781B041A007B18DA607B188022F9
:10B1700012061A617B1800225A617B1800229A611C
:10B180007B180022DA617B1800221A62BA687918EB
:10B19000084B180007F06EF803005A1E9341DBB20B
:10B1A000002B02D001235B4200E000231800BD46C3
:10B1B0000FB090BDD025002080B586B000AF3B0019
:10B1C000180018231A00002110F019FA3B00802201
:10B1D000D2051A603B0000225A603B0002229A60AE
:10B1E0003B000122DA603B0000221A613B00002292
:10B1F0005A613A00084B1100180006F035FE0300B2
:10B200005A1E9341DBB2002B01D001F0A5FEC046CF
:10B21000BD4606B080BDC046D0250020B0B58EB07A
:10B2200000AF7860396010243B19282200211800F3
:10B2300010F0E5F908257B1900221A6000225A60F7
:10B2400080239A00A023DB051100180008F070F895
:10B250007B193A197868402107F052F903005A42E5
:10B260005341DBB2002B1BD00F4B1B68002B17D0B8
:10B270003B191B68162B02D101F09AF910E00A4B1A
:10B280001868094B1B681B680C331C681022BB181C
:10B290001968BB18DB681B0CDBB20822BA18A04780
:10B2A000C046BD460EB0B0BD4404002080B500AF1E
:10B2B00004F014FA01F0F2FD0DF090FB094B0A4A7C
:10B2C0001A60084B1B68002B07D0064B1A68054B09
:10B2D0001B681B681B681000984700F033F80EF0DD
:10B2E00099F8FEE744040020E802002080B582B00F
:10B2F00000AF7860044B1B78012B01D10DF038FEB4
:10B30000282004F027FAF5E7361E002080B584B027
:10B3100004AF80235A0007490748084B0293084BA3
:10B3200001930123009300230EF04DFDC046BD465E
:10B3300080BDC0466CB70108EDB20008481C002073
:10B340004804002080B500AFFFF7E0FF01F09EF851
:10B3500001F064F801F07EF801F0B4F8C046BD4693
:10B3600080BD0000F0B58DB000AF674B1968664B2B
:10B370001B681B6818331B6810257A191000984742
:10B38000614B1A68604B1B681B684C331B682F2687
:10B39000BC1910009847030023705B4B1A685A4B86
:10B3A0001B681B6858331B682E217C1810009847B7
:10B3B000030023703B1D18000C231A00002110F01D
:10B3C0001EF92C217B187A1912891A807B181A8889
:10B3D000E1231B019A421AD37B181B884B4A9342E4
:10B3E00015D8BB191B78152B0DD83B1D484A5A6040
:10B3F0003B1D484A9A603B1D474A1A60474BE12271
:10B4000012011A6021E0464B00221A7078E02C21CC
:10B410007B181A88C8231B019A4212D87B181B88F4
:10B42000404A93420DD93B1D3F4A5A603B1D3E4A5C
:10B430009A603B1D3D4A1A60384BC82212011A60BF
:10B4400003E0364B00221A605AE02F4B18682E4B4F
:10B450001B681B6894331C683B1D19685A689B68FD
:10B46000A0472E23FB181B78FF2B06D1FEF74CFAC2
:10B470000300012B01D1012300E00023002B3FD06A
:10B480002F22BB181B78182B03D8BB181B780C2B4A
:10B4900006D8224B00221A60214B00221A702FE09E
:10B4A0001F4B01221A703B1D5B682F257A191278F9
:10B4B00053431800FFF7C8F910243B191B881A00E2
:10B4C0007B191B7853431800FFF758F93B195B8829
:10B4D0001A007B191B7853431800FFF741F93B19F9
:10B4E0000A229B5E1800FFF72DF93B190C229B5E88
:10B4F0001800FFF719F93B195B681800FFF706F908
:10B50000BD460DB0F0BDC0464404002068100000E8
:10B51000290B0000B80B0000820E0000241E002042
:10B52000381E0020280A0000CA080000B20C0000E3
:10B53000B0B582B000AF7860404B1B78012B00D0D3
:10B5400077E03F4B1A683E4B1B681B6844331B680F
:10B550001000984703005A425341DBB2002B00D041
:10B5600067E0FDF729FA364B1D68354B1B681B68F1
:10B5700080331C68FEF7C8F9030019002800A047B3
:10B58000304B00229B5E304A11001800FDF796FFF9
:10B590002B4B18682A4B1B681B688C331B682A4A84
:10B5A000127811009847FEF7D7F90300012B21D13B
:10B5B000FEF7BEF9031E1DD1244B1B68002B19D1C9
:10B5C000234B1B68002B15D1224B1B78052B11D95F
:10B5D000204B1B78082B0DD8FFF7EEFB031E07D07E
:10B5E0001D4B1B78062B05D11C4B1B78432B01D11F
:10B5F000012300E00023002B02D0FFF775F918E0CB
:10B6000000200DF0E5F8FFF791F9FFF7D5FB031ED9
:10B6100009D0114B1B78062B03D1104B1B78432B01
:10B6200001D0012300E00023002B02D00020FEF710
:10B630004BF9642004F08EF87EE7C046361E0020E9
:10B6400044040020341E0020371E0020281E002045
:10B650002C1E0020141E00203A1E0020391E00203F
:10B6600080B584B000AF7860144B1B78012B20D1DB
:10B670000F23FB1800221A70114B1B78012B01D1EC
:10B68000012200E000220F23FB181A700C4B1B78DC
:10B69000052B01D9012200E000220E217B181A702F
:10B6A0000F23FB181A787B181B7811001800FEF77F
:10B6B000D9F9642004F04EF8D6E7C046361E0020C3
:10B6C000141E0020B0B500AFFFF776FB031E05D1B6
:10B6D000C84B1B78002B01D1012300E00023002B75
:10B6E0000DD0C54B1B78062B09D1C44B1B78432BBF
:10B6F00005D1C14B00221A70C04B00221A70C04BFA
:10B700001A68C04B1B68134304D1BA4B1B78012B3A
:10B7100000D0BEE2FFF750FB0300013B5A42534109
:10B72000DBB2002B00D0BBE2B44B1B78422B03D121
:10B73000B14B1B78052B07D0B04B1B78432B08D19E
:10B74000AD4B1B78082B04D100210020FFF794FAA1
:10B7500018E0AA4B1B78432B08D1A74B1B78012B71
:10B7600004D100210220FFF787FA0BE0A34B1B78DE
:10B77000452B07D1A04B1B78042B03D100210420BB
:10B78000FFF77AFA00F0BAFE9F4B1B78092B58D0CE
:10B790009D4B1B780A2B54D09A4B1B6801221340F7
:10B7A0000BD09A4B9A4A1A60944B50221A70924BC3
:10B7B00001221A70974B984A1A60924B1B6802221A
:10B7C00013400BD0914B954A1A608C4B50221A7043
:10B7D000894B02221A708F4B8F4A1A60894B1B6863
:10B7E000042213400BD0894B8D4A1A60834B5022A0
:10B7F0001A70814B03221A70864B874A1A60814B5C
:10B800001B68082213400BD0804B864A1A607B4B82
:10B8100050221A70784B05221A707E4B7E4A1A60AD
:10B82000784B1B68102213400BD0784B7D4A1A606E
:10B83000724B50221A70704B06221A70754B764A62
:10B840001A606F4B1A689023DB0113400ED06F4BC8
:10B85000754A1188198092789A70684B45221A703F
:10B86000654B05221A706B4B704A1A60644B1A685C
:10B8700080239B0213400BD0644B6D4A1A605F4BD0
:10B8800045221A705C4B01221A70624B694A1A6099
:10B890005B4B1A688023DB0213400BD05B4B644A7E
:10B8A0001A60564B45221A70534B02221A70594B9C
:10B8B000604A1A60524B1B682022134023D04E4B23
:10B8C0001B78002B13D04D4B1B78002B0FD04A4B0D
:10B8D0001B78092B03D0484B1B78032B03D1474B14
:10B8E0001B78432B03D001210220FFF7C5F9474BFA
:10B8F000514A1A60414B43221A703F4B01221A7081
:10B90000444B4C4A1A603E4B1B68402213400BD0FC
:10B910003E4B4A4A1A60394B42221A70364B01227A
:10B920001A703C4B3C4A1A60354B1A6880239B01C5
:10B9300013400BD0354B424A1A60304B43221A70E9
:10B940002D4B02221A70334B3A4A1A603D4B1B783A
:10B95000BFF35B8FDBB21A00012313405A425341FD
:10B96000DBB2002B12D0374B18000FF001FC0300A4
:10B970005A1E9341DBB2002B08D003F0E1FE020017
:10B98000314B1A602F4B18000FF0FFFB1C4B1B684C
:10B990008022134060D01A4B1B682C4A134063D19D
:10B9A0002B4B1B78002B07D103F0CAFE0200264B5D
:10B9B0001A60274B01221A70234B1B681B4A9C18E4
:10B9C00003F0BEFE03009C429B415B42DBB2002BB6
:10B9D0004AD00E4B1F4A1A60084B45221A70064B7C
:10B9E00004221A700B4B134A1A6001210420FFF73E
:10B9F00043F939E0371E00203A1E0020391E00208E
:10BA0000281E00202C1E0020141E00207C00002078
:10BA100050524500201E0020C0D401004343310095
:10BA200043433200435049007CB7010888130000AB
:10BA30004652510060EA000043555600424F5600FE
:10BA4000434F5600441E0020401E002058C91000DD
:10BA50003D1E002042444300944B00221A7003F024
:10BA60006FFE0200924B1A60924B1A688023DB0033
:10BA700013400BD0904B914A1A60914B43221A709D
:10BA8000904B03221A70904B904A1A60894B1A68A7
:10BA900080239B0013400BD0874B8D4A1A60884B44
:10BAA00043221A70874B04221A70874B874A1A6008
:10BAB000804B1B68012213400BD07F4B854A1A60D4
:10BAC0007F4B41221A707F4B04221A707E4B7F4AB3
:10BAD0001A60784B1B68804A13400BD0764B7F4A24
:10BAE0001A60774B42221A70764B02221A70764BFC
:10BAF0007B4A1A607B4B1B78012B0CD16E4B7A4A28
:10BB00001A606F4B43221A706E4B06221A706E4BEE
:10BB1000FA22D2001A60674B1B68042213400BD034
:10BB2000654B724A1A60664B43221A70654B0722B6
:10BB30001A70654B6A4A1A605E4B1B6802221340FA
:10BB40000FD05D4B6A4A1A605D4B43221A705D4B01
:10BB500008221A705C4B624A1A6001210020FFF72C
:10BB60008BF8544B1A6880239B0313400CD0524B24
:10BB7000604A1A60524B45221A70524B03221A70C7
:10BB8000514B962252001A604A4B1B6810221340F8
:10BB90000BD0494B584A1A60494B42221A70494B04
:10BBA00004221A70484B4E4A1A60424B1B68082206
:10BBB00013400FD0404B514A1A60414B42221A7039
:10BBC000404B05221A70404B454A1A600121002063
:10BBD000FFF752F8374B1A6880231B0313400BD032
:10BBE000354B474A1A60364B45221A70354B0622B0
:10BBF0001A70354B3A4A1A602E4B1A6880235B0341
:10BC000013400BD02C4B3F4A1A602D4B43221A7025
:10BC10002C4B09221A702C4B314A1A60254B1A689A
:10BC200080231B02134012D0374B1B780A2B0ED0F7
:10BC3000214B364A1188198092789A70204B452200
:10BC40001A70204B03221A701F4B314A1A601C4B8A
:10BC50001B78002B09D01B4B1B78002B05D0FDF760
:10BC600067FE031E01D1012300E00023002B19D041
:10BC70001C4B1B78012B02D00120FDF735FE104B29
:10BC80001878104B1978104B1B681A00FEF7C4FF88
:10BC900008E0094B1F4A1188198092789A7002E0D7
:10BCA000C04600E0C046BD46B0BDC0463D1E0020B7
:10BCB000401E0020281E00207C0000204155560018
:10BCC000391E00203A1E0020201E002060EA0000DD
:10BCD000414F56004153430000010100434F4300D0
:10BCE000C0D40100371E0020434454004355540083
:10BCF000434F54004947460042555400424F5400B8
:10BD00005245560053435400141E002080B70108CA
:10BD10008813000084B7010890B587B000AF786041
:10BD20000C23FB18180008231A0000210FF067FCF1
:10BD3000674B1B78012B00D086E0664B1B78002BED
:10BD40000FD0644B1B78012B0DD1634B1A68624BEB
:10BD50001B681B6858331B68100098470300FF2BB3
:10BD600001D1012300E00023002B01D0FFF7FAFAF4
:10BD700003F0E6FC0200594B1B6893429B415B4277
:10BD8000DBB2002B5AD00CF0ABFE0CF09BFE03F0A4
:10BD9000D7FC0300FA2292009A18504B1A60FFF762
:10BDA0000BF803005A425341DBB2002B46D0FDF79B
:10BDB000BFFD0300013B5A425341DBB2002B09D0C7
:10BDC00001210120FEF758FF012202216420FEF725
:10BDD0009FFE33E0404B1A683F4B1B681B6848339B
:10BDE0001B6817217C1810009847030023703C4BF8
:10BDF0001B78052B05D8002200210020FEF788FEC5
:10BE00001CE0374B1B78082B08D11723FB181B7835
:10BE1000012201211800FEF77BFE0FE016217B189E
:10BE200000221A707B1801221A707B181A781723C7
:10BE3000FB181B7800211800FEF76AFEFFF742FC92
:10BE4000FEF714FEFEF71EFD264B1B68642118004A
:10BE5000F9F75AFD0300DAB20C243B191A70224B91
:10BE60001B785AB23B199A70204B1B785AB23B1977
:10BE7000DA70FDF749FD03005AB23B195A701C4BAA
:10BE80001B6864211800F9F73FFD03009AB23B19C3
:10BE90009A80114B1A68104B1B681B682C331B6867
:10BEA00010009847030064211800F9F72DFD0300E6
:10BEB0009AB23B19DA803B190E4808221900FFF7A5
:10BEC0002BF9FA235B00180003F044FC28E7C04676
:10BED000361E00203B1E002044040020481E002087
:10BEE000141E0020181E00203A1E0020391E0020BB
:10BEF0001C1E0020FF01000090B587B000AF7860E5
:10BF00000CF05EFC0CF094FF2B4B1B781800FCF738
:10BF10008FFCFDF72BFDFEF76BFD284B01221A70FD
:10BF2000274B1B68002B15D0254B1A68244B1B6828
:10BF30001B6804331B6810009847214B1A68204B7C
:10BF40001B681B6814331B681000984703001A0015
:10BF50001C4B1A700DF018FA02001B4B1A600DF002
:10BF60001DFA0200194B1A600DF022FA03001A00A4
:10BF7000174B1A60164B1B68164A93423CDD144B54
:10BF80001B68154A934237DD114B1B68134A9342D5
:10BF900006DC0F4B1B68124A9A180D4B1A602BE0F7
:10BFA0000B4B1B680F4A934220DC094B1B680E4A5F
:10BFB0009A18074B1A601FE03C1E0020361E002016
:10BFC00044040020141E0020181E00201C1E002007
:10BFD000301E0020905F01001FBF02009FF703008A
:10BFE000581B0000CF6C040070170000ED4B1B685D
:10BFF000ED4A9A18EB4B1A60EC4B1A68EB4B1B6836
:10C000001B6824331B681000984703001800FDF7D5
:10C01000C7FBE74B1B681800FDF7DEFBE54B1B6811
:10C020001800FDF7E7FBDF4B1B681800FDF7F0FB7E
:10C03000E14B1B781800FDF7F9FBE04B1B689BB246
:10C040001800FDF703FCD94B1A68D84B1B681B6816
:10C050004C331B681000984703001800FDF706FCDE
:10C06000D24B1A68D14B1B681B6830331B68100019
:10C0700098470300DBB21800FDF708FCCB4B1A68A9
:10C08000CA4B1B681B682C331B68100098470300C1
:10C090007B617B691800FDF791FBC44B1A68C34BA9
:10C0A0001B681B683C331B6810009847030018008E
:10C0B000FDF7FCFB7B691800FEF7ACFA0C243B197A
:10C0C000180008231A0000210FF099FA0DF084F9E6
:10C0D00003009BB20A3B9BB21AB23B191A800DF0C7
:10C0E00071F903009BB20A3B9BB21AB23B195A800A
:10C0F0000DF07CF903009BB2283B9BB21AB23B19AE
:10C100009A800DF07DF903001A003B19DA803B1983
:10C11000042118000DF0F4F803001A00A84B1A804F
:10C12000A24B1868A14B1B681B6884331B68A44A88
:10C130000021525E11009847A14B00229B5E18001F
:10C14000FEF766FB994B1A68984B1B681B685833BF
:10C150001B681000984703001800FEF783FB944B00
:10C160001B681800FEF746FB924B1B681800FEF791
:10C1700033FB8C4B1B681800FEF758FB8B4B1A687F
:10C180008A4B1B681B6850331B68100098470300DC
:10C190001800FEF723FA854B1A68844B1B681B684E
:10C1A00024331B681000984703001800FEF724FA98
:10C1B000FDF7C8FB03001800FEF7FEFAFEF704FCCB
:10C1C00003001800FEF7E8FA784B1868774B1B68F5
:10C1D0001B6874331A68764B1B6819009047734BC1
:10C1E0001868724B1B681B6878331A68714B1B68A0
:10C1F000190090476D4B1A686C4B1B681B685433D1
:10C200001B681000984703001800FEF71FFA674BE1
:10C210001A68664B1B681B685C331B6810009847E4
:10C2200003001800FEF762FA604B1A685F4B1B6848
:10C230001B6860331B681000984703001800FEF766
:10C2400045FA5A4B1A68594B1B681B6864331B68C4
:10C250001000984703001800FEF728FA534B1A689D
:10C26000524B1B681B6868331B681000984703001B
:10C270001800FEF70BFA4D4B1A684C4B1B681B68F5
:10C280006C331B681000984703001800FEF7EEF9A6
:10C29000FEF790F902004B4B1A604B4B1B780A2BB0
:10C2A0000ED1424B1A68414B1B681B6834331B6824
:10C2B000100098470200434B1B681A43414B1A6019
:10C2C0003A4B1868394B1B681B6888331A683D4B1A
:10C2D0001B6819009047FDF721FB02003B4B1A60D9
:10C2E000324B1A68314B1B681B6838331B681000CF
:10C2F00098470200354B1B681A43344B1A60344B85
:10C300001B78012B0ED1294B1A68284B1B681B6820
:10C3100034331B681000984702002A4B1B681A43ED
:10C32000284B1A60284B1B78012B58D11F4B1868DB
:10C330001E4B1B681B687C331A68224B1B6801214B
:10C340000B4047D11F4B196880239B000B4041D104
:10C350001C4B19688023DB000B403BD1194B19683B
:10C3600080231B030B4035D1164B196880235B03D8
:10C370000B402FD1134B1B6802210B402AD1114BCC
:10C38000196880239B010B4024D10E4B1968802330
:10C39000DB020B401ED10B4B196880239B020B4024
:10C3A0001AD017E0301E002070170000440400204F
:10C3B0001C1E0020181E0020381E0020241E0020F5
:10C3C000341E0020281E0020141E00202C1E0020D9
:10C3D0003B1E0020012300E0002319009047642049
:10C3E00003F0B8F99CE5C04680B500AF094B1B7857
:10C3F000012B0CD1084B1B68002B08D0064B1A6888
:10C40000054B1B681B6810331B6810009847C0461B
:10C41000BD4680BD361E00204404002080B584B097
:10C4200004AF80235A0007490748084B0293084B82
:10C4300001930123009300230DF0C5FCC046BD46C7
:10C4400080BDC04688B7010861B60008001D002005
:10C450004810002080B584B004AF80235A000749FB
:10C460000748084B0293084B0193012300930023D4
:10C470000DF0A9FCC046BD4680BDC046A0B701086E
:10C4800019BD00085C1D00204814002080B584B050
:10C4900004AF80235A0007490748084B0293084B12
:10C4A00001930123009300230DF08DFCC046BD468F
:10C4B00080BDC046B8B7010831B50008B81D0020DE
:10C4C0004818002080B584B004AF80239A00074943
:10C4D0000748084B0293084B019301230093002364
:10C4E0000DF071FCC046BD4680BDC046D4B7010802
:10C4F000F9BE0008A41C00204808002080B500AF49
:10C500001F4B1B68DB00DA0880235B059A4233D19E
:10C510001C4B00221A701C4B00221A70184B002270
:10C520001A600020FEF784F8184B1A68174B1B6836
:10C530001B6870331B6800211000984700F02AF830
:10C540000300013B5A425341DBB2002B14D00020C0
:10C55000FDF7CAF9FDF710F90120FDF7B5F90B4B0E
:10C560001A680A4B1B681B681B6810009847084B29
:10C570001B781800FCF75CF9C046BD4680BDC0467C
:10C58000281E00203A1E0020391E002044040020EE
:10C590003C1E002080B500AF044B1B78052B01D852
:10C5A000002300E001231800BD4680BD141E0020BA
:10C5B00080B500AF234B1B78012B03D0FEF70EFA9A
:10C5C000031E01D1012300E00023002B30D01E4BBD
:10C5D0001B78002B04D103F0B3F802001B4B1A6048
:10C5E000194B1B780133DAB2174B1A7003F0A8F815
:10C5F0000200164B1B68D21AFA239B009A429B41F9
:10C600005B42DBB2002B0CD00F4B1B78032B15D1F8
:10C610000E4B1B68002B11D000200CF0A0FBFEF786
:10C62000D5FB094B00221A70084B00221A6005E066
:10C63000054B00221A70054B00221A60C046BD4609
:10C6400080BDC046141E00204C1E0020501E00203D
:10C6500080B582B000AF786039607B68012B07D16C
:10C660003B680B4A934203D10A4B1800FEF7F4FBD8
:10C670007B68002B07D13B68054A934203D1054BE9
:10C680001800FEF7DBFCC046BD4602B080BDC046C8
:10C69000FFFF0000E802002080B500AF034B190047
:10C6A0000120FFF7D5FFBD4680BDC046FFFF00005B
:10C6B00080B500AF034B19000020FFF7C9FFBD464E
:10C6C00080BDC046FFFF000080B584B000AF3B1DB9
:10C6D00018000C231A0000210EF091FF534B544A0E
:10C6E0001A60524B8022D2055A60504B00229A6049
:10C6F0004E4B0022DA604D4B802212061A614B4BE2
:10C7000008225A61494B00221A76484B00225A7679
:10C71000464B00229A76454B0122DA61434B202298
:10C7200000219954414B8022D2005A623F4B802213
:10C73000D2009A623D4B2C22012199543B4B00229E
:10C740001A633A4B07225A63384B3C220021995412
:10C75000364B0022DA64354B180003F0A5F9031EAE
:10C7600001D000F0F9FB3B1D01221A603B1D0122A4
:10C770005A603A1D2D4B1100180003F075FE031E80
:10C7800001D000F0E9FB3B1D2A4A1A603A1D274BF5
:10C790001100180003F068FE031E01D000F0DCFB5E
:10C7A0003B1D254A1A603A1D204B1100180003F06A
:10C7B0005BFE031E01D000F0CFFB3B1D1F4A1A6039
:10C7C0003A1D1A4B1100180003F04EFE031E01D053
:10C7D00000F0C2FB3B1D1A4A1A603A1D134B1100B0
:10C7E000180003F041FE031E01D000F0B5FB3B1D15
:10C7F000144A1A603A1D0D4B1100180003F034FE64
:10C80000031E01D000F0A8FB3B1D0F4A1A603A1D21
:10C81000064B1100180003F027FE031E01D000F0A4
:10C820009BFBC046BD4604B080BDC046541E0020E0
:10C830000024014002000004040000080800000C6D
:10C8400010000010000200240080003C90B58BB066
:10C8500000AF786014243B19180014231A0000213B
:10C860000EF0CDFE7B681B683B4A93426FD13B4B79
:10C870001A6C3A4B802149030A431A64374B1A6CED
:10C8800080235B0313403B613B69344B5A6B334B52
:10C8900001210A435A63314B5B6B01221340FB6059
:10C8A000FB682E4B5A6B2D4B02210A435A632B4BCC
:10C8B0005B6B02221340BB60BB683B191F221A60EE
:10C8C0003B1903225A603B1900229A603A19A023AF
:10C8D000DB051100180006F081FA3B19204A1A60A6
:10C8E0003B1903225A603B1900229A603B191D4AEA
:10C8F0001900100006F072FA1B4B1C4A1A601A4B02
:10C9000005225A60184B00229A60174B0022DA6009
:10C91000154B80221A61144B802252005A61124B2F
:10C920008022D2009A61104B2022DA610E4B002245
:10C930001A620D4B180004F025FC031E01D000F014
:10C940000BFB7B68084A1A65074B7A689A62C046F7
:10C95000BD460BB090BDC04600240140001002400F
:10C960000208000000040050B81E00200800024029
:10C9700080B584B000AFF860B9607A60FB68064AA1
:10C980001A60BB68054A1A607B6880221A60C0463C
:10C99000BD4604B080BDC046181F0020741F002093
:10C9A00080B584B000AFF860B9607A60FB68064A71
:10C9B0001A60BB68054A1A607B68802252001A60C0
:10C9C000C046BD4604B080BD74210020D0210020A7
:10C9D00080B582B000AF104B9A6B0F4B01210A4318
:10C9E0009A630D4B9B6B012213407B607B68002296
:10C9F0000321092004F08AFB092004F0A7FB002290
:10CA000003210A2004F082FB0A2004F09FFBC046A9
:10CA1000BD4602B080BDC0460010024080B500AFE8
:10CA2000204B214A1A601F4B00225A601D4B0022E6
:10CA30009A601C4B0022DA601A4B00221A74194BC0
:10CA400000225A74174B00229A74164B03225A6123
:10CA5000144B01229A61134B0D22DA61114B022211
:10CA60001A62104B01225A620E4B03229A620D4B3E
:10CA70000422DA620B4B03221A630A4B01225A6327
:10CA8000084B01229A63074B0022DA63054B18001A
:10CA900004F00EFF031E01D000F05EFAC046BD4652
:10CAA00080BDC046D02500200064004090B59DB0F8
:10CAB00000AF78605C23FB18180014231A000021D3
:10CAC0000EF09DFD10243B1918004C231A00002184
:10CAD0000EF095FD7B681B682B4A934250D13B19A1
:10CAE000802292041A603B19802292009A643B19BA
:10CAF000180007F0E5FC031E01D000F02DFA234BCF
:10CB0000DA6B224B802149010A43DA631F4BDA6B4F
:10CB100080235B011340FB60FB681C4B5A6B1B4B73
:10CB200002210A435A63194B5B6B02221340BB601C
:10CB3000BB685C217B18C02292001A607B1802221D
:10CB40005A607B1800229A607B180022DA607B18FA
:10CB500003221A617B180E4A1900100006F03EF9F4
:10CB600000220321152004F0D1FA152004F0EEFA7A
:10CB700000220321162004F0C9FA162004F0E6FA78
:10CB8000C046BD461DB090BD00640040001002408C
:10CB90000004005090B58BB000AF14243B1918006E
:10CBA00014231A0000210EF02AFDA54B5A6BA44B4A
:10CBB00004210A435A63A24B5B6B042213403B617E
:10CBC0003B699F4B5A6B9E4B20210A435A639C4BF7
:10CBD0005B6B20221340FB60FB68994B5A6B984BB0
:10CBE00001210A435A63964B5B6B01221340BB60E1
:10CBF000BB68934B5A6B924B02210A435A63904B8A
:10CC00005B6B022213407B607B688D4B5A6B8C4BB5
:10CC100008210A435A638A4B5B6B082213403B602E
:10CC20003B688849884B0022180006F041FB8023AE
:10CC30005900A023DB050122180006F039FB8023F0
:10CC40009900A023DB050022180006F031FB7F4B82
:10CC500000220C21180006F02BFB7D4B01228021C5
:10CC6000180006F025FB3B19764A1A603B19012291
:10CC70005A603B1900229A603B190022DA603B1986
:10CC8000714A1900100006F0A9F821007B188022D3
:10CC900012021A600C003B1900225A603B19002254
:10CCA0009A603B19684A1900100006F097F83B1982
:10CCB000684A1A603B1900225A603B1900229A60A8
:10CCC0003A19A023DB051100180006F087F83B197C
:10CCD00005221A603B1902225A603B1900229A6011
:10CCE0003B190022DA603B1904221A613B19584AA9
:10CCF0001900100006F072F821007B188022520102
:10CD00001A607B18882252035A607B1800229A60AE
:10CD10000C007B184E4A1900100006F05FF8210045
:10CD20007B18E02212021A600C003B1900225A60A4
:10CD30003B1900229A603B19454A1900100006F081
:10CD40004DF821007B18802252001A600C003B191C
:10CD500001225A603B1901229A603B190022DA60D5
:10CD60003A19A023DB051100180006F037F821005E
:10CD70007B18802292001A600C003B1901225A6035
:10CD80003B1900229A603B190022DA603A19A0236D
:10CD9000DB051100180006F021F821007B180122A4
:10CDA0001A607B18882252035A600C003B1900223B
:10CDB0009A603B19254A1900100006F00FF83B193C
:10CDC0000C221A603B1901225A603B1900229A601A
:10CDD0003B190022DA603B191C4A1900100005F0CB
:10CDE000FDFF21007B1880221A607B1801225A6007
:10CDF0007B1801229A607B180022DA607B18144AA3
:10CE00001900100005F0EAFF134B1A68124B80213D
:10CE100089020A431A6000220321052004F076F9F2
:10CE2000052004F093F900220321072004F06EF995
:10CE3000072004F08BF9C046BD460BB090BDC0463C
:10CE4000001002404060000000080050000C00503C
:10CE500000040050408000000000014080B500AF99
:10CE60000B4B0C4A1A600A4B05225A60084B0A4ABF
:10CE7000DA60074B084A9A60054B180006F0BAFAC8
:10CE8000031E01D000F068F8C046BD4680BDC04614
:10CE90003426002000300040C309000090B595B052
:10CEA00000AF14243B1918003C231A0000210EF097
:10CEB000A6FB3B1D180010231A0000210EF09FFB5B
:10CEC00080239B00180006F03BFB3B1909221A60E7
:10CED0003B19802252025A603B1901229A613B1988
:10CEE00000221A623B19180006F08AFB031E01D0CB
:10CEF00000F032F83B1D07221A603B1D01225A60E8
:10CF00003B1D00229A603B1D0022DA603B1D002180
:10CF1000180007F047F8031E01D000F01DF8C046C6
:10CF2000BD4615B090BD000080B582B000AF7860FE
:10CF30007B681B68064A934205D102F0EFFB054B64
:10CF4000180006F0EDFAC046BD4602B080BDC046EE
:10CF5000001000403426002080B500AF72B6C046F5
:10CF6000FEE780B582B000AF78603960C046BD464C
:10CF700002B080BD80B582B000AF154B1A6C144B67
:10CF800001210A431A64124B1B6C012213407B607F
:10CF90007B680F4BDA6B0E4B802149050A43DA633D
:10CFA0000B4BDA6B80235B0513403B603B6802232D
:10CFB0005B4200220321180004F0A8F8C023DB0024
:10CFC000180002F0EBFBC046BD4602B080BDC04673
:10CFD00000100240B0B58CB000AF78602B23FB1876
:10CFE00000221A70374BDA6B364B10210A43DA6392
:10CFF000344BDB6B10221340BB60BB680C23FA1868
:10D0000010243B191100180007F018FA3B19DB68CF
:10D010007B627B6A002B04D107F0FAF90300FB6204
:10D0200004E007F0F5F903005B00FB62FB6A2649A8
:10D030001800F8F769FC0300013B3B62234B244ACC
:10D040001A60224B234ADA60204B3A6A5A601F4B1F
:10D0500000221A611D4B00229A601C4B00229A612B
:10D060002B257C19194B180007F08CFE0300237048
:10D070007B191B78002B1ED17C19144B180007F06C
:10D0800091FF030023707B191B78002B13D1112013
:10D0900004F05CF87B68032B09D87B680022190038
:10D0A000112004F033F80C4B7A681A6003E02B234C
:10D0B000FB1801221A702B23FB181B781800BD46A1
:10D0C0000CB0B0BD0010024040420F0044260020CA
:10D0D00000100040E70300009400002080B500AF7E
:10D0E000FEE780B500AFFEE780B500AF012006F097
:10D0F0004DF9C046BD4680BD80B500AF80235B01C1
:10D10000180006F043F9C046BD4680BD80B500AFAB
:10D11000034B180004F05EFAC046BD4680BDC04611
:10D12000B81E002080B500AF034B180004F052FA7F
:10D13000C046BD4680BDC046C027002080B500AFB8
:10D14000034B180008F048FEC046BD4680BDC046EF
:10D150009026002080B500AF034B180008F03CFE7D
:10D16000C046BD4680BDC0462827002080B500AF20
:10D17000044B180008F030FEFFF736F9C046BD46F4
:10D1800080BDC0464426002080B500AF034B180088
:10D1900005F0A0FBC046BD4680BDC046D02500209E
:10D1A00080B500AF01231800BD4680BD80B582B0B8
:10D1B00000AF786039600EF0EFF9030016221A60B4
:10D1C00001235B421800BD4602B080BD80B582B02D
:10D1D00000AF786001235A427B6811001800FFF706
:10D1E000E5FFFEE780B500AF024B034A9A60C046F8
:10D1F000BD4680BD00ED00E00058000880B588B055
:10D2000000AF1023FB18180010231A0000210EF0A5
:10D21000F6F93B1D18000C231A0000210EF0EFF95F
:10D22000214B224A1A60204B17225A601E4B0022C3
:10D230009A601D4B1E4ADA601B4B00221A611A4B82
:10D2400000225A61184B00229A61174B180007F010
:10D2500099FD031E01D0FFF77FFE10217B1880226D
:10D2600052011A607A18104B1100180009F09AFA4E
:10D27000031E01D0FFF770FE3B1D00221A603B1D0C
:10D28000802292035A603B1D00229A603A1D064B91
:10D29000110018000AF0FEFC031E01D0FFF75CFE2F
:10D2A000C046BD4608B080BD90260020002C01403D
:10D2B000CF07000080B58AB000AF1C23FB18180010
:10D2C0000C231A0000210EF09AF93B0018001C23D1
:10D2D0001A0000210EF093F9294B8022D2051A6022
:10D2E000274B01225A60264B00229A60244B254A84
:10D2F000DA60234B00221A61214B00229A61204BF5
:10D30000180007F0F9FE031E01D0FFF725FE1C21CF
:10D310007B1800221A607B1800229A607A18184B3A
:10D32000110018000AF0B6FC031E01D0FFF714FE2E
:10D330003B0060221A603B0000225A603B00002242
:10D340009A603B0000221A6139000D4B0022180040
:10D3500009F002F8031E01D0FFF7FEFD3900084B6B
:10D360000822180008F0F8FF031E01D0FFF7F4FDB3
:10D37000034B180000F0F4F9C046BD460AB080BD6A
:10D38000DC260020E703000080B58CB000AF20232E
:10D39000FB18180010231A0000210EF030F9142396
:10D3A000FB1818000C231A0000210EF028F93B1D71
:10D3B000180010231A0000210EF021F92D4B2E4ADF
:10D3C0001A602C4B2D4A5A602A4B00229A60294B36
:10D3D0002B4ADA60274B00221A61264B00229A6101
:10D3E000244B180007F0CEFC031E01D0FFF7B4FD5C
:10D3F00020217B18802252011A607A181D4B1100DF
:10D40000180009F0CFF9031E01D0FFF7A5FD194B55
:10D41000180008F003FA031E01D0FFF79DFD142148
:10D420007B1800221A607B1800229A607A18114B30
:10D43000110018000AF02EFC031E01D0FFF78CFD2E
:10D440003B1D00221A603B1D01225A603B1D002239
:10D450009A603B1D0C22DA60391D064B042218002D
:10D4600008F0ECFD031E01D0FFF776FDC046BD4677
:10D470000CB080BD2827002000040040BF5D0000E4
:10D48000FFFF000080B594B000AF3423FB181800F4
:10D490001C231A0000210EF0B2F83B0018003423C0
:10D4A0001A0000210EF0ABF8374B384A1A60364BA1
:10D4B00017225A60344B00229A60334BF922DA600B
:10D4C000314B00221A61304B00225A612E4B002250
:10D4D0009A612D4B180007F055FC031E01D0FFF791
:10D4E0003BFD294B180007F007FE031E01D0FFF794
:10D4F00033FD34217B1860221A607B1800225A60A9
:10D500007B1800229A607B180022DA607B180022C8
:10D510001A617B1800225A617B1800229A617918DF
:10D52000194B0022180008F017FF031E01D0FFF767
:10D5300013FD3B0000221A603B0000225A603B00B2
:10D5400000229A603B000022DA603B0000221A6150
:10D550003B00802292015A613B0000229A613B000D
:10D5600000221A633A00084B110018000AF0E0FC90
:10D57000031E01D0FFF7F0FC034B180000F0F0F899
:10D58000C046BD4614B080BD74270020004801404D
:10D5900090B59FB000AF78606423FB181800142387
:10D5A0001A0000210EF02BF818243B1918004C2308
:10D5B0001A0000210EF023F87B681B68534A93423F
:10D5C00025D13B19802292031A603B1900229A63ED
:10D5D0003B19180006F074FF031E01D0FFF7BCFCD6
:10D5E0004B4B1A6C4A4B802109010A431A64484B81
:10D5F0001A6C80231B0113407B617B69002203218D
:10D600000D2003F083FD0D2003F0A0FD79E07B6881
:10D610001B68404A934236D13D4BDA6B3C4B0221AA
:10D620000A43DA633A4BDB6B022213403B613B69EE
:10D63000374B5A6B364B04210A435A63344B5B6BAE
:10D6400004221340FB60FB6864217B1880221A606F
:10D650007B1802225A607B1800229A607B180022F5
:10D66000DA607B1801221A617B182B4A190010001E
:10D6700005F0B4FB00220321102003F047FD102029
:10D6800003F064FD3DE07B681B68244A934238D177
:10D690001F4B1A6C1E4B8021C9020A431A641C4B93
:10D6A0001A6C8023DB021340BB60BB681C4B1D4A15
:10D6B0001A601B4B2F225A60194B00229A60184B9C
:10D6C0000022DA60164B80221A61154B802252002C
:10D6D0005A61134B8022D2009A61114B0022DA6109
:10D6E0000F4B00221A620E4B180003F04BFD031E75
:10D6F00001D0FFF731FC7B68094A5A62084B7A680F
:10D700009A62C046BD461FB090BDC046002C014085
:10D710000010024000040040000800500048014092
:10D72000C02700201C00024080B584B000AF7860A4
:10D730007B681A688023DB059A420BD1074BDA6BB2
:10D74000064B01210A43DA63044BDB6B01221340D1
:10D75000FB60FB68C046BD4604B080BD00100240BF
:10D7600090B58BB000AF786014243B1918001423D7
:10D770001A0000210DF043FF7B681A688023DB0547
:10D780009A4245D1384B5A6B374B01210A435A63B1
:10D79000354B5B6B012213403B613B69324B5A6B4B
:10D7A000314B02210A435A632F4B5B6B0222134019
:10D7B000FB60FB683B1920221A603B1902225A6069
:10D7C0003B1900229A603B190022DA603B190222C1
:10D7D0001A613A19A023DB051100180005F0FEFAC2
:10D7E00021007B188022D2001A607B1802225A6026
:10D7F0007B1800229A607B180022DA607B180222D4
:10D800001A617B18194A1900100005F0E7FA26E0A2
:10D810007B681B68164A934221D1134B5A6B124BFB
:10D8200008210A435A63104B5B6B08221340BB600C
:10D83000BB6814217B1802221A607B1802225A60EE
:10D840007B1800229A607B180022DA607B18022283
:10D850001A617B18074A1900100005F0BFFAC0468C
:10D86000BD460BB090BDC046001002400004005001
:10D8700000480140000C00500D488546FFF7B2FCFF
:10D880000C480D490D4A002302E0D458C45004331B
:10D89000C4188C42F9D30A4A0A4C002301E01360F1
:10D8A0000432A242FBD30DF07DFEFDF7FFFCFEE744
:10D8B000004002200000002030010020F0BE0108DE
:10D8C0003001002000300020FEE7000082B090B55B
:10D8D00089B000AF78600800302439190A604B60C5
:10D8E000FB1C021C1A70FA23DB00FB604423FB18AC
:10D8F0001B78002B23D11C23FB188F4A1A801F236F
:10D90000FB1803221A701623FB18FA22D2001A8081
:10D91000FB1C1B789AB23B195B6899B21423FB1865
:10D920004A431A80FB1C1A783B199B6853433B619E
:10D93000FB1C1A783B191B685343BB612AE01C236C
:10D94000FB18FA2252011A801F23FB1801221A70B9
:10D950001623FB18794A1A801423FB18784A1A8078
:10D96000784B3B61784B00221A70784B01221A7079
:10D97000774B00221A704423FB181B78012B05D12A
:10D98000FA235B00FB60734BBB6103E03023FB18A1
:10D990001B68BB61704B1B78002B07D16E4B0122BB
:10D9A0001A700BF03DFA02006C4B1A601423FB183E
:10D9B0001B88FA6B9A4201D2012200E000220B215F
:10D9C0007B181A707B181B78002B3CD0FDF706F8EB
:10D9D0000300013B5A425341DBB2002B19D0604B8C
:10D9E0001B68BA699A4208D91623FB181A885C4B3F
:10D9F0001B68D2185A4B1A6002E0594BBA691A6078
:10DA0000FB6818000AF0E4FE554B1B6818000AF08A
:10DA1000FDFE3B6CFA6B3969786800F0A7F80300EB
:10DA20005A425341DBB2002B03D04E4B01221A70F5
:10DA300042E04C4B00221A70474B00221A70434BB5
:10DA400002221A7038E0474B1B78002B06D1424B5C
:10DA500000221A703D4B02221A702DE0FCF7BEFF27
:10DA60000300013B5A425341DBB2002B19D03C4B1F
:10DA70001B68BA699A4208D91623FB181A88384BD2
:10DA80001B68D218364B1A6002E0354BBA691A602F
:10DA9000FB6818000AF09CFE314B1B6818000AF066
:10DAA000B5FE3A6C9623DB009A4205D92A4B002238
:10DAB0001A70264B02221A701C23FB181A88274B57
:10DAC0001B68D4180BF0ACF903009C429B415B42ED
:10DAD000DBB2002B20D0204B00221A70FCF75EFF37
:10DAE0001F4B214A1A600BF09BF902001B4B1A6076
:10DAF000174B1B780133DAB2154B1A70144B1B7895
:10DB00001F22BA1812789A420CD10F4B01221A70B8
:10DB10000E4B03221A7005E00B4B1B78002B01D132
:10DB2000FCF71AFF094B1B781800BD4609B090BCE2
:10DB300008BC02B01847C046983A0000C40900006B
:10DB4000204E0000A8610000202800208400002052
:10DB50002D28002020CB00002E280020282800207F
:10DB6000242800202C2800201027000080B584B035
:10DB700000AFF860B9607A603B600BF051F90300C8
:10DB8000FA22D2009A18134B1A60FCF71DFF03000B
:10DB9000013B5A425341DBB2002B16D03A68962320
:10DBA000DB009A420CD90BF03BF90200094B1B68D1
:10DBB0009A4205D37A68BB689A4201D9012300E0F2
:10DBC0000023002B01D0012300E000231800BD46F4
:10DBD00004B080BD3028002080B582B000AF7860EE
:10DBE0000AF0DEFFC046BD4602B080BD80B582B0FF
:10DBF00000AF78600AF0E2FFC046BD4602B080BDCB
:10DC000080B582B000AF7860C046BD4602B080BD2E
:10DC100080B582B000AF78607B6873229B5C18008F
:10DC2000BD4602B080BD80B582B000AF78607A6832
:10DC300098235B00D3581800BD4602B080BD80B564
:10DC400082B000AF78607A688A235B00D3581800EE
:10DC5000BD4602B080BD80B582B000AF78607A6802
:10DC60008E235B00D3581800BD4602B080BD80B53E
:10DC700082B000AF78607A6890235B00D3581800B8
:10DC8000BD4602B080BD80B582B000AF78607A68D2
:10DC90008C235B00D3581800BD4602B080BD80B510
:10DCA00082B000AF78607A6896235B00D358FA227E
:10DCB00091001800F7F728FE03001800BD4602B0D7
:10DCC00080BD80B582B000AF78607A6882235B0047
:10DCD000D3581800BD4602B080BD80B582B000AFF9
:10DCE00078607B68EC229B581800BD4602B080BD6E
:10DCF00080B582B000AF78607B68E8229B5818003E
:10DD0000BD4602B080BD80B582B000AF78607A6851
:10DD10009F235B00D35C1800BD4602B080BD80B578
:10DD200082B000AF78600E231800BD4602B080BDFF
:10DD300080B582B000AF78607A683E23FF33D35C51
:10DD40001800BD4602B080BD80B582B000AF7860DB
:10DD50007A684823FF33D35C1800BD4602B080BD0B
:10DD600080B582B000AF78607A68A3235B00D35C93
:10DD70001800BD4602B080BD80B582B000AF7860AB
:10DD80007A689C235B00D35C1800BD4602B080BD5E
:10DD900080B582B000AF78607A683A23FF33D35CF5
:10DDA0001800BD4602B080BD80B582B000AF78607B
:10DDB0007A689D235B00D35C1800BD4602B080BD2D
:10DDC00080B582B000AF78607A683C23FF33D35CC3
:10DDD0001800BD4602B080BD80B582B000AF78604B
:10DDE0007A689E235B00D35C1800BD4602B080BDFC
:10DDF00080B582B000AF786039607A6892235B00AA
:10DE00003968D150C046BD4602B080BD80B582B0F1
:10DE100000AF786039607A6894235B003968D1502C
:10DE2000C046BD4602B080BD80B582B000AF78600C
:10DE300039607A6896235B003968D150C046BD4688
:10DE400002B080BD80B582B000AF786039607A687A
:10DE50008C235B003968D150C046BD4602B080BDFE
:10DE600080B582B000AF786039607A6882235B0049
:10DE70003968D150C046BD4602B080BD80B582B081
:10DE800000AF78600A00FB1C1A707A68F91CA023A6
:10DE90005B000978D154C046BD4602B080BD80B554
:10DEA00082B000AF786039607A6886235B00396899
:10DEB000D150C046BD4602B080BD80B582B000AF33
:10DEC00078600A00FB1C1A707B68FA1C74211278B7
:10DED0005A54C046BD4602B080BD80B582B000AF86
:10DEE000786039607A6884235B003968D150C04615
:10DEF000BD4602B080BD80B582B000AF78600A0038
:10DF0000FB1C1A707A68F91C4623FF330978D15438
:10DF1000C046BD4602B080BD80B582B000AF78601B
:10DF20000A00FB1C1A707B68FA1C732112785A5481
:10DF3000C046BD4602B080BD80B584B000AFF86079
:10DF40003800016042608360FB688E2239009B18B4
:10DF50000C2218000DF04AFBC046BD4604B080BD3F
:10DF600080B582B000AF7860244B1B78002B3DD188
:10DF7000FDF776F87A688E235B002149D1507A68E4
:10DF800090235B001F49D1507B688C22012199545A
:10DF90007B688D22002199547B688A220221995442
:10DFA0007B688B22032199547B6888220221995433
:10DFB0007B688922032199547B6886220121995428
:10DFC0007B688722002199547B687E330E490822A2
:10DFD00018000DF00BFB7B6876330C490822180003
:10DFE0000DF004FB7B68E822094999507B68180012
:10DFF00000F010F8C046BD4602B080BD342A0020B3
:10E00000A8610000C0DA0000E0B70108ECB7010821
:10E01000B80B000080B582B000AF78607B687322D7
:10E020000121995401F08CFB02007B68F8215A50C1
:10E030007B68EC22002199507A689C235B000021C8
:10E04000D1547A683A23FF330021D1547A689D2352
:10E050005B000021D1547A683C23FF330021D15466
:10E060007A689E235B000021D1547A68A0235B006C
:10E070000021D1547A684223FF330121D1547A68B8
:10E08000A1235B000021D1547A684423FF3300218F
:10E09000D1547A68A2235B000021D1547A684623C8
:10E0A000FF330021D1547A6888235B000021D150CE
:10E0B0007A684023FF330021D1547A688A235B00B9
:10E0C0000021D1507A688C235B005149D1507A6885
:10E0D000A3235B000021D1547A683E23FF33002143
:10E0E000D1547A6892235B000021D1507A6894233E
:10E0F0005B000021D1507A6896235B000021D1504B
:10E100007A6898235B000021D1507A689A235B00DB
:10E110000021D1507A689F235B000021D1547B6895
:10E12000F022002199507B68F422002199507B68ED
:10E13000F822002199507B68FC22002199507A68CE
:10E1400080235B000021D1507A6882235B0000218C
:10E15000D1507A6884235B000021D1507A688623ED
:10E160005B000021D1507A68A4235B000021D154C8
:10E170007A684A23FF330021D1547A68AC235B00CC
:10E180000021D1547A68AA235B000021D1507A681B
:10E19000A6235B000021D1507A68A8235B000021F0
:10E1A000D1501C4B00221A601B4B00221A601B4BE3
:10E1B00000221A607B689222995A00200140081CB4
:10E1C0001749014399529B185A8800210A405A80E6
:10E1D0007B689622995A00200140081C114901438E
:10E1E00099529B185A8800210A405A807B688E22D7
:10E1F000995A00200140081C0B49014399529B1871
:10E200005A8800210A405A80C046BD4602B080BDEF
:10E21000ECD60000382A00203C2A0020402A0020AA
:10E22000290B0000B80B0000820E000090B583B0EF
:10E2300000AF786039607B6818001A231A0000214B
:10E240000DF0DDF97B689A7A00210A40111C6422E6
:10E250000A439A72DA7A00210A40DA723A68902305
:10E260005B00D3580E211800F7F74EFB03009AB25B
:10E270007B68FF2111400C00197800200140081C28
:10E28000211C01431970120A90B25A7800210A40E9
:10E29000111C021C0A435A707B689A7800210A40BC
:10E2A000111C5A220A439A70DA7800210A40111C84
:10E2B0000A220A43DA703A688E235B00D2587B68E0
:10E2C000FF2111400C00197900200140081C211C7D
:10E2D00001431971110AFF2001400C0059790020F7
:10E2E0000140081C211C01435971110CFF20014001
:10E2F0000C00997900200140081C211C01439971F0
:10E30000100EDA7900210A40111C021C0A43DA714E
:10E310007B681A7A00210A40111C10220A431A72E3
:10E320005A7A00210A40111C0E220A435A727B6855
:10E330001A7B00210A401A735A7B00210A405A7343
:10E340007B680E331A7800210A401A705A7800212F
:10E350000A405A709A7800210A409A70DA780021AF
:10E360000A40DA707B689A7C00210A409A74DA7C51
:10E3700000210A40DA747B680E221A757B6800223D
:10E380005A757B6800229A75C0467868BD4603B00E
:10E3900090BD000090B583B000AF78607B68F82234
:10E3A0009B58394A9C1801F0CBF90300A3429B41CA
:10E3B0005B42DBB2002B57D07B687322012199545A
:10E3C000324B1B78022B5BD8314B1B78062B3CD889
:10E3D0009A00304BD3181B689F467B6876332E48D3
:10E3E00008221900FCF798FE30E07B687E332B484A
:10E3F00008221900FCF790FE28E07B688633284845
:10E4000002221900FCF788FE20E07B68883325484B
:10E4100002221900FCF780FE18E07B688A3319009D
:10E420008323DB0002221800FCF776FE0EE07B68F7
:10E430008C331D4802221900FCF76EFE134B1B782B
:10E440000133DAB2114B1A7000E0C046104B1B7852
:10E450000133DAB20E4B1A700D4B1B78062B0FD915
:10E460000B4B01221A700BE07A68A0235B00D35C8F
:10E47000002B01D00A2100E002217B68732299540D
:10E48000C046BD4603B090BD70170000442A00206E
:10E490009000002068BD010814040000150400006D
:10E4A00016040000170400001904000080B582B0B3
:10E4B00000AF78607B68180000F0D8FA7B687322A0
:10E4C0000321995401F03CF902007B68F4215A5071
:10E4D000C046BD4602B080BD90B583B000AF786045
:10E4E0007B68180000F0C2FA7B681800FFF774FB25
:10E4F0007B68F4229B581A4A9C1801F021F903000A
:10E50000A3429B415B42DBB2002B24D17B68180005
:10E51000FFF76CFB7A6892235B00D2587B689621E8
:10E52000595A98201B5A1B040B4319000B00DB009F
:10E530005B1A5B009A4204D97B68732205219954C7
:10E5400009E07B6873220421995401F0F9F8020074
:10E550007B68F0215A50C046BD4603B090BDC0460E
:10E56000B80B0000F0B5C64600B588B004AF7860BF
:10E570007D687A6892235B00D1587A6894235B00A7
:10E58000D0580F23FC187B688E2200260396029039
:10E590000191995A981840880004014388469918B7
:10E5A0008888C988090401430E0008219B185A185D
:10E5B0006B461800110004231A000DF017F84246AC
:10E5C00033000E212800FFF781F9030023700F2389
:10E5D000FB181B78022B02D0032B05D009E07B68C7
:10E5E00073220521995404E07B6873220A2199540F
:10E5F000C046C046BD4604B080BCB846F0BD000071
:10E6000080B582B000AF78607A6892235B00D358FF
:10E61000564A934208D97B68EC229B5810221A4331
:10E620007B68EC215A509DE07B68EC229B581022BD
:10E6300093431A007B68EC215A507B68180000F065
:10E6400015FA7A6892235B00D2587B689221595A56
:10E6500094201B5A1B040B4319000B00DB005B1AB0
:10E660005B009A4216D37A684423FF33D35C002BB5
:10E6700010D17A68A2235B000021D15401F060F828
:10E6800001007A6888235B00D1507A684423FF3305
:10E690000121D15401F054F801007A6888235B000D
:10E6A000D358CA1A3249002391425B41DBB2002B96
:10E6B00057D17A6892235B00D2587B689221595ACD
:10E6C00094201B5A1B040B4319000B00DB005B1A40
:10E6D0005B009A4211D37A6892235B00D358254A93
:10E6E00093420AD87A68A2235B00D35C002B04D142
:10E6F0007B6873220621995434E07A6892235B0088
:10E70000D3581C4A93420FD97A68A2235B00D35C8A
:10E71000002B09D17A68A4235B000121D1547B68C6
:10E720007322072199541DE07A6892235B00D25826
:10E730007B689221595A94201B5A1B040B431900E1
:10E740000B00DB005B1A5B009A420BD37A68A223B2
:10E750005B00D35C012B05D17B687322082199549F
:10E7600000E0C046BD4602B080BDC046E8FD0000E6
:10E770007B15000033B7000080B582B000AF786031
:10E780007A689F235B00FF21D1547A68A3235B0042
:10E790000121D1547A68A2235B00D35C012B04D100
:10E7A0007B6873220821995412E07A6892235B00F7
:10E7B000D358094A934204D97B687322072199549C
:10E7C00006E0FA231A017B6811001800FFF72CFB02
:10E7D000C046BD4602B080BD34B7000080B582B0EF
:10E7E00000AF78607A689C235B000021D1547A687E
:10E7F0003A23FF330021D1547A689D235B00002126
:10E80000D1547A683C23FF330021D1547A689E2387
:10E810005B000021D1547A6892235B00D358164ADA
:10E82000934225D8154A7B6811001800FFF7FCFABF
:10E83000134A7B6811001800FFF704FB7A689F23D6
:10E840005B00FF21D1547A68A3235B000121D154DE
:10E850007A6892235B00D1587A6898235B00D15084
:10E860007A6894235B00D1587A688A235B00D15080
:10E87000C046BD4602B080BDD7D60000204E000085
:10E88000D8D6000080B582B000AF78607B681800F1
:10E8900000F0ECF87B68180000F00CF87B681800BA
:10E8A00000F0FCFB7B68180000F092FCC046BD46FF
:10E8B00002B080BD80B584B000AF786000F040FF4A
:10E8C0000300FB607A689A235B00D3581B4A944686
:10E8D0006344FA689A421DD97A684223FF330021C3
:10E8E000D1547A68A2235B000021D1547A68A32313
:10E8F0005B000021D1547A689F235B000021D15432
:10E900007A68A4235B000121D1547B68732209211A
:10E9100099540EE07A68A3235B000121D1547A68F0
:10E920004423FF330021D1547A68A4235B000021E3
:10E93000D154C046BD4604B080BDC046B80B0000EF
:10E9400080B582B000AF78607B6873229B5C0A2B35
:10E9500000D97AE09A00404BD3181B689F467B6829
:10E960001800FFF717FD73E07B681800FFF79EFDA6
:10E970006EE07B681800FFF7AFFD69E07B68180068
:10E98000FFF7F0FD64E07B681800FFF739FE5FE0F9
:10E990007B681800FFF7F0FE5AE07B681800FFF76D
:10E9A0001DFF55E07B681800FFF76CFF50E07A68A8
:10E9B000A3235B000021D1547A689F235B000021D0
:10E9C000D1547A68A4235B000121D15440E07A68D5
:10E9D000A0235B00D35C002B39D17A6892235B00C3
:10E9E000D3581E4A93421DD97A6892235B00D258AD
:10E9F0007B689221595A94201B5A1B040B4319001F
:10EA00000B00DB005B1A5B009A420BD27A68822310
:10EA10005B00D358124A1A4311007A6882235B00C4
:10EA2000D15014E07A6892235B00D3580D4A934288
:10EA30000DD87A6882235B00D3580B4A1A43110021
:10EA40007A6882235B00D15001E0C04600E0C046F6
:10EA5000C046BD4602B080BD84BD010830750000CF
:10EA6000004000102F7500000008001090B585B020
:10EA700000AF78607A68A4235B00D35C012B28D0B8
:10EA80007B68FC229C5800F05BFE03009C429B418B
:10EA90005B42DBB2002B1DD008217B1800221A60DC
:10EAA00000225A607B1801221A707B1802225A70C9
:10EAB00079188223DB0008221800FCF72DFB00F0F8
:10EAC0003FFE0300FA2292009A187B68FC215A50FC
:10EAD00000E0C046BD4605B090BD80B582B000AF35
:10EAE00078607B6873229B5C052B01D9012300E0D1
:10EAF00000231800BD4602B080BD90B587B000AFBE
:10EB0000F860B960FB1D1A7014243B191800032328
:10EB10001A0000210CF073FDFB1D1A78B9683B192F
:10EB200018000CF063FD3B195B78022B14D1FA68D6
:10EB3000A2235B000121D154FA684223FF33012153
:10EB4000D154FA689F235B00FF21D154FA68A323B4
:10EB50005B000121D15409E0FA684223FF33002110
:10EB6000D154FA68A2235B000021D154C046BD46AF
:10EB700007B090BD80B582B000AF78607B6873222B
:10EB80009B5C082B04D17A684023FF33D15C05E0FD
:10EB90007B68180000F008FC030019007A68402325
:10EBA000FF33D1547A684023FF33D35C1800BD464D
:10EBB00002B080BD90B589B000AFF860B960FB1DB0
:10EBC0001A7010243B19180008231A0000210CF0B9
:10EBD00016FDFB1D1A78B9683B1918000CF006FDEC
:10EBE0003B199978FA684023FF33D1543B195B787D
:10EBF0005BB2D9B2FA683E23FF33D1543B19DB88AC
:10EC000018000AF067FB03001A0013009B009B1812
:10EC10005B00FB613B199B8818000AF05BFB03005B
:10EC20001A0013009B009B185B00BB61FB693D4A07
:10EC3000934201D93B4BFB61FB693B4A934201D8AC
:10EC40003A4BFB61BB693A4A934201D9384BBB61ED
:10EC5000FB6874229B5C052B10D0FA6896235B003E
:10EC6000F969D150FA688C235B00B969D150314BF6
:10EC7000FA691A60304BBA691A604FE02F4B1B6873
:10EC8000002B0BD000F05CFD02002C4B1B68D21A4D
:10EC9000FA235B019A4201D9012300E00023002BF3
:10ECA00007D0264B00221A60FA6896235B00F969A8
:10ECB000D150204B1B68FA699A4207D01D4BFA6964
:10ECC0001A6000F03DFD02001C4B1A601C4B1B68D3
:10ECD000002B0BD000F034FD0200194B1B68D21A38
:10ECE000FA235B019A4201D9012300E00023002BA3
:10ECF00007D0134B00221A60FA688C235B00B969B5
:10ED0000D1500D4B1B68BA699A4207D00A4BBA69B9
:10ED10001A6000F015FD0200094B1A60C046BD469E
:10ED200009B090BD204E0000B70B0000B80B0000EA
:10ED300078E60000482A00204C2A0020502A0020B3
:10ED4000542A002090B587B000AFF860B960FB1D71
:10ED50001A7010243B19180008231A0000210CF027
:10ED60004EFCFB1D1A78B9683B1918000CF03EFCEC
:10ED70003B195B8818000AF0ADFA03001A00130073
:10ED80009B009B185B001900FA688E235B00D15032
:10ED90003B191B8818000AF09DFA03001A001300A3
:10EDA0009B009B185B001900FA6890235B00D15010
:10EDB0003B199B8818000AF08DFA03001A00130013
:10EDC0009B009B185B001900FA6898235B00D150E8
:10EDD0003B19DB8818000AF07DFA03001A001300C3
:10EDE0009B009B185B001900FA688A235B00D150D6
:10EDF000C046BD4607B090BD80B584B000AFF86096
:10EE0000B960FB1D1A70BB681978FA689C235B0017
:10EE1000D154BB685978FA689D235B00D154BB6814
:10EE20009978FA683C23FF33D154BB68D978FA68E3
:10EE30009E235B00D154C046BD4604B080BD000097
:10EE400080B582B000AF786039603B681A78597835
:10EE500009020A43997809040A43DB781B06134325
:10EE60001A008023DB009A4202D12B4B01221A7038
:10EE7000294B1B78012B4AD13B681A785978090233
:10EE80000A43997809040A43DB781B061343234A93
:10EE9000934232D0214A934238D8214A934223D018
:10EEA0001F4A934232D88022D200934203D01D4A97
:10EEB000934210D02AE000F043FC01007A689A23C4
:10EEC0005B00D1503B68591D3B681A797B6818007C
:10EED000FFF713FE1BE03B68591D3B681A797B68FE
:10EEE0001800FFF767FE12E03B68591D3B681A796E
:10EEF0007B681800FFF726FF09E03B68591D3B6857
:10EF00001A797B681800FFF777FF00E0C046C0461B
:10EF1000BD4602B080BDC046582A00200304000050
:10EF2000020400000104000090B589B000AFF86051
:10EF3000B9607A601A00FB1C1A7010243B19180083
:10EF400010231A0000210CF05AFB3B19BA681A6012
:10EF50003B19FA1C12781A73FB1C1A7879683B1952
:10EF6000043318000CF042FB134B5A68124B1B7809
:10EF7000591CC8B2104908701B01D3183919102246
:10EF800018000CF033FB0C4B1A780B4B9B781900D4
:10EF90001000F6F73FFD0B00DAB2074B1A70FB6862
:10EFA0009A331A00FB681100180000F007F80023DC
:10EFB0001800BD4609B090BD88000020B0B586B0ED
:10EFC00000AF7860396008243B19180010231A003C
:10EFD00000210CF014FB304B5A682F4B5B78591C06
:10EFE000C8B22D4948701B01D1183B1910221800D6
:10EFF0000CF0FCFA284B5A78274B9B78190010002C
:10F00000F6F708FD0B00DAB2234B5A703B68581D27
:10F010003B191B7B1A003B19043319000CF0E6FA6C
:10F0200025003B191A683B68FF2111400C00197834
:10F0300000200140081C211C01431970110AFF2007
:10F0400001400C00597800200140081C211C01439C
:10F050005970110CFF2001400C00997800200140EC
:10F06000081C211C01439970100EDA7800210A4017
:10F07000111C021C0A43DA707B191A7B3B681A7157
:10F080007B681B6808331B6839687A6810009847EA
:10F09000C046BD4606B0B0BD8800002090B585B022
:10F0A00000AF78607A684223FF33D35C002B00D135
:10F0B00087E00823FB18180008231A0000210CF031
:10F0C0009EFA7B6873229B5C062B04D07B687422BB
:10F0D0009B5C022B07D108217B1801221A707B1838
:10F0E0000222DA703CE07B6874229B5C012B04D026
:10F0F0007B6874229B5C062B07D108217B180022B9
:10F100001A707B180122DA702AE07B6874229B5CFB
:10F11000032B04D07B6874229B5C042B07D108214D
:10F120007B1802221A707B180222DA7018E07B68C2
:10F1300074229B5C052B07D108217B1803221A70CF
:10F140007B180222DA700BE07B6874229B5C072B31
:10F1500006D108217B1804221A707B180122DA706C
:10F160007A6894235B00D3580A211800F6F7CCFB89
:10F1700003009BB218000AF0ADF803001A0008243F
:10F180003B19DA807A6892235B00D3580A21180071
:10F19000F6F7BAFB03009BB218000AF09BF80300D5
:10F1A0001A003B199A807A6886235B00D3585AB2BA
:10F1B0003B195A703B19054808221900FBF7ACFFB0
:10F1C00000E0C046BD4605B090BDC0461104000039
:10F1D00080B586B000AF78607A684223FF33D35C95
:10F1E000002B00D1DAE01023FB1800221A60002265
:10F1F0005A600C217B1800221A807A6884235B00F5
:10F20000D25880239B01134006D07B181B78012223
:10F210001343DAB27B181A707A6884235B00D258E1
:10F22000C023DB00134007D00C217B181B7802227F
:10F230001343DAB27B181A707A6884235B00D258C1
:10F2400080235B02134007D00C217B181B7804221B
:10F250001343DAB27B181A707A684623FF33D35C03
:10F26000012B07D10C217B181B7808221343DAB23B
:10F270007B181A707A6884235B00D35802221340EB
:10F2800007D00C217B181B7810221343DAB27B18AD
:10F290001A707A6884235B00D3580422134007D085
:10F2A0000C217B181B7820221343DAB27B181A70CA
:10F2B0007A6884235B00D358802213400ED00C213F
:10F2C0007B181B7840221343DAB27B181A707B1824
:10F2D0005B7804221343DAB27B185A707A6884236D
:10F2E0005B00D258C023DB02134008D00C217B18EE
:10F2F0001B78802252421343DAB27B181A707A6864
:10F3000084235B00D3582022134007D00C217B18A4
:10F310005B7801221343DAB27B185A707A6884232F
:10F320005B00D3584022134007D00C217B185B7838
:10F3300002221343DAB27B185A707A6884235B0086
:10F34000D25880231B03134007D00C217B185B7815
:10F3500008221343DAB27B185A707A6884235B0060
:10F36000D25880235B03134007D00C217B185B78B5
:10F3700010221343DAB27B185A700C203B181A780B
:10F3800010217B181A703B185A787B185A707B181A
:10F39000044808221900FBF7BFFE00E0C046BD4646
:10F3A00006B080BD1204000090B585B000AF786053
:10F3B0000F23FB1800221A707B6873229B5C052BBD
:10F3C00001D800232AE07B6873229B5C072B22D89C
:10F3D0007A68AC235B00D35C002B14D17A68AC2331
:10F3E0005B000121D1547B68180000F053F87A6863
:10F3F000A6235B00D3580F22BC18181CF6F772FC2A
:10F400000300237007E00F23FC187B68180000F04E
:10F4100091F8030023700F23FB181B781800BD46DA
:10F4200005B090BD90B585B000AF78600A00BB1CF8
:10F430001A800F23FB1800221A700F243B191B7827
:10F44000142B18D83B191A787968A02013005B0098
:10F450009B18CB181B18DA791B7A1B0213439BB23B
:10F46000BA1C12889A4205D33B191A783B1901320B
:10F470001A70E2E7C0460F23FB181A787968A920B2
:10F4800013005B009B18CB181B181B781800BD4697
:10F4900005B090BDB0B584B000AF78607A689223B3
:10F4A0005B00D3580A211800F6F72EFA03009AB22F
:10F4B0000F257C197B6811001800FFF7B3FF0300CC
:10F4C00023707B191A781300DB009B1A1A01D31AD8
:10F4D0001800F9F769F80022144BF7F711FE020043
:10F4E0000B0010001900F9F7FDF8011C7A68A82339
:10F4F0005B00D1507A68A8235B00D3580C49181CD4
:10F50000F6F7DCFB031E04D07A68A8235B000849E9
:10F51000D1507A68A8235B00D1587A68A6235B0093
:10F52000D150C046BD4604B0B0BDC04600005940F1
:10F530000000C842B0B588B000AF786000F000F9B4
:10F540000300BB617A6894235B00D3587B61474B0F
:10F550001B68002B06D1454BBA691A60444B7A6987
:10F560001A606DE00023FB61404B1B68BA69D31A37
:10F57000404A934264D97A6894235B00D3583E4A48
:10F58000934203D93D4B1B78012B07D13B4B012202
:10F590001A707B681800FFF77DFF4BE0374B1B7834
:10F5A000002B47D1324B1B68354A934202D8304B6F
:10F5B0007A691A602E4B1A687B69D3185B083B6125
:10F5C0003A69FA239B009A420FD93869F9F71CF877
:10F5D00000222C4BF7F794FD02000B0010001900DD
:10F5E000F9F780F8031CFB6104E03869F7F70AFAC1
:10F5F000031CFB612449F869F6F748FD031C1A1C3B
:10F60000224B1B68191C101CF6F7A2FB031C1A1CCA
:10F610001E4B1A607A68A8235B00D2581B4B1B68EC
:10F62000191C101CF6F794FB031C191C7A68A623FE
:10F630005B00D1500D4BBA691A600D4B7A691A60A4
:10F640007A68A6235B00D358181CF6F74BFB03001F
:10F65000DBB20F257C19180000F01AF803002370A4
:10F660007B191B781800BD4608B0B0BD382A0020B1
:10F670003C2A002060EA000087130000592A00207D
:10F68000B70B000000408F4000007042402A00206D
:10F6900080B582B000AF0200FB1D1A70FB1D1B7805
:10F6A0000A211800F6F7B6F90B00DBB2002B02D1E5
:10F6B000FB1D1B780DE0FB1D1B780A211800F6F7D7
:10F6C000A9F90B00DBB2FA1D1278D31ADBB20A33A8
:10F6D000DBB21800BD4602B080BD000080B582B02C
:10F6E00000AFFB1D00221A700B4B1A680A4B8021D9
:10F6F00049000A431A600320FDF76CFC031E03D087
:10F70000FB1D01221A7001E0FDF734FCFB1D1B7884
:10F710001800BD4602B080BD0020024080B500AF99
:10F72000054B1B781A00054B1B68D218034B1A6057
:10F73000C046BD4680BDC046980000205C2A00201F
:10F7400080B500AF024B1B681800BD4680BDC046A7
:10F750005C2A002080B584B000AF7860FFF7F0FF2E
:10F760000300BB607B68FB60FB68013305D00A4B7C
:10F770001B781A00FB689B18FB60C046FFF7E0FF90
:10F780000200BB68D31AFA689A42F7D8C046C0464E
:10F79000BD4604B080BDC0469800002080B582B050
:10F7A00000AF78607A6880239B009A4210D07A6814
:10F7B0008023DB009A420BD07A68C023DB009A4298
:10F7C00006D0B8239A00094B11001800FDF7C9FBB9
:10F7D000074B1B68074A13401900054B7A680A4318
:10F7E0001A60C046BD4602B080BDC046F8B70108E9
:10F7F00000000140FFF9FFFF80B582B000AF7860E4
:10F8000039607B681B68054A1A403B681A437B686D
:10F810001A60C046BD4602B080BDC046FFFF3FFE35
:10F8200080B582B000AF78607B681A68E0235B0423
:10F8300013401800BD4602B080BD80B584B000AF53
:10F84000F860B9607A60FB685B69BA6804210A40B5
:10F85000072191400A00D2431A40BB6804210B40A3
:10F86000796899400B001A43FB685A61C046BD464F
:10F8700004B080BD80B582B000AF786039607B682D
:10F880005B693A6804210A40072191400A001A4046
:10F890003B6804210B40DA4013001800BD4602B05B
:10F8A00080BD80B582B000AF78607B68DA68C02325
:10F8B0001B01134001D1012300E000231800BD46C5
:10F8C00002B080BD80B584B000AFF860B9607A60E6
:10F8D000FB689B6ABA681F210A400F2191400A0009
:10F8E000D2431A407B689B0E0F211940BB681F2032
:10F8F000034099400B001A43FB689A62C046BD461C
:10F9000004B080BD80B582B000AF786039607B689C
:10F910009A6A3B685B035B0B1A437B689A62C0463A
:10F92000BD4602B080BD80B582B000AF786039605E
:10F930007B689B6A3A685203520BD2431A407B6839
:10F940009A62C046BD4602B080BD000080B584B05A
:10F9500000AFF860B9607A60FB685B69BA68120250
:10F96000D2431A40BB681B0279680B4004490B4024
:10F970001A43FB685A61C046BD4604B080BDC0460C
:10F9800000FFFF0780B582B000AF78607B689B689E
:10F99000054A1340802252051A437B689A60C0468C
:10F9A000BD4602B080BDC046E8FFFF6F80B582B0A3
:10F9B00000AF78607B689A6880235B051A408023DB
:10F9C0005B059A4201D1012300E000231800BD46E7
:10F9D00002B080BD80B582B000AF78607B689B6864
:10F9E000044A134001221A437B689A60C046BD4610
:10F9F00002B080BDE8FFFF7F80B582B000AF7860C5
:10FA00007B689B68044A134002221A437B689A6011
:10FA1000C046BD4602B080BDE8FFFF7F80B582B022
:10FA200000AF78607B689B6801221340012B01D1F5
:10FA3000012300E000231800BD4602B080BD80B560
:10FA400082B000AF78607B689B6802221340022B73
:10FA500001D1012300E000231800BD4602B080BDA3
:10FA600080B582B000AF78607B689B68044A134021
:10FA700004221A437B689A60C046BD4602B080BD2E
:10FA8000E8FFFF7F80B582B000AF78607B689B683D
:10FA900004221340042B01D1012300E000231800AD
:10FAA000BD4602B080BD000080B588B000AF786070
:10FAB0001F23FB1800221A700023BB6100237B6107
:10FAC0000023FB607B68002B02D1012300F00FFCB8
:10FAD0007B681B68C34A934207D08A23FF331A000E
:10FAE000C14B11001800FDF73CFA7B685A68C0232F
:10FAF0001B069A4258D07B685A688023DB059A42DD
:10FB000052D07B685A6880231B069A424CD07B688F
:10FB10005B68002B48D07B685A688023DB029A42DE
:10FB200042D07B685A6880231B039A423CD07B6892
:10FB30005A68C0231B039A4236D07B685A688023D8
:10FB40005B039A4230D07B685A68A0235B039A42D9
:10FB50002AD07B685A68C0235B039A4224D07B6812
:10FB60005A68E0235B039A421ED07B685A68802360
:10FB70009B039A4218D07B685A6890239B039A4251
:10FB800012D07B685A68A0239B039A420CD07B68F2
:10FB90005A68B0239B039A4206D0C5235A00924B61
:10FBA00011001800FDF7DDF97B689B68002B13D06E
:10FBB0007B689B68082B0FD07B689B68102B0BD051
:10FBC0007B689B68182B07D08C23FF331A00864B69
:10FBD00011001800FDF7C5F97B68DB68002B0AD01F
:10FBE0007B68DB68202B06D0C6235A007E4B1100B1
:10FBF0001800FDF7B6F97B681B69002B18D07B68ED
:10FC00001A6980239B039A4212D07B681A69802369
:10FC10001B069A420CD07B681B69744A934207D03A
:10FC20008E23FF331A00704B11001800FDF799F96D
:10FC30007B689B7E002B0AD07B689B7E012B06D0C5
:10FC4000C7235A00684B11001800FDF78AF97B683A
:10FC50009B6A002B19D07B689A6A8023DB009A424A
:10FC600013D07B689A6A80231B019A420DD07B686F
:10FC70009A6AC0231B019A4207D09023FF331A00CF
:10FC8000594B11001800FDF76CF97B685A6A802304
:10FC9000DB009A422ED07B685A6A8823DB009A42A6
:10FCA00028D07B685A6A9023DB009A4222D07B6876
:10FCB0005A6A9823DB009A421CD07B685A6AA823B0
:10FCC000DB009A4216D07B685A6AA023DB009A4276
:10FCD00010D07B685A6AB823DB009A420AD07B684E
:10FCE0005B6A002B06D0C8235A003F4B1100180056
:10FCF000FDF737F97B682C229B5C002B0CD07B68CE
:10FD00002C229B5C012B07D09223FF331A00364B29
:10FD100011001800FDF725F97B685B69042B0AD0F8
:10FD20007B685B69082B06D0C9235A002E4B110053
:10FD30001800FDF716F97B681B6B002B0DD07B6854
:10FD40001A6B80235B019A4207D09423FF331A0079
:10FD5000254B11001800FDF704F97B681B7E002B72
:10FD60000AD07B681B7E012B06D0CA235A001E4B8B
:10FD700011001800FDF7F5F87B685B7E002B0BD0B7
:10FD80007B685B7E012B07D09623FF331A00164B4E
:10FD900011001800FDF7E5F87B685B6B002B29D09C
:10FDA0007B685B6B012B25D07B685B6B022B21D0C2
:10FDB0007B685B6B032B1DD07B685B6B042B19D0BE
:10FDC0007B685B6B052B15D07B685B6B062B11D0BA
:10FDD0007B685B6B072B0DD0CB235A00024B1100C5
:10FDE000180005E0002401402CB801080400008040
:10FDF000FDF7B7F87B689B6B002B23D07B689B6B70
:10FE0000012B1FD07B689B6B022B1BD07B689B6BED
:10FE1000032B17D07B689B6B042B13D07B689B6BE9
:10FE2000052B0FD07B689B6B062B0BD07B689B6BE5
:10FE3000072B07D09823FF331A00B94B1100180085
:10FE4000FDF78FF87B683C229B5C002B0BD07B6816
:10FE50003C229B5C012B06D0CC235A00B04B1100F6
:10FE60001800FDF77EF87B683C229B5C012B00D0DC
:10FE700066E07B681B6C002B23D07B681B6C042B1B
:10FE80001FD07B681B6C082B1BD07B681B6C0C2B5A
:10FE900017D07B681B6C102B13D07B681B6C142B4A
:10FEA0000FD07B681B6C182B0BD07B681B6C1C2B3A
:10FEB00007D09C23FF331A00994B11001800FDF75F
:10FEC00050F87B685B6C002B28D07B685B6C202B28
:10FED00024D07B685B6C402B20D07B685B6C602BF4
:10FEE0001CD07B685B6C802B18D07B685B6CA02B74
:10FEF00014D07B685B6CC02B10D07B685B6CE02BF4
:10FF00000CD07B685A6C80235B009A4206D0CE23CB
:10FF10005A00834B11001800FDF723F87B689B6C97
:10FF2000002B0DD07B689A6C80239B009A4207D0EF
:10FF30009E23FF331A007A4B11001800FDF711F8C9
:10FF40007B68DB6C002B0DD07B68DA6C80239B0513
:10FF50009A4207D0A023FF331A00714B11001800FA
:10FF6000FCF7FFFF7B681B69002B27D07B682022F2
:10FF70009B5C002B0CD07B6820229B5C012B07D064
:10FF8000A423FF331A00664B11001800FCF7E9FFA9
:10FF90007B681A6980239B039A420FD17B68DB69D7
:10FFA000002B03D07B68DB69082B07D9A823FF331C
:10FFB0001A005B4B11001800FCF7D3FF7B6820226E
:10FFC0009B5C012B0BD17B689B7E012B07D1AE2361
:10FFD000FF331A00524B11001800FCF7C2FF7B6878
:10FFE0009B6D002B0AD17B681800FCF72FFC7B6807
:10FFF0000022DA657B685422002199547B681B68D3
:020000040801F1
:100000001800FFF7D3FC031E15D17B681B6818008E
:10001000FFF7B8FC434B1B6843491800F5F774FC25
:10002000030001335B00FB6002E0FB68013BFB6007
:10003000FB68002BF9D17B681B681800FFF7B6FC42
:10004000031E0FD17B689B6D10221A437B689A6553
:100050007B68DB6D01221A437B68DA651F23FB187E
:1000600001221A707B681B681800FFF70BFD030064
:100070003B617B689B6D1022134000D02AE13B69F5
:10008000002B00D026E17B689B6D284A134002229A
:100090001A437B689A657B681B681800FFF7BEFCF3
:1000A000031E00D0B5E07B689A687B681B7E9B03CB
:1000B0001A437B685B7EDB031A437B689B7E5B0392
:1000C0001A437B681B6B002B02D080235B0100E08E
:1000D00000231A437B68DB681A437B681B69002B8B
:1000E00004DA7B681B695B005B0801E080239B03EB
:1000F0001A437B682C215B5C5B001343BA69134392
:10010000BB617B6820229B5C012B1DD17B689B7EA1
:10011000002B0DD1BB69802252021343BB6113E057
:100120002CB8010880000020400D0300FDFEFFFFF9
:100130007B689B6D20221A437B689A657B68DB6D28
:1001400001221A437B68DA657B685B6A002B0AD060
:100150007B685A6AE0235B001A407B689B6A134302
:10016000BA691343BB617B681B68DB68624A134052
:1001700019007B681B68BA690A43DA607B685B68B0
:100180009B0F9A077B68DB6C13437A6913437B618F
:100190007B683C229B5C012B11D17B685B689B0FC9
:1001A0009A077B681B6C1A437B685B6C1A437B68FD
:1001B0009B6C1A437B691343012213437B617B6869
:1001C0001B681B694D4A134019007B681B687A69DC
:1001D0000A431A617B685A68C0231B069A4218D0EA
:1001E0007B685A688023DB059A4212D07B685A6884
:1001F00080231B069A420CD0414B1B68414A134096
:1002000019007B685A68F0239B031A403C4B0A4351
:100210001A607B6818687B685B6B1A000021FFF727
:100220000CFB7B6818687B689B6B37491A00FFF7EB
:1002300004FB7B681B69002B09D17B681B689A6AE9
:100240007B681B68102149420A439A6218E07B6868
:100250001A6980239B039A4212D17B681B689B6AB0
:100260007B68DB69013B9B001C2213401022524239
:100270009A4011007B681A6E7B681B680A439A6279
:100280007B681B6800211800FFF7F4FA02007B6806
:100290005B6B9A420BD17B680022DA657B689B6DB1
:1002A0000322934301221A437B689A651CE07B6812
:1002B0009B6D1222934310221A437B689A657B68D8
:1002C000DB6D01221A437B68DA651F23FB180122CC
:1002D0001A7009E07B689B6D10221A437B689A654F
:1002E0001F23FB1801221A701F23FB181B7818000C
:1002F000BD4608B080BDC0460102FEFF02FCFF1FE4
:1003000008270140FFFFC3FF04FFFF07B0B586B019
:1003100000AFF860B9607A60FB681B68434A93429B
:1003200005D0434A434B11001800FCF71AFEFB6846
:100330001B681800FFF7A6FB031E6CD1FB68542254
:100340009B5C012B01D102236CE0FB68542201214C
:100350009954FB681B68DB680122134013D1FB68CA
:100360001B681800FFF75AFB031E04D0FB681B68CC
:100370001800FFF741FBFB681B68DA68FB681B6825
:1003800001210A43DA6017257C19FB68180000F088
:100390005FFB030023702C003B191B78002B3ED120
:1003A000FB689B6D244A1340802252001A43FB686D
:1003B0009A65FB680022DA65FB681B6D1F4ADA62EA
:1003C000FB681B6D1E4A1A63FB681B6D1D4A5A634E
:1003D000FB681B681C221A60FB6854220021995498
:1003E000FB681B685A68FB681B6810210A435A6047
:1003F000FB68186DFB681B6840331900BA683C192C
:100400007B6801F04DF803002370FB681B6818003F
:10041000FFF726FB03E01723FB1802221A701723AD
:10042000FB181B781800BD4606B0B0BD0024014083
:100430007D0600002CB80108FEF0FFFF190C010832
:10044000E10C0108FF0C010880B582B000AF7860B4
:10045000C046BD4602B080BD80B582B000AF7860B6
:10046000C046BD4602B080BD80B586B000AF7860A2
:1004700039601723FB1800221A700023FB607B6889
:100480001B68914A934205D0904A914B1100180085
:10049000FCF767FD3B681B68012B00D171E03B68EE
:1004A0001B688C4A934200D16BE03B681B688A4A08
:1004B000934200D165E03B681B68884A934200D1B3
:1004C0005FE03B681B68864A93425AD03B681B68D2
:1004D000844A934255D03B681B68834A934250D06C
:1004E0003B681B68814A93424BD03B681B68804A3B
:1004F000934246D03B681B687E4A934241D03B689A
:100500001B687D4A93423CD03B681B687B4A934200
:1005100037D03B681B687A4A934232D03B681B68ED
:10052000784A93422DD03B681B68774A934228D083
:100530003B681B68754A934223D03B681B68744A2A
:1005400093421ED03B681B68724A934219D03B68A5
:100550001B68714A934214D03B681B686F4A9342F0
:100560000FD03B681B686E4A93420AD03B681B68F9
:100570006C4A934205D06C4A554B11001800FCF7A9
:10058000F0FC3B689B68002B0AD03B689B68674A7D
:10059000934205D0664A4E4B11001800FCF7E1FC6F
:1005A0007B681A6980231B069A4204D07B681B690A
:1005B000604A93420ED13B685B68012B40D03B6898
:1005C0005B68022B3CD05C4A414B11001800FCF7E1
:1005D000C8FC35E07B68DB69002B03D07B68DB69F6
:1005E000082B06D988231A01394B11001800FCF793
:1005F000B8FC3B685B68002B23D03B685B68042B2E
:100600001FD03B685B68082B1BD03B685B680C2BDA
:1006100017D03B685B68102B13D03B685B68142BCA
:100620000FD03B685B68182B0BD03B685B681C2BBA
:1006300007D0424A264B11001800FCF792FC00E05C
:10064000C0467B6854229B5C012B01D10223E6E16A
:100650007B685422012199547B681B681800FFF7BE
:1006600011FA031E00D0C9E13B685B68022B00D180
:100670007DE17B681A6980231B069A4204D07B685F
:100680001B692C4A934208D17B681A683B681B6837
:1006900019001000FFF736F905E17B681A6E3B6818
:1006A0005B681F210B400F2199400B00DB43134077
:1006B00019003B681B685B035B0B41D13B681B68FF
:1006C0009B0E1F221340D4E0002401407508000057
:1006D0002CB8010802000004040000080800000C07
:1006E0001000001020000014400000188000001CC2
:1006F0000001002000020024000400280008002C53
:100700000010003000200034004000380080003C21
:10071000000001400000024400000448001000B046
:10072000002000B4004000B87608000004FFFF0776
:1007300077080000040000807C08000082080000A8
:100740003B681B680122134000D091E03B681B68A6
:100750000222134000D089E03B681B68042213404A
:1007600000D081E03B681B680822134000D079E08C
:100770003B681B681022134000D071E03B681B6887
:100780002022134000D069E03B681B6840221340E0
:1007900000D061E03B681B688022134000D059E024
:1007A0003B681A6880235B00134051D13B681A688C
:1007B00080239B00134049D13B681A688023DB00EB
:1007C000134041D13B681A6880231B01134039D183
:1007D0003B681A6880235B01134031D13B681A687B
:1007E00080239B01134029D13B681A688023DB01D9
:1007F000134021D13B681A6880231B02134019D192
:100800003B681A6880235B02134011D13B681A6869
:1008100080239B02134009D13B681A688023DB02C6
:10082000134001D0122324E0002322E0112320E012
:1008300010231EE00F231CE00E231AE00D2318E006
:100840000C2316E00B2314E00A2312E0092310E026
:1008500008230EE007230CE006230AE0052308E046
:10086000042306E0032304E0022302E0012300E066
:1008700000233A6852681F20024093400A001A433E
:100880007B681A663B685B689B085A1C7B68DB695F
:100890009A4208D87B6818683B6859683B681B68AF
:1008A0001A00FFF70FF87B6818683B6819683B6807
:1008B0009B681A00FFF74AF83B681B68002B00DBB7
:1008C000A6E0594B1800FEF7ABFF03003B613B6805
:1008D0001B68564A934222D13A6980231B04134075
:1008E0001DD13B698022120413434F4A19001000A6
:1008F000FEF782FF4E4B1B684E491800F5F704F8CF
:1009000003005A1C13005B009B189B00FB6002E075
:10091000FB68013BFB60FB68002BF9D178E03B688A
:100920001B68454A93420ED13A6980235B04134009
:1009300009D13B698022520413433B4A190010003D
:10094000FEF75AFF64E03B681B683C4A93425FD164
:100950003A698023DB0313405AD13B698022D203DA
:100960001343314A19001000FEF746FF50E07B6840
:100970001A6980231B069A4204D07B681B69304A9F
:10098000934207D17B681A683B681B681900100006
:10099000FEF7C9FF3B681B68002B39DA224B1800B1
:1009A000FEF73EFF03003B613B681B681F4A934212
:1009B00008D13B69234A13401B4A19001000FEF777
:1009C0001BFF25E03B681B681B4A934208D13B692B
:1009D0001D4A1340144A19001000FEF70DFF17E0DE
:1009E0003B681B68154A934212D13B69174A134072
:1009F0000D4A19001000FEF7FFFE09E07B689B6DB1
:100A000020221A437B689A651723FB1801221A706B
:100A10007B685422002199541723FB181B78180077
:100A2000BD4606B080BDC04608270140001000B09A
:100A300080000020400D0300004000B8002000B4FA
:100A400004000080FFFF7FFFFFFFFFFEFFFFBFFFEF
:100A500080B584B000AF78600023BB607B681B6802
:100A60001800FEF7DBFF031E00D069E07B681B68FF
:100A70009B68364A13400DD07B689B6D10221A4349
:100A80007B689A657B68DB6D01221A437B68DA65B7
:100A9000012356E07B681B681800FEF79BFF2C4B78
:100AA0001800FEF7BDFE020080231B0413400FD088
:100AB000284B1B6828491800F4F726FF0300013370
:100AC000BB6002E0BB68013BBB60BB68002BF9D197
:100AD0007B685B7E012B33D0FEF732FE0300FB60A8
:100AE00027E07B681B681800FEF798FF031E04D1FF
:100AF0007B681B681800FEF76DFFFEF721FE020001
:100B0000FB68D31A022B14D97B681B681B6801226F
:100B10001340012B0DD07B689B6D10221A437B681C
:100B20009A657B68DB6D01221A437B68DA650123D5
:100B300007E07B681B681B6801221340012BD0D1A2
:100B400000231800BD4604B080BDC04617000080D9
:100B50000827014080000020400D030080B584B0CC
:100B600000AF78607B681B681800FEF768FF030021
:100B7000FB607B681B681800FEF750FF031E46D021
:100B8000FB68002B43D17B681B689B6805221340E0
:100B9000012B0DD17B681B681800FEF72DFF7B68C9
:100BA0001B6803221A60FEF7CBFD0300BB6028E040
:100BB0007B689B6D10221A437B689A657B68DB6DAE
:100BC00001221A437B68DA65012321E0FEF7B8FDB4
:100BD0000200BB68D31A022B13D97B681B689B6881
:100BE000012213400DD07B689B6D10221A437B6855
:100BF0009A657B68DB6D01221A437B68DA65012305
:100C000006E07B681B689B6801221340DED100234D
:100C10001800BD4604B080BD80B584B000AF7860D8
:100C20007B689B6AFB60FB689B6D5022134041D13F
:100C3000FB689B6D802292001A43FB689A65FB68F3
:100C40001B681800FEF72DFE031E2ED0FB689B7E4E
:100C5000002B2AD1FB681B681B6808221340082B55
:100C600023D1FB681B681800FEF70CFF031E10D190
:100C7000FB681B685A68FB681B680C218A435A6032
:100C8000FB689B6D154A134001221A43FB689A6565
:100C90000BE0FB689B6D20221A43FB689A65FB689A
:100CA000DB6D01221A43FB68DA65FB68180007F068
:100CB0007DFD0FE0FB689B6D1022134004D0FB68A4
:100CC0001800FFF7C9FB05E0FB681B6D5B6B7A68DA
:100CD00010009847C046BD4604B080BDFEFEFFFF31
:100CE00080B584B000AF78607B689B6AFB60FB686E
:100CF0001800FFF7A9FBC046BD4604B080BD80B513
:100D000084B000AF78607B689B6AFB60FB689B6D7A
:100D100040221A43FB689A65FB68DB6D04221A4384
:100D2000FB68DA65FB681800FFF796FBC046BD4616
:100D300004B080BD80B582B000AF786039607B6858
:100D4000B4229B587F2293431A003B681A437B6866
:100D5000B4215A50C046BD4602B080BD80B582B0B5
:100D600000AF78607B68B4229B587F221340180044
:100D7000BD4602B080BD000080B582B000AF786093
:100D80007B689B68044A134001221A437B689A607F
:100D9000C046BD4602B080BDE8FFFF7F80B582B08F
:100DA00000AF78607B689B68044A134002221A43B4
:100DB0007B689A60C046BD4602B080BDE8FFFF7FF9
:100DC00080B582B000AF78607B689B6801221340D9
:100DD000012B01D1012300E000231800BD4602B021
:100DE00080BD000080B582B000AF78607B689B68F2
:100DF000054A1340802212061A437B689A60C04657
:100E0000BD4602B080BDC046E8FFFF7F80B582B01E
:100E100000AF78607B689B68DB0FDA0780231B06D6
:100E20009A4201D1012300E000231800BD4602B020
:100E300080BD000090B589B000AF78600023BB6032
:100E40000023BB617B681B68664A934204D0664BF3
:100E50006F211800FCF785F87B6854229B5C012BFE
:100E600001D10223BAE07B6854220121995417234F
:100E7000FC187B681800FFF771FE030023707B6885
:100E80001B681800FFF79CFF031E00D099E07B68E9
:100E90009B6D564A134002221A437B689A657B6811
:100EA0001B68DB68524A13403B617B681B68DA6849
:100EB0007B681B684F490A40DA600023FB612DE024
:100EC0007B681B681800FFF78DFF14E0BB680133D7
:100ED000BB60BB68484A93420DD97B689B6D122268
:100EE000934310221A437B689A657B685422002141
:100EF0009954012372E07B681B681800FFF786FF96
:100F0000031EE3D17B681B681800FFF727FF020070
:100F1000BB699B18BB61FB690133FB61FB69072B54
:100F2000CED9F969B869F4F7EFFC0300BB617B68BF
:100F30001B681800FFF720FF7B681B68BA69110067
:100F40001800FFF7F7FE7B681B681800FFF726FF05
:100F5000FEF7F6FB0300FB601BE0FEF7F1FB02006F
:100F6000FB68D31A022B14D97B681B681800FFF7A3
:100F700027FF031E0DD07B689B6D10221A437B68F0
:100F80009A657B68DB6D01221A437B68DA65012371
:100F900024E07B681B681800FFF712FF031EDCD1FA
:100FA0007B681B68D9687B681B683A690A43DA600A
:100FB0007B689B6D0322934301221A437B689A65E9
:100FC00005E07B689B6D10221A437B689A657B68FD
:100FD0005422002199541723FB181B781800BD4692
:100FE00009B090BD0024014064B80108FDFEFFFF78
:100FF00003800000FC7FFFFFFFF1020080B582B09C
:1010000000AF0200FB1D1A70FB1D1B787F2B09D857
:10101000FB1D1B781A001F231A40044B012191402D
:101020000A001A60C046BD4602B080BD00E100E083
:1010300090B583B000AF02003960FB1D1A70FB1D34
:101040001B787F2B28D82F4AFB1D1B785BB29B088F
:10105000C0339B009B58FA1D1278110003220A40EE
:10106000D200FF2191400A00D2431A4011003B6890
:101070009B01FF221A40FB1D1B781800032303402D
:10108000DB009A401F48FB1D1B785BB29B080A439C
:10109000C0339B001A5031E01B4AFB1D1B7819001E
:1010A0000F230B40083B9B0806339B00D3180433E7
:1010B0001B68FA1D1278110003220A40D200FF219A
:1010C00091400A00D2431A4011003B689B01FF2265
:1010D0001A40FB1D1B78180003230340DB009A40D5
:1010E0000948FB1D1B781C000F232340083B9B086D
:1010F0000A4306339B00C31804331A60C046BD463A
:1011000003B090BD00E100E000ED00E080B584B0E8
:1011100000AFB9607A600F23FB18021C1A70BB681D
:10112000032B04D9084B89211800FBF71AFFBA6872
:101130000F23FB181B785BB211001800FFF778FF34
:10114000C046BD4604B080BDA0B8010880B582B0DD
:1011500000AF0200FB1D1A70FB1D1B787F2B04D90A
:10116000074B97211800FBF7FCFEFB1D1B785BB2B9
:101170001800FFF743FFC046BD4602B080BDC04621
:10118000A0B8010880B582B000AF78607B68002B02
:1011900001D101235AE17B681B68AE4A93423BD0E0
:1011A0007B681B68AC4A934236D07B681B68AB4AAD
:1011B000934231D07B681B68A94A93422CD07B684C
:1011C0001B68A84A934227D07B681B68A64A9342B3
:1011D00022D07B681B68A54A93421DD07B681B68A0
:1011E000A34A934218D07B681B68A24A934213D04B
:1011F0007B681B68A04A93420ED07B681B689F4A9D
:10120000934209D07B681B689D4A934204D09D4B52
:10121000A1211800FBF7A5FE7B689B68002B0ED070
:101220007B689B68102B0AD07B689A688023DB015F
:101230009A4204D0934BA2211800FBF792FE7B68E0
:10124000DB68402B08D07B68DB68002B04D08D4B1B
:10125000A3211800FBF785FE7B681B69802B08D053
:101260007B681B69002B04D0864BA4211800FBF778
:1012700078FE7B685B69002B10D07B685A698023FD
:101280005B009A420AD07B685A6980239B009A428D
:1012900004D07C4BA5211800FBF763FE7B689B699B
:1012A000002B10D07B689A698023DB009A420AD019
:1012B0007B689A6980231B019A4204D0714BA62156
:1012C0001800FBF74EFE7B68DB69002B08D07B68BB
:1012D000DB69202B04D06B4BA7211800FBF741FEE4
:1012E0007B681B6A002B16D07B681A6A80235B011F
:1012F0009A4210D07B681A6A80239B019A420AD0D6
:101300007B681A6AC0239B019A4204D05D4BA821D6
:101310001800FBF726FE7B685B684D2B04D9594B00
:10132000AA211800FBF71DFE7B681B681A00564BAC
:101330009A4210D87B681B68544A9446634414212F
:101340001800F4F7E1FA03009A007B685A647B689E
:101350004F4A1A640FE07B681B684E4A9446634408
:1013600014211800F4F7D0FA03009A007B685A643D
:101370007B68494A1A647B682522022199547B685C
:101380001B681A687B681B6844490A401A607B68BE
:101390001B6819687B689A687B68DB681A437B68FE
:1013A0001B691A437B685B691A437B689B691A4314
:1013B0007B68DB691A437B681B6A1A437B681B687E
:1013C0000A431A607B68180000F004FA7B689A6888
:1013D0008023DB019A4202D17B6800225A607B683D
:1013E0005A687B689B6C7F210A401A607B68DB6CC3
:1013F0007A68126D5A607B685B68002B11D07B683D
:101400005B68042B0DD87B68180000F02DFA7B6810
:101410005B6D00221A607B689B6D7A68D26D5A60A2
:1014200008E07B6800225A657B6800229A657B6829
:101430000022DA657B680022DA637B6825220121BD
:1014400099547B6824220021995400231800BD463A
:1014500002B080BD080002401C0002403000024083
:1014600044000240580002406C00024080000240EC
:10147000080402401C0402403004024044040240BC
:1014800058040240DCB8010807040240F8FFFDBF21
:1014900000000240F8FBFDBF000402400F80FFFF88
:1014A00080B586B000AFF860B9607A603B60172302
:1014B000FB1800221A703B68002B03D03B68434A9C
:1014C000934207D9B823FF331A00414B110018008B
:1014D000FBF747FDFB6824229B5C012B01D1022313
:1014E0006FE0FB68242201219954FB6825229B5C54
:1014F000DBB2012B57D1FB68252202219954FB68EE
:101500000022DA63FB681B681A68FB681B6801210C
:101510008A431A603B687A68B968F86800F01EF977
:10152000FB681B6B002B08D0FB681B681A68FB6804
:101530001B680E210A431A600FE0FB681B681A68DB
:10154000FB681B6804218A431A60FB681B681A68E1
:10155000FB681B680A210A431A60FB689B6C1A68C7
:1015600080235B02134008D0FB689B6C1A68FB6801
:101570009B6C802149000A431A60FB685B6D002B5D
:1015800008D0FB685B6D1A68FB685B6D80214900C1
:101590000A431A60FB681B681A68FB681B68012114
:1015A0000A431A600AE0FB688022DA63FB6824229F
:1015B000002199541723FB1801221A701723FB18D6
:1015C0001B781800BD4606B080BDC046FEFF000077
:1015D000DCB8010880B584B000AF78607B681B6C14
:1015E0001B68FB607B681B681B68BB607B685B6C6F
:1015F0001C22134004229A401300FA68134026D09C
:10160000BB680422134022D07B681B681B68202221
:10161000134007D17B681B681A687B681B6804212C
:101620008A431A607B685B6C1C221A407B681B6CC7
:10163000042191400A005A607B681B6B002B00D18B
:1016400080E07B681B6B7A68100098477AE07B68C3
:101650005B6C1C22134002229A401300FA6813406C
:101660003CD0BB680222134038D07B681B681B68E3
:10167000202213400BD17B681B681A687B681B68AB
:101680000A218A431A607B682522012199547B68CC
:101690001B681A002E4B9A4209D97B685B6C1C228E
:1016A0001A402C4B022191400A005A6008E07B68E6
:1016B0005B6C1C221A40284B022191400A005A60A0
:1016C0007B682422002199547B68DB6A002B39D087
:1016D0007B68DB6A7A681000984733E07B685B6C54
:1016E0001C22134008229A401300FA6813402AD0A3
:1016F000BB680822134026D07B681B681A687B6889
:101700001B680E218A431A607B685B6C1C221A409E
:101710007B681B6C012191400A005A607B680122A2
:10172000DA637B682522012199547B6824220021F9
:1017300099547B685B6B002B05D07B685B6B7A6888
:1017400010009847C046C046BD4604B080BDC046A4
:1017500080000240000402400000024080B584B0D6
:1017600000AFF860B9607A603B60FB68DB6CFA68D8
:10177000126D5A60FB685B6D002B04D0FB689B6D9B
:10178000FA68D26D5A60FB685B6C1C221A40FB68D9
:101790001B6C012191400A005A60FB681B683A6883
:1017A0005A60FB689B68102B08D1FB681B687A683D
:1017B0009A60FB681B68BA68DA6007E0FB681B6820
:1017C000BA689A60FB681B687A68DA60C046BD46F2
:1017D00004B080BD80B584B000AF78607B681B68C2
:1017E0001A001D4B9A4214D87B685B6C9B089B00C7
:1017F0001A4A9A187B689A647B681B681A00FF2350
:101800001340083B14211800F4F77EF80300FB6036
:1018100014E07B685B6C9B089B00114A9A187B68FC
:101820009A647B681B681A00FF231340083B14214D
:101830001800F4F769F803000733FB607B68094A76
:10184000DA64FB681F22134001229A407B681A6504
:10185000C046BD4604B080BD0704024000080240F7
:101860001C0802408008024080B584B000AF786058
:101870007B685B687F221340FB60FB680A4A9446E2
:1018800063449B001A007B685A657B68074A9A6527
:10189000FB68013B0322134001229A407B68DA6512
:1018A000C046BD4604B080BD3F82001040090240E2
:1018B00080B584B000AF78607B68002B01D1012334
:1018C000C4E27B681B68C44A93420BD07B681B68E8
:1018D000C24A934206D095235A00C14B110018000A
:1018E000FBF73FFB7B681B68BB4A934247D17B6891
:1018F0005B68002B43D07B685B68012B3FD07B6823
:101900005B68022B3BD07B685B68032B37D07B681E
:101910005B68042B33D07B685B68052B2FD07B681A
:101920005B68062B2BD07B685B68072B27D07B6816
:101930005B68082B23D07B685B68092B1FD07B6812
:101940005B680A2B1BD07B685B680B2B17D07B680E
:101950005B680C2B13D07B685B680D2B0FD07B680A
:101960005B680E2B0BD07B685B680F2B07D02E2398
:10197000FF331A009A4B11001800FBF7F2FA7B684C
:101980009B68002B13D07B689A6880235B009A4287
:101990000DD07B689A68C0239B009A4207D0302301
:1019A000FF331A008E4B11001800FBF7DAFA7B6840
:1019B000DB68002B16D07B68DB68012B12D07B68BC
:1019C000DB68022B0ED07B68DB68032B0AD07B68B8
:1019D000DB68042B06D098235A00814B11001800B5
:1019E000FBF7BFFA7B681B7C002B0BD07B681B7C52
:1019F000012B07D03223FF331A00794B1100180056
:101A0000FBF7AFFA7B685B7C002B0AD07B685B7CC2
:101A1000012B06D099235A00714B11001800FBF7D7
:101A2000A0FA7B689B7C002B0BD07B689B7C012BF6
:101A300007D03423FF331A00694B11001800FBF75D
:101A400090FA7B685B69002B05D07B685A6980231C
:101A50009B009A4206D99A235A00614B1100180044
:101A6000FBF77FFA7B689B69002B03D07B689B693F
:101A7000802B07D93623FF331A00594B1100180069
:101A8000FBF76FFA7B68DB69002B05D07B68DA69AE
:101A900080235B009A4206D99B235A00504B1100C9
:101AA0001800FBF75EFA7B681B6A002B03D07B688B
:101AB0001B6A802B07D93823FF331A00484B1100CB
:101AC0001800FBF74EFA7B689A68C0239B009A4285
:101AD0003DD17B685B6A002B03D07B685B6A202B5F
:101AE00006D99D235A003E4B11001800FBF739FA26
:101AF0007B689B6A002B03D07B689B6A102B07D9FD
:101B00003C23FF331A00364B11001800FBF729FA6B
:101B10007B68DB6A002B03D07B68DB6A202B06D94D
:101B20009E235A002E4B11001800FBF71AFA7B680F
:101B30001B6B002B03D07B681B6B102B07D93E233C
:101B4000FF331A00264B11001800FBF70AFA7B68D6
:101B50005B6B1C2B07D94023FF331A00204B11006D
:101B60001800FBF7FEF97B689B6B082B06D9A023B6
:101B70005A001B4B11001800FBF7F3F97B68DB6B75
:101B8000002B0DD07B68DA6B80235B049A4207D070
:101B90004223FF331A00124B11001800FBF7E1F942
:101BA0007B685C229B5CDBB2002B07D17B685D22EB
:101BB000002199547B681800FAF778FF7B681B684E
:101BC0009A697B681B6810218A439A61FDF7B8FD0A
:101BD0000300FB6019E0C04600640040006800405C
:101BE00014B90108FDF7ACFD0200FB68D31A0A2BFB
:101BF0000BD97B681B6E01221A437B681A667B68CF
:101C00005C2203219954012320E17B681B689B69B6
:101C100008221340082BE5D07B681B689A697B6813
:101C20001B6801210A439A61FDF78AFD0300FB60EE
:101C300012E0FDF785FD0200FB68D31A0A2B0BD9D1
:101C40007B681B6E01221A437B681A667B685C22E4
:101C5000032199540123F9E07B681B689B690122E9
:101C60001340E6D07B681B689A697B681B68022179
:101C70000A439A617B681B68764A934203D1764A8D
:101C80007B685B6813607B681B7C012B08D17B68D9
:101C90001B689A697B681B6840218A439A6107E048
:101CA0007B681B689A697B681B6840210A439A61BC
:101CB0007B685B7C012B09D17B681B689A697B6818
:101CC0001B688021C9010A439A6107E07B681B6891
:101CD0009A697B681B6861490A409A617B689B7CB2
:101CE000012B08D17B681B689A697B681B685C497B
:101CF0000A409A6108E07B681B689A697B681B68E8
:101D0000802149010A439A617B681B689B69554A97
:101D1000134019007B689A687B681B680A439A61C4
:101D20007B681B689A697B681B68A4218A439A6157
:101D30007B681B681A697B681B6810218A431A61DB
:101D40007B68DB68012B08D17B681B689A697B681C
:101D50001B6804210A439A612CE07B68DB68002B36
:101D600028D07B68DB68022B1CD07B681B689A69D3
:101D70007B681B6880210A439A617B681B681A692B
:101D80007B681B6810210A431A617B68DB68032BA0
:101D900010D17B681B689A697B681B6820210A4305
:101DA0009A6107E07B681B689A697B681B68202141
:101DB0000A439A617B689B69013B5A067B68DB6931
:101DC000013B1B021A437B681B6A013B1A4311004B
:101DD0007B685B69013B1A047B681B680A43DA6114
:101DE0007B689A68C0239B009A4215D17B689B6AE6
:101DF0005A1E7B68DB6A013B1B021A437B681B6B24
:101E0000013B1B011A4311007B685B6A013B1A040A
:101E10007B681B680A43DA607B681B68C02299589C
:101E20007B68DA6B7B681B680A43C0215A507B6869
:101E3000180000F0EBFE7B6800229A657B680022A8
:101E40001A667B685C220121995400231800BD4664
:101E500004B080BD0064004000650040FFBFFFFF8C
:101E6000FFEFFFFFFFFCFFFF80B586B000AF78609B
:101E7000396017203B187A685C21525C1A700200A6
:101E8000BB181B78012B04D0BB181B78022B00D089
:101E9000E2E03B681B68002B0BD03B681A6880238C
:101EA000DB059A4205D0724A724B11001800FBF70D
:101EB00058F83B68DB68002B1DD03B68DB68012BC2
:101EC00019D03B68DB68022B15D03B68DB68032B1D
:101ED00011D03B68DB68042B0DD03B68DB68052B19
:101EE00009D03B68DB68062B05D0634A614B1100C3
:101EF0001800FBF736F83B681B68002B51D13B6894
:101F00005A687B685B6B013B9A4205D95B4A594B27
:101F100011001800FBF725F83B681A6980231B01A4
:101F20009A4206D3A423DA00524B11001800FBF7A3
:101F300018F83B685A6980231B019A4205D3504A1E
:101F40004C4B11001800FBF70CF83B689B68002B0A
:101F50000DD03B689B68012B09D03B689B68022B26
:101F600005D0484A434B11001800FAF7FAFF3B68C6
:101F70009B689A073B68DB68DB061A433B681B6972
:101F80001B041A433B685B6913433B617B681A6C13
:101F90003B685B689B00D318BB60BB683A691A60FA
:101FA00058E03B685A687B689B6B013B9A4205D9B5
:101FB000354A304B11001800FAF7D3FF3B681A6915
:101FC00080239B059A4205D3304A2A4B1100180002
:101FD000FAF7C7FF3B685A6980239B059A4205D3ED
:101FE0002B4A244B11001800FAF7BBFF3B689B6893
:101FF000002B11D03B689B68012B0DD03B689B6880
:10200000022B09D03B689B68032B05D0214A194B52
:1020100011001800FAF7A5FF3B68DB685A073B6818
:102020001B6913433B613B689B689A073B685B698C
:102030001343FB607B685A6C3B685B68DB00D3181A
:10204000BB60BB683A691A60BB680433BB60BB689D
:10205000FA681A60002306E07B681B6E02221A43AE
:102060007B681A6601231800BD4606B080BDC046D5
:102070001905000014B901081A0500001F05000029
:102080002105000022050000330500003405000092
:10209000350500003605000080B584B000AFF8605B
:1020A000B9607A603B60BB68002B0BD0BB68012B2A
:1020B00008D0BB68022B05D02A4A2B4B1100180010
:1020C000FAF74FFF7B68002B0BD07B68012B08D001
:1020D0007B68022B05D0254A234B11001800FAF724
:1020E00040FF3B68002B08D03B68012B05D0204AFD
:1020F0001D4B11001800FAF734FFBB69002B08D004
:10210000BB69012B05D01B4A174B11001800FAF7C9
:1021100028FFFB685C229B5CDBB2012B17D1FB68BC
:102120001B6880229B583F2293431900BB681A0109
:102130007B689B001A433B685B001A43BB691A43E8
:10214000FB681B680A4380215A50002306E0FB68A5
:102150001B6E04221A43FB681A6601231800BD4651
:1021600004B080BD6A05000014B901086B050000C9
:102170006C0500006D05000080B584B000AFF8600C
:10218000B9607A60BB687F2B05D9144A144B1100E3
:102190001800FAF7E6FE7B687F2B05D9114A104B31
:1021A00011001800FAF7DDFEFB685C229B5CDBB2D5
:1021B000012B08D1BB681902FB681B687A680A43C7
:1021C0009A64002306E0FB681B6E04221A43FB6836
:1021D0001A6601231800BD4604B080BDF206000057
:1021E00014B90108F306000080B582B000AF786032
:1021F0007B685C229B5CDBB2012B0AD17B681B688D
:10220000DA687B681B68802109040A43DA600023CE
:1022100006E07B681B6E04221A437B681A66012362
:102220001800BD4602B080BD80B582B000AF7860B6
:102230007B685C229B5CDBB2012B10D17B685C224B
:10224000022199547B681B689A697B681B6801218D
:102250008A439A617B6800221A66002306E07B6845
:102260001B6E04221A437B681A6601231800BD46C0
:1022700002B080BD80B586B000AFF860B9607A600A
:10228000BB685B68002B0CD0BB685A688023DB05F9
:102290009A4206D084231A018F4B11001800FAF7D6
:1022A00060FEBB685B68002B0CD1BB681A6880239A
:1022B0001B019A4212D3894A874B11001800FAF782
:1022C00050FE0BE0BB681A6880239B059A4205D339
:1022D000834A814B11001800FAF743FEBB689B68E4
:1022E000002B0BD0BB689A6880239B059A4205D0CF
:1022F0007C4A794B11001800FAF733FEBB68DB68A3
:10230000002B5FD0BB68DA6880235B029A4259D009
:10231000BB68DA6880239B029A4253D0BB68DA68B4
:10232000C0239B029A424DD0BB68DA688023DB024F
:102330009A4247D0BB68DA68A023DB029A4241D0B8
:10234000BB68DA68C023DB029A423BD0BB68DA681C
:10235000E023DB029A4235D0BB68DA6880231B0396
:102360009A422FD0BB68DA6890231B039A4229D087
:10237000BB68DA68A0231B039A4223D0BB68DA68E3
:10238000B0231B039A421DD0BB68DA68C0231B032D
:102390009A4217D0BB68DA68D0231B039A4211D047
:1023A000BB68DA68E0231B039A420BD0BB68DA688B
:1023B000F0231B039A4205D04B4A474B11001800EB
:1023C000FAF7CFFDBB681B69002B0BD0BB681A69FD
:1023D00080231B069A4205D0444A3F4B1100180047
:1023E000FAF7BFFDBB685B69002B0BD0BB685A696D
:1023F00080235B039A4205D03D4A374B11001800F9
:10240000FAF7AFFDBB689B69002B0BD0BB689A69DC
:1024100080239B039A4205D0364A2F4B11001800A7
:10242000FAF79FFDBB68DB69002B0BD0BB68DA694C
:1024300080231B049A4205D02F4A274B1100180015
:10244000FAF78FFDBB681B6AFF2B05D92B4A224B7D
:1024500011001800FAF785FDFB685C229B5CDBB27B
:10246000022B2DD1FB681B68C4229A5880239B0342
:10247000134008D0FB681B6E802292001A43FB6851
:102480001A66012323E0FB681B68C4229B581B0CBF
:10249000032213407B617B697A68B968F86800F0B1
:1024A00021FCFB681B6801217A6991400A00CC215C
:1024B0005A5001227B699A40FB689A65002306E026
:1024C000FB681B6E08221A43FB681A66012318007A
:1024D000BD4606B080BDC04614B9010843080000DF
:1024E00047080000490800004A0800004B080000A7
:1024F0004C0800004D0800004E0800004F08000086
:1025000080B58AB000AFF860B9607A603B601B2389
:10251000FB18FA685C21525C1A70BB68402B08D02B
:10252000BB68412B05D06C4A6C4B11001800FAF7C0
:1025300018FD1B23FB181B78022B00D0C1E0BB68E1
:10254000402B21D1FB681B6890229B580F2213401F
:1025500008D1FB681B6E802252001A43FB681A6682
:102560000123B5E0FB681B6890229B581B0A0322DD
:102570001340FB61FB68996CFA691300DB009B1840
:10258000DB00CB187B6220E0FB681B6898229B581D
:102590000F22134008D1FB681B6E802252001A43A1
:1025A000FB681A66012393E0FB681B6898229B581E
:1025B0001B0A03221340FB61FB68D96CFA69130004
:1025C000DB009B18DB00CB187B627B6A1A688023D8
:1025D000DB051A407B685A607B685B68002B07D17B
:1025E0007B6A1B689B0C5B055A0D7B681A6005E0D3
:1025F0007B6A1B68DB00DA087B681A607B6A1A68F2
:1026000080239B051A407B689A607B6A1B68DB0FFE
:10261000DA077B681A617B6A04337B627B6A1B681A
:102620001B041A0C7B68DA617B6A1A68F0231B03AF
:102630001A407B68DA607B6A1A6880235B031A4061
:102640007B685A617B6A1A6880239B031A407B6807
:102650009A617B6A1B681B0E7F221A407B681A6294
:102660007B6A1B68DA0F7B685A627B6A04337B6281
:102670007B6A7B6100233B620AE07A693B6AD2187D
:1026800039683B6ACB1812781A703B6A01333B6297
:102690007B68DB681B0C124AD35C1A003B6A9342CE
:1026A000EBD3BB68402B05D1FB681B689421FA690A
:1026B0005A5004E0FB681B689C21FA695A500023B9
:1026C00006E0FB681B6E08221A43FB681A660123AA
:1026D0001800BD460AB080BDB608000014B9010854
:1026E00050BE010880B586B000AFF860B9607A606E
:1026F0001723FB18FA685C21525C1A70BB681B0E2A
:102700001B0605D0704A714B11001800FAF729FC1E
:10271000BA68C0235B0013400BD07B68002B02D04B
:102720007B68072B05D96A4A684B11001800FAF735
:1027300018FC1722BB181B78012B04D0BB181B7880
:10274000022B00D0B4E0FB681B689B6D3B61BB684B
:102750000722134003D03B690122134034D0BB68E9
:102760003822134003D03B69022213402CD0BA68B0
:10277000E0235B00134003D03B690422134023D0C5
:10278000BA68F0235B01134003D03B690822134071
:102790001AD0BA68E0231B02134003D03B69102211
:1027A000134011D0BA68C0239B02134003D03B6989
:1027B0002022134008D0BA68FC231B0413400BD01E
:1027C0003B694022134007D1FB681B68DA6DFB6848
:1027D0001B6801210A43DA65BB680722134003D056
:1027E0003B690122134034D1BB683822134003D027
:1027F0003B69022213402CD1BA68E0235B001340EE
:1028000003D03B690422134023D1BA68F0235B0153
:10281000134003D03B69082213401AD1BA68E02361
:102820001B02134003D03B691022134011D1BA6838
:10283000C0239B02134003D03B692022134008D1E0
:10284000BA68FC231B0413400BD03B6940221340A1
:1028500007D0FB681B68DA6DFB681B6802210A431E
:10286000DA65BB688022134009D0FB681B68DC2254
:102870009958FB681B687A680A43DC215A50BA6889
:1028800080235B00134009D0FB681B68E022995845
:10289000FB681B687A680A43E0215A50FB681B6892
:1028A000596DFB681B68BA680A435A65002306E045
:1028B000FB681B6E02221A43FB681A66012318008C
:1028C000BD4606B080BDC046890A000014B90108A3
:1028D0008C0A000080B58CB000AF78607B681B6804
:1028E0001A6DE0235B011340FB627B681B685A6D25
:1028F000FB6A1340FB627B681B681B6D0722134059
:10290000BB627B681B685A6DBB6A1340BB627B6805
:102910001B681B6D382213407B627B681B685A6DF5
:102920007B6A13407B627B681B681A6DF1231B0472
:1029300013403B627B681B685A6D3B6A13403B62E5
:102940007B681B681A6DE0231B031340FB617B68E7
:102950001B685A6DFB691340FB617B681B685B6DEC
:10296000BB617B681B681B6D7B617B699B091A00DF
:10297000012313400DD0BB699B091A0001231340AA
:1029800007D07B681B6840221A657B68180000F03E
:1029900024F97B691B0A1A00012313401CD0BB6970
:1029A0001B0A1A000123134016D07B681B68D8222B
:1029B0009B583B617B681B68E0229A583B69134037
:1029C0003B617B681B68802252001A653A697B680C
:1029D0001100180000F0E8F8FB6A002B09D07B68B2
:1029E0001B68FA6A1A65FA6A7B681100180000F021
:1029F000B8F8BB6A002B09D07B681B68BA6A1A65F5
:102A0000BA6A7B6811001800F8F708FC7B6A002B93
:102A100009D07B681B687A6A1A657A6A7B6811003C
:102A2000180000F0A7F87B695B0A1A000123134025
:102A30000ED0BB695B0A1A000123134008D07B68E3
:102A40001B68802292001A657B68180000F09BF8D2
:102A50007B69DB091A00012313401BD0BB69DB092A
:102A60001A000123134015D07B681B68D4229B58A1
:102A7000FB607B681B68DC229A58FB681340FB6094
:102A80007B681B6880221A65FA687B681100180051
:102A900000F081F87B695B0B1A00012313400ED014
:102AA000BB695B0B1A000123134008D07B681B68CD
:102AB000802292011A657B68180000F07EF87B691D
:102AC000DB0B1A00012313400ED0BB69DB0B1A008D
:102AD0000123134008D07B681B68802212021A650C
:102AE0007B68180000F071F87B699B0B1A000123CA
:102AF000134010D0BB699B0B1A00012313400AD06E
:102B00007B681B688022D2011A657B681B6E80225D
:102B10001A437B681A66FB69002B09D07B681B6827
:102B2000FA691A65FA697B681100180000F065F807
:102B30003B6A002B09D07B681B683A6A1A657B6880
:102B40001A6E3B6A1A437B681A667B681B6E002B01
:102B500003D07B68180000F048F8C046BD460CB0B2
:102B600080BD80B582B000AF78603960C046BD4698
:102B700002B080BD80B582B000AF78603960C046D9
:102B8000BD4602B080BD80B582B000AF7860C0465F
:102B9000BD4602B080BD80B582B000AF78603960BC
:102BA000C046BD4602B080BD80B582B000AF78603F
:102BB0003960C046BD4602B080BD80B582B000AF6E
:102BC0007860C046BD4602B080BD80B582B000AF1F
:102BD0007860C046BD4602B080BD80B582B000AF0F
:102BE0007860C046BD4602B080BD80B582B000AFFF
:102BF0007860C046BD4602B080BD80B582B000AFEF
:102C000078603960C046BD4602B080BD80B584B0F2
:102C100000AF78602F4BBB607B681B682E4A9342E5
:102C200005D1BB68D422920094466344BB607B68A4
:102C3000BA681A647B681B6880229B58274A134035
:102C400019007B685B6B1A047B681B680A43802150
:102C50005A50BB6870331A007B685A647B681B68E3
:102C600080229B581E4A134019007B689B6B1A06F2
:102C70007B681B680A4380215A50BB68B0331A0036
:102C80007B689A64BB688933FF331A007B68DA6417
:102C9000BB68982292009A187B681A65BB689E22CE
:102CA00092009A187B685A65BB68FB6005E0FB6878
:102CB00000221A60FB680433FB60BB68D4229200D8
:102CC00094466344FA689A42F1D3C046C046BD4672
:102CD00004B080BD00B4004000680040FFFFE0FF8A
:102CE000FFFFFFF080B588B000AFF860B9607A6090
:102CF0003B60BB685B68002B0AD1BB681A69BB6884
:102D00009B681A43BB681B689B041343FB610BE081
:102D1000BB681A69BB689B681A43BB681B6813438E
:102D20008022D2051343FB61BB681B6A1A06BB688D
:102D3000DB691A43BB689B691A43BB685B691A432A
:102D4000BB68DB6813433B61FB68596D3A6813004D
:102D5000DB009B18DB00CB18BB61BB69FA691A600A
:102D6000BB690433BB61BB693A691A60BB69043350
:102D7000BB6100237B6120E07B6903337A68D31851
:102D80001B781A067B6902337968CB181B781B0401
:102D90001A437B6901337968CB181B781B021343F4
:102DA00079687A698A1812781A43BB691A60BB6914
:102DB0000433BB617B6904337B61BB68DB681B0C3C
:102DC000054AD35C1A007B699342D5D3C046C046FE
:102DD000BD4608B080BDC04650BE010880B586B073
:102DE00000AF7860396000237B617A68A023DB053F
:102DF0009A4218D07B68D24A934214D07B68D14A59
:102E0000934210D07B68D04A93420CD07B68CF4A63
:102E1000934208D07B68CE4A934204D0CD4BA9217F
:102E20001800FAF79EF83B681B681B041B0C04D0C3
:102E30003B681B681B0C1B0404D0C64BAA2118005E
:102E4000FAF78FF83B685B68002B00D1F1E13B6833
:102E50005B68012B00D1ECE13B685B68112B00D172
:102E6000E7E13B685B68022B00D1E2E13B685B680D
:102E7000122B00D1DDE13B685A6888235B039A423C
:102E800000D1D6E13B685A6884239B039A4200D163
:102E9000CFE13B685A68C4239B039A4200D1C8E142
:102EA0003B685A6890235B039A4200D1C1E13B68BA
:102EB0005A6888239B039A4200D1BAE13B685A685A
:102EC000C8239B039A4200D1B3E13B685B68032BA4
:102ED00000D1AEE19F4BAB211800FAF742F8A8E110
:102EE0003B681B6801217A6991400A001340FB602E
:102EF000FB68002B00D199E13B685B68032213401B
:102F0000012B05D03B685B6803221340022B45D19F
:102F10003B68DB68002B10D03B68DB68012B0CD0D2
:102F20003B68DB68022B08D03B68DB68032B04D0CE
:102F3000884BBA211800FAF714F87B689B683B614C
:102F40007B695B0003229A401300DA433B6913401C
:102F50003B613B68DA687B695B009A4013003A6921
:102F600013433B617B683A699A607B685B683B61AD
:102F700001227B699A401300DA433B6913403B61AD
:102F80003B685B681B0901221A407B699A40130069
:102F90003A6913433B617B683A695A603B685B68F6
:102FA00003221340032B28D03B689B68002B0CD0D6
:102FB0003B689B68012B08D03B689B68022B04D0C0
:102FC000644BCC211800F9F7CCFF7B68DB683B61D0
:102FD0007B695B0003229A401300DA433B6913408C
:102FE0003B613B689A687B695B009A4013003A69D1
:102FF00013433B617B683A69DA603B685B68032294
:103000001340022B4AD17A68A023DB059A4218D0DC
:103010007B684B4A934214D07B684A4A934210D053
:103020007B68494A93420CD07B68484A934208D057
:103030007B68474A934204D0464BD9211800F9F7E0
:1030400090FF3B681B690A2B04D9424BDA21180018
:10305000F9F787FF7B69DA087B6808329200D3585A
:103060003B617B69072213409B000F229A401300AB
:10307000DA433B6913403B613B681A697B6907216E
:103080000B409B009A4013003A6913433B617B69F4
:10309000DA087B68083292003969D1507B681B6876
:1030A0003B617B695B0003229A401300DA433B6972
:1030B00013403B613B685B6803221A407B695B00FD
:1030C0009A4013003A6913433B617B683A691A607E
:1030D0003B685A68C0239B02134000D1A6E01E4AF9
:1030E0007B699B0818339B009B583B617B690322DB
:1030F0001340DB000F229A401300DA433B69134070
:103100003B617A68A023DB059A4227D07B680C4A92
:10311000934213D07B680B4A93420DD07B680A4AD6
:10312000934207D07B68094A934201D1042316E0F9
:10313000052314E0032312E0022310E001230EE034
:103140000004005000080050000C00500010005017
:103150000014005050B901080018024000237A6999
:1031600003210A40D20093403A6913433B61374937
:103170007B699B0818339B003A695A50334B1B6894
:103180003B61FB68DA433B6913403B613B685A682B
:1031900080235B03134003D03A69FB6813433B6110
:1031A0002A4B3A691A60294B5B683B61FB68DA433A
:1031B0003B6913403B613B685A6880239B03134083
:1031C00003D03A69FB6813433B61204B3A695A606C
:1031D0001E4A8423D3583B61FB68DA433B691340A2
:1031E0003B613B685A6880239B02134003D03A69D5
:1031F000FB6813433B61154984223B698B50134A9A
:103200008023D3583B61FB68DA433B6913403B6141
:103210003B685A6880235B02134003D03A69FB681D
:1032200013433B61094980223B698B507B69013321
:103230007B613B681A687B69DA40131E00D04FE659
:10324000C046C046BD4606B080BDC046001802401C
:1032500080B584B000AF78600A00BB1C1A80BB1C2C
:103260001B88002B04D0BB1C1B881B0C1B0407D025
:103270007823FF331A000D4B11001800F9F771FE87
:103280007B681B69BA1C1288134004D00F23FB18FB
:1032900001221A7003E00F23FB1800221A700F237B
:1032A000FB181B781800BD4604B080BD50B901085A
:1032B00080B582B000AF786008001100BB1C021C12
:1032C0001A807B1C0A1C1A70BB1C1B88002B04D0A4
:1032D000BB1C1B881B0C1B0407D09823FF331A0050
:1032E000124B11001800F9F73CFE7B1C1B78002BD9
:1032F0000AD07B1C1B78012B06D0CC235A000B4B29
:1033000011001800F9F72DFE7B1C1B78002B04D050
:10331000BB1C1A887B689A6103E0BB1C1A887B6817
:103320009A62C046BD4602B080BDC04650B9010891
:1033300080B584B000AF78600A00BB1C1A80BB1C4B
:103340001B88002B04D0BB1C1B881B0C1B0406D045
:10335000D8235A000C4B11001800F9F702FE7B68C5
:103360005B69FB60BB1C1B88FA6813401A04FB688E
:10337000DB43B91C09880B401A437B689A61C0463D
:10338000BD4604B080BDC04650B9010880B582B0CA
:1033900000AF0200BB1D1A80104BDB68BA1D1288FB
:1033A000134008D00D4BBA1D1288DA60BB1D1B8874
:1033B000180005F057FA094B1B69BA1D1288134013
:1033C00008D0064BBA1D12881A61BB1D1B88180055
:1033D00000F006F8C046BD4602B080BD00180240AD
:1033E00080B582B000AF0200BB1D1A80C046BD464A
:1033F00002B080BD80B584B000AF78607B68002BE0
:1034000001D101237EE07B681B68404A934204D0CF
:103410003F4BB5211800F9F7A4FD7B685B68002BD2
:103420001CD07B685B68012B18D07B685B68022B23
:1034300014D07B685B68032B10D07B685B68042B1F
:103440000CD07B685B68052B08D07B685B68062B1B
:1034500004D02F4BB6211800F9F783FD7B689A68DA
:1034600080235B019A4204D3294BB7211800F9F756
:1034700078FD7B68DA6880235B019A4204D3244B91
:10348000B8211800F9F76DFD7B681B68214A1A60A6
:103490007B681B68204A1A607B681B687A685268E0
:1034A0005A607B681B687A6892689A60FCF748F9F2
:1034B0000300FB600EE0FCF743F90200FB68D31A3F
:1034C000312B07D97B681B68DB680722134001D0CA
:1034D000032317E07B681B68DB6807221340EAD1EF
:1034E0007B681B681A697B68DB689A4205D07B6839
:1034F0001B687A68D2681A6103E07B681B68074A18
:103500001A6000231800BD4604B080BD00300040A2
:103510008CB90108CCCC000055550000AAAA0000C7
:1035200080B582B000AF78607B681B68034A1A6080
:1035300000231800BD4602B080BDC046AAAA000004
:1035400080B584B000AF78607A6880239B009A428F
:103550000AD07A688023DB009A4205D01C4A1D4BB2
:1035600011001800F9F7FDFC1B4B1B681B4A1340A8
:103570001900194B7A680A431A607A6880239B0005
:103580009A421FD1164B1A6813005B009B185B0010
:1035900014491800F2F7B8F903000133FB6008E0A2
:1035A000FB68002B03D0FB68013BFB6001E00323B9
:1035B00009E0094B5A698023DB001A408023DB00B5
:1035C0009A42EDD000231800BD4604B080BDC0462D
:1035D000FE020000C8B9010800700040FFF9FFFFBB
:1035E0008000002040420F0080B500AF034B9A6876
:1035F000E023DB0113401800BD4680BD00100240EF
:1036000080B588B000AF78607B68002B02D10123C1
:1036100000F0AFFC7B681B68002B20D07B681B6828
:10362000012213401BD17B681B680222134016D174
:103630007B681B682022134011D17B681B6808221D
:1036400013400CD17B681B680422134007D144232C
:10365000FF331A00CA4B11001800F9F782FC7B688F
:103660001B680122134000D19CE07B685B68002B43
:1036700013D07B685A6880235B029A420DD07B6826
:103680005A68A023DB029A4207D04A23FF331A006C
:10369000BB4B11001800F9F764FCBA4B9B68382249
:1036A0001340BB61B74BDB68032213407B61BB69EE
:1036B000102B02D17B69032B02D0BB69082B0DD1E3
:1036C000B04B1A6880239B02134000D169E07B68ED
:1036D0005B68002B65D1012300F04BFC7B685A68C6
:1036E00080235B029A4207D1A64B1A68A54B802122
:1036F00049020A431A6020E07B685A68A023DB0273
:103700009A420ED19F4B1A689E4B8021C9020A43F0
:103710001A609C4B1A689B4B802149020A431A602D
:103720000BE0984B1A68974B97490A401A60954BE3
:103730001A68944B95490A401A607B685B68002BB5
:1037400017D0FBF7FDFF03003B610BE0FBF7F8FF31
:1037500002003B69D21AFA235B009A4202D9032382
:1037600000F007FC874B1A6880239B021340EDD0C2
:1037700018E0FBF7E5FF03003B610BE0FBF7E0FF20
:1037800002003B69D21AFA235B009A4202D9032352
:1037900000F0EFFB7B4B1A6880239B021340EDD1B6
:1037A00000E0C0467B681B680222134000D103E1A1
:1037B0007B68DB68002B0DD07B68DA6880235B00B8
:1037C0009A4207D08023FF331A006D4B1100180076
:1037D000F9F7C7FB7B685B697F2B06D9C0235A00CA
:1037E000674B11001800F9F7BCFB7B681B69002BC5
:1037F00031D07B681A6980231B019A422BD07B68E9
:103800001A6980235B019A4225D07B681A69C0231C
:103810005B019A421FD07B681A6980239B019A4200
:1038200019D07B681A69A0239B019A4213D07B6848
:103830001A69C0239B019A420DD07B681A69E02364
:103840009B019A4207D08223FF331A004C4B110090
:103850001800F9F786FB4B4B9B6838221340BB617D
:10386000484BDB68032213407B61BB69102B02D1FC
:103870007B69022B02D0BB69002B37D1414B1A6800
:103880008023DB00134006D07B68DB68002B02D16D
:10389000012300F06EFB3B4B5B683D4A134019006F
:1038A0007B685B691A02374B0A435A60BB69002B7D
:1038B00012D1344B1B68374A134019007B681A69D0
:1038C000304B0A431A602F4B1B68DB0A0722134058
:1038D000314ADA40314B1A60314B1B681800F9F756
:1038E00079FB031E67D0012300F043FB7B68DB6894
:1038F000002B30D0234B1B68264A134019007B68ED
:103900001A69204B0A431A601E4B1A681D4B80210E
:1039100049000A431A60FBF713FF03003B6108E00C
:10392000FBF70EFF02003B69D31A022B01D90323D8
:103930001FE3144B1A688023DB001340F0D0114BB7
:103940005B68134A134019007B685B691A020D4BD0
:103950000A435A6030E00B4B1A680A4B11490A407F
:103960001A60FBF7EDFE03003B611DE0FBF7E8FE8C
:1039700002003B69D31A022B16D90323F9E2C04691
:1039800004BA010800100240FFFFFEFFFFFFFBFF2B
:10399000FF80FFFFFFC7FFFF0024F400800000202E
:1039A00094000020FFFEFFFFBD4B1A688023DB0060
:1039B0001340DBD100E0C0467B681B68082213403F
:1039C00057D07B689B69002B0BD07B689B69012BD0
:1039D00007D0D623FF331A00B24B11001800F9F7B5
:1039E000C0FAAF4B9B6838221340182B0AD1AC4B5E
:1039F0001B6E022213403CD07B689B69002B38D1A0
:103A00000123B6E27B689B69002B19D0A44B1A6E88
:103A1000A34B01210A431A66FBF792FE03003B61A8
:103A200008E0FBF78DFE02003B69D31A022B01D997
:103A300003239EE29A4B1B6E02221340F1D018E042
:103A4000974B1A6E964B01218A431A66FBF778FE54
:103A500003003B6108E0FBF773FE02003B69D31AE9
:103A6000022B01D9032384E28D4B1B6E02221340EB
:103A7000F1D17B681B680422134000D1C6E01F23EC
:103A8000FB1800221A707B689B68002B0DD07B68A6
:103A90009B68012B09D07B689B68052B05D0824A67
:103AA000804B11001800F9F75CFA7D4B9B683822B7
:103AB0001340202B0CD17A4BDB6D0222134000D136
:103AC000A4E07B689B68002B00D09FE0012350E2BC
:103AD000734BDA6B80235B05134001D1012300E0B7
:103AE0000023002B11D06E4BDA6B6D4B8021490502
:103AF0000A43DA636A4BDA6B80235B051340FB6091
:103B0000FB681F23FB1801221A70684B1A68802378
:103B10005B0013401AD1654B1A68644B8021490041
:103B20000A431A60FBF70CFE03003B6108E0FBF759
:103B300007FE02003B69D31A022B01D9032318E2C6
:103B40005A4B1A6880235B001340F0D07B689B6857
:103B5000012B06D1524BDA6D514B01210A43DA6534
:103B60001CE07B689B68052B0CD14D4BDA6D4C4BF0
:103B700004210A43DA654A4BDA6D494B01210A43B5
:103B8000DA650BE0464BDA6D454B01218A43DA6575
:103B9000434BDA6D424B04218A43DA657B689B68AC
:103BA000002B14D0FBF7CCFD03003B6109E0FBF7D1
:103BB000C7FD02003B69D31A3D4A934201D9032352
:103BC000D7E1374BDB6D02221340F0D013E0FBF757
:103BD000B7FD03003B6109E0FBF7B2FD02003B6962
:103BE000D31A334A934201D90323C2E12C4BDB6D34
:103BF00002221340F0D11F23FB181B78012B05D1A3
:103C0000274BDA6B264B2B490A40DA637B681B682B
:103C1000202213405AD07B68DB69002B0BD07B68D5
:103C2000DA698023DB039A4205D0234A1D4B110039
:103C30001800F9F796F97B68DB69002B1BD0184B4D
:103C40001A68174B8021C9030A431A60FBF778FDF5
:103C500003003B6108E0FBF773FD02003B69D31AE8
:103C6000022B01D9032384E10D4B1A6880231B0426
:103C70001340F0D02AE00A4B1A68094B0F490A405A
:103C80001A60FBF75DFD03003B6119E0FBF758FD8F
:103C900002003B69D31A022B12D9032369E1C04603
:103CA0000010024004BA01080D020000007000403C
:103CB00088130000FFFFFFEF5F020000FFFFBFFF60
:103CC000AE4B1A6880231B041340DFD17B681B6A4C
:103CD000002B0ED07B681B6A012B0AD07B681B6A05
:103CE000022B06D0A2239A00A54B11001800F9F769
:103CF00038F97B681B6A002B00D139E19F4B9B6828
:103D000038221340102B00D1F9E07B681B6A022B8C
:103D100000D0D3E07B685B6A002B0DD07B685B6AC8
:103D2000022B09D07B685B6A032B05D0954A944B24
:103D300011001800F9F715F97B689B6A002B21D058
:103D40007B689B6A102B1DD07B689B6A202B19D047
:103D50007B689B6A302B15D07B689B6A402B11D007
:103D60007B689B6A502B0DD07B689B6A602B09D0C7
:103D70007B689B6A702B05D0834A814B1100180029
:103D8000F9F7EFF87B68DB6A072B03D97B68DB6AFE
:103D9000562B06D9A5239A00794B11001800F9F784
:103DA000E0F87B681A6B80239B029A4205D37B68FC
:103DB0001A6BF8239B039A4205D9744A704B110081
:103DC0001800F9F7CEF87B685A6B80239B049A425F
:103DD00005D37B685A6BE0231B059A4205D96C4AD0
:103DE000674B11001800F9F7BCF87B689A6B8023C9
:103DF0009B059A4205D37B689A6BE0231B069A4287
:103E000005D9644A5E4B11001800F9F7AAF85B4B1C
:103E10001A685A4B60490A401A60FBF791FC03008C
:103E20003B6108E0FBF78CFC02003B69D31A022BD4
:103E300001D903239DE0514B1A6880239B04134052
:103E4000F0D14E4BDB68554A134019007B685A6A23
:103E50007B689B6A1A437B68DB6A1B021A437B6898
:103E60001B6B1A437B685B6B1A437B689B6B1A4323
:103E7000424B0A43DA60414B1A68404B80214904A7
:103E80000A431A603D4BDA683C4B802149050A43DE
:103E9000DA60FBF755FC03003B6108E0FBF750FCE0
:103EA00002003B69D31A022B01D9032361E0334B93
:103EB0001A6880239B041340F0D059E02F4B1A68F6
:103EC0002E4B35490A401A60FBF73AFC03003B6170
:103ED00008E0FBF735FC02003B69D31A022B01D93D
:103EE000032346E0254B1A6880239B041340F0D13E
:103EF000224BDA68214B2A490A40DA6038E07B68B5
:103F00001B6A012B01D1012333E01C4BDB687B6171
:103F10007B6903221A407B685B6A9A4226D17B69DF
:103F200070221A407B689B6A9A421FD17A69FE23ED
:103F3000DB011A407B68DB6A1B029A4216D17A6960
:103F4000F8239B031A407B681B6B9A420ED17A6957
:103F5000E0231B051A407B685B6B9A4206D17B69A4
:103F60005B0F5A077B689B6B9A4201D0012300E0EC
:103F700000231800BD4608B080BDC04600100240B6
:103F800004BA0108920200009302000095020000AA
:103F90009702000099020000FFFFFFFE8C80C11114
:103FA000FCFFFEEE80B584B000AF786039607B68BE
:103FB000002B01D1012380E17B681B68072213409D
:103FC00004D07B681B680722934305D0BD4ABE4BD3
:103FD00011001800F8F7C5FF3B68002B0BD03B68B9
:103FE000012B08D03B68022B05D0B84AB64B110014
:103FF0001800F8F7B6FFB64B1B68072213403A6863
:104000009A421ED9B24B1B68072293431900B04B4A
:104010003A680A431A60FBF793FB0300FB6009E070
:10402000FBF78EFB0200FB68D31AAA4A934201D920
:10403000032342E1A64B1B68072213403A689A42C9
:10404000EED17B681B68022213404FD07B681B684F
:104050000422134006D0A04B9A689F4BE021C9016F
:104060000A439A607B689B68002B35D07B689A680E
:1040700080231B019A422FD07B689A6890231B01F2
:104080009A4229D07B689A68A0231B019A4223D0C8
:104090007B689A68B0231B019A421DD07B689A689E
:1040A000C0231B019A4217D07B689A68D0231B015A
:1040B0009A4211D07B689A68E0231B019A420BD088
:1040C0007B689A68F0231B019A4205D0834A7E4B95
:1040D00011001800F8F745FF7F4B9B68804A13409A
:1040E00019007B689A687C4B0A439A607B681B685E
:1040F0000122134000D171E07B685B68002B15D072
:104100007B685B68012B11D07B685B68042B0DD04A
:104110007B685B68032B09D07B685B68022B05D04A
:10412000704A694B11001800F8F71BFF7B685B6849
:10413000012B07D1684B1A6880239B0213402BD1B7
:104140000123BAE07B685B68022B07D1624B1A68D7
:1041500080239B0413401FD10123AEE07B685B6882
:10416000002B07D15C4B1A688023DB00134013D16E
:104170000123A2E07B685B68032B06D1564B1B6EC4
:104180000222134008D1012397E0534BDB6D02223A
:10419000134001D1012390E04F4B9B6807229343CA
:1041A00019007B685A684C4B0A439A60FBF7C8FABF
:1041B0000300FB6009E0FBF7C3FA0200FB68D31AB7
:1041C000444A934201D9032377E0434B9B6838224A
:1041D0001A407B685B68DB009A42ECD13C4B1B6861
:1041E000072213403A689A421ED2394B1B680722B5
:1041F00093431900364B3A680A431A60FBF7A0FA5A
:104200000300FB6009E0FBF79BFA0200FB68D31A8E
:10421000304A934201D903234FE02D4B1B680722FC
:1042200013403A689A42EED17B681B68042213401F
:104230002CD07B68DB68002B1ED07B68DA6880237B
:10424000DB019A4218D07B68DA68A023DB019A422E
:1042500012D07B68DA68C023DB019A420CD07B68FD
:10426000DA68E023DB019A4206D0EC239A00164B71
:1042700011001800F8F775FE174B9B681A4A134097
:1042800019007B68DA68144B0A439A6000F034F82E
:104290000100114B9B681B0A0F221A40134B92001E
:1042A000D3581F2213400A00DA40114B1A60114BF9
:1042B0001B681800F8F78EFE03001800BD4604B016
:1042C00080BDC0463103000004BA0108320300007B
:1042D0000020024088130000001002405603000036
:1042E000FFF0FFFF5D030000FF8FFFFF08BD010827
:1042F000800000209400002080B586B000AF3C4BC9
:104300009B68382213400FD1394B1B68DB0A072208
:10431000134001229A4013003B6039683548F1F799
:10432000F3FA03003B615DE0314B9B683822134098
:10433000082B02D1304B3B6154E02D4B9B68382257
:104340001340102B38D12A4BDB6803221340FB604B
:10435000274BDB681B09072213400133BB60FB6856
:10436000032B0DD1B9682448F1F7CEFA03001900E8
:104370001F4BDB681B0A7F2213404B437B610DE020
:10438000B9681C48F1F7C0FA03001900184BDB6844
:104390001B0A7F2213404B437B61C046144BDB68F2
:1043A0005B0F0722134001337B6079687869F1F76E
:1043B000ABFA03003B6115E00D4B9B6838221340BC
:1043C000202B03D180231B023B610BE0084B9B6831
:1043D00038221340182B03D1FA23DB013B6101E0A3
:1043E00000233B613B691800BD4606B080BDC04656
:1043F000001002400024F40000366E0180B500AFCA
:10440000024B1B681800BD4680BDC04680000020DE
:10441000B0B500AFFFF7F2FF0400FFF7E5F80300C7
:104420001A0B054B9200D3581F221340DC40230087
:104430001800BD46B0BDC04648BD010880B582B079
:1044400000AF786039607B68002B05D1184A194BA2
:1044500011001800F8F785FD3B68002B06D1A42356
:10446000DA00144B11001800F8F77BFD7B68072277
:104470001A60114B9B6807221A407B685A600E4BEA
:104480009A68F0231B011A407B689A600A4B9A686D
:10449000E023DB011A407B68DA60084B1B680722C7
:1044A0001A403B681A60C046BD4602B080BDC04697
:1044B0001F05000004BA010800100240002002405D
:1044C00080B586B000AF78601323FB1800221A7005
:1044D0001223FB1800221A707B681B68012213400C
:1044E00000D068E07B681B680222134000D062E0C5
:1044F0007B681B680422134000D05CE07B681B686B
:104500001022134000D056E07B681A6880235B01BC
:10451000134050D17B681B68202213404BD17B682D
:104520001B684022134046D17B681A6880231B0118
:10453000134040D17B681A6880239B0113403AD115
:104540007B681A6880239B00134034D17B681A680B
:104550008023DB0013402ED17B681A688023DB01A7
:10456000134028D17B681A6880239B02134022D114
:104570007B681A6880231B0313401CD17B681A6870
:1045800080239B04134016D17B681A6880235B0448
:10459000134010D17B681A6880239B0313400AD113
:1045A0007B681A688023DB03134004D15D4B7821BC
:1045B0001800F8F7D6FC7B681A6880239B0213402A
:1045C00000D1CCE01123FB1800221A707B681B6C11
:1045D000002B16D07B681A6C80235B009A4210D0A7
:1045E0007B681A6C80239B009A420AD07B681A6C05
:1045F000C0239B009A4204D04A4B80211800F8F750
:10460000B0FC494BDA6B80235B05134011D1464B5C
:10461000DA6B454B802149050A43DA63424BDA6B7A
:1046200080235B051340BB60BB681123FB1801228C
:104630001A703E4B1A683D4B802149000A431A60AC
:10464000FBF77EF80300FB600BE0FBF779F8020054
:10465000FB68D31A022B04D91323FB1803221A7008
:1046600005E0324B1A6880235B001340EDD0132322
:10467000FB181B78002B61D12B4BDA6DC0239B00FC
:1046800013407B617B69002B19D07B681B6C7A69B6
:104690009A4214D0244BDB6D254A13407B61224B98
:1046A000DA6D214B802149020A43DA651E4BDA6D2F
:1046B0001D4B20490A40DA651B4B7A69DA657B6934
:1046C0000122134016D0FBF73BF80300FB600CE01F
:1046D000FBF736F80200FB68D31A174A934204D955
:1046E0001323FB1803221A7004E00F4BDB6D022228
:1046F0001340EDD01323FB181B78002B0AD10A4B73
:10470000DB6D0B4A134019007B681A6C064B0A4399
:10471000DA6519E01223FB181322BA1812781A70FE
:1047200012E0C0463CBA0108001002400070004090
:10473000FFFCFFFFFFFFFEFF881300001223FB18A2
:104740001322BA1812781A701123FB181B78012B48
:1047500005D1CA4BDA6BC94BC9490A40DA637B6899
:104760001B68012213401ED07B685B68002B10D0B1
:104770007B685B68012B0CD07B685B68032B08D0DF
:104780007B685B68022B04D0BE4BD6211800F8F77B
:10479000E8FBBA4B5B6D0322934319007B685A68B0
:1047A000B64B0A435A657B681B68022213401ED031
:1047B0007B689B68002B10D07B689B68042B0CD017
:1047C0007B689B680C2B08D07B689B68082B04D007
:1047D000AC4BE1211800F8F7C4FBA84B5B6D0C2231
:1047E000934319007B689A68A44B0A435A657B6817
:1047F0001B68042213401ED07B68DB68002B10D09E
:104800007B68DB68102B0CD07B68DB68302B08D012
:104810007B68DB68202B04D09A4BED211800F8F759
:10482000A0FB964B5B6D3022934319007B68DA68DE
:10483000924B0A435A657B681B681022134024D0B0
:104840007B681B69002B16D07B681A698023DB000C
:104850009A4210D07B681A69C0231B019A420AD081
:104860007B681A6980231B019A4204D0854BF92189
:104870001800F8F776FB814B5B6D834A13401900F3
:104880007B681A697D4B0A435A657B681A688023E6
:104890005B01134027D07B685B69002B19D07B68D4
:1048A0005A6980235B009A4213D07B685A69C023FF
:1048B0009B009A420DD07B685A6980239B009A42E4
:1048C00007D00623FF331A006E4B11001800F8F7CB
:1048D00048FB6A4B5B6D6D4A134019007B685A694F
:1048E000664B0A435A657B681A6880239B00134015
:1048F00026D07B689B6A002B18D07B689A6A80233D
:10490000DB029A4212D07B689A6A80231B039A4288
:104910000CD07B689A6AC0231B039A4206D0882376
:104920005A00584B11001800F8F71BFB534B5B6DF6
:10493000574A134019007B689A6A504B0A435A65DC
:104940007B681A688023DB00134027D07B68DB6A12
:10495000002B19D07B68DA6A80235B039A4213D05C
:104960007B68DA6A80239B039A420DD07B68DA6AFF
:10497000C0239B039A4207D01A23FF331A00414BEE
:1049800011001800F8F7EDFA3C4B5B6D414A1340FB
:1049900019007B68DA6A394B0A435A657B681B68E1
:1049A0002022134020D07B689B69002B12D07B68AB
:1049B0009A6980235B019A420CD07B689A698023B4
:1049C0009B019A4206D091235A002E4B11001800E9
:1049D000F8F7C7FA294B5B6D2F4A134019007B6823
:1049E0009A69264B0A435A657B681B68402213402C
:1049F00021D07B68DB69002B13D07B68DA698023C8
:104A0000DB019A420DD07B68DA6980231B029A424F
:104A100007D02E23FF331A001A4B11001800F8F7A5
:104A2000A0FA164B5B6D1D4A134019007B68DA69CA
:104A3000124B0A435A657B681A688023DB011340D6
:104A40003FD07B681A6B8023DB059A4210D07B68CD
:104A50001B6B002B0CD07B681A6B80231B069A42C1
:104A600006D0A3235A00074B11001800F8F779FA73
:104A7000024B5B6D9B0099087B6811E000100240BF
:104A8000FFFFFFEF3CBA0108FFF3FFFFFFFCFFFF52
:104A9000FFFFF3FFFFFFCFFFFFCFFFFFFF3FFFFF52
:104AA0001A6BB24B0A435A657B681A6B8023DB058D
:104AB0009A4206D1AD4BDA68AC4B802149020A43D9
:104AC000DA607B681A6880231B03134019D07B6867
:104AD0005B6B002B0BD07B685B6B402B07D05823A4
:104AE000FF331A00A24B11001800F8F73AFA9F4B57
:104AF0005B6D4022934319007B685A6B9B4B0A43C2
:104B00005A657B681A6880239B03134028D07B6812
:104B10009A6B8023DB039A420BD07B689B6B002B44
:104B200007D06423FF331A00914B11001800F8F7E7
:104B300018FA8E4B5B6D8F4A134019007B689A6B95
:104B40008A4B0A435A657B689A6B8023DB039A423F
:104B500006D1864BDA68854B802149040A43DA6026
:104B60007B681A688023DB03134028D07B68DA6BEC
:104B700080235B049A420BD07B68DB6B002B07D051
:104B80007623FF331A007A4B11001800F8F7E9F981
:104B9000764B5B6D784A134019007B68DA6B734B78
:104BA0000A435A657B68DA6B80235B049A4206D11C
:104BB0006E4BDA686D4B802149040A43DA607B68EA
:104BC0001A6880231B0113402BD07B681B6A002BC3
:104BD00012D07B681B6A012B0ED07B681B6A022BEC
:104BE0000AD07B681B6A032B06D0C3235A00604B94
:104BF00011001800F8F7B5F95C4B9B6D0322934345
:104C000019007B681A6A594B0A439A657B681B6ACC
:104C1000012B06D1554BDA68544B802149020A43D7
:104C2000DA607B681A6880239B0113402CD07B6874
:104C30005B6A002B13D07B685B6A042B0FD07B6808
:104C40005B6A082B0BD07B685B6A0C2B07D0982320
:104C5000FF331A00464B11001800F8F782F9434B56
:104C60009B6D0C22934319007B685A6A3F4B0A43A1
:104C70009A657B685B6A042B06D13C4BDA683B4B38
:104C8000802149020A43DA607B681A6880235B044A
:104C900013402ED07B685B6C002B13D07B685A6C62
:104CA00080235B019A420DD07B685A6C80239B0164
:104CB0009A4207D0AA23FF331A002D4B1100180087
:104CC000F8F74FF9294B9B6D2C4A134019007B686C
:104CD0005A6C264B0A439A657B685A6C80239B0169
:104CE0009A4206D1214BDA68204B802149040A43BD
:104CF000DA607B681A6880239B0413402ED07B689F
:104D00009A6C80239B009A4211D07B689A6C802316
:104D10005B009A420BD07B689B6C002B07D0BC23B6
:104D2000FF331A00124B11001800F8F71AF90F4B55
:104D30009B6D134A134019007B689A6C0B4B0A4316
:104D40009A657B689A6C80235B009A4206D1074B78
:104D5000DA68064B802149040A43DA601223FB1803
:104D60001B781800BD4606B080BDC046001002404A
:104D70003CBA0108FFFFBFFFFFFFFFFEFFCFFFFFB1
:104D8000FFFCFFFF80B582B000AF78607B68002B2E
:104D900001D10123EDE07B681B68784A934234D04F
:104DA0007B681A688023DB059A422ED07B681B68DB
:104DB000734A934229D07B681B68724A934224D07D
:104DC0007B681B68704A93421FD07B681B686F4AE0
:104DD00093421AD07B681B686D4A934215D07B685A
:104DE0001B686C4A934210D07B681B686A4A9342E6
:104DF0000BD07B681B68694A934206D08F235A0008
:104E0000674B11001800F8F7ACF87B689B68002B23
:104E100017D07B689B68102B13D07B689B68202B76
:104E20000FD07B689B68402B0BD07B689B68602B06
:104E300007D02023FF331A00594B11001800F8F750
:104E400090F87B681B69002B12D07B681A6980235D
:104E50005B009A420CD07B681A6980239B009A42BF
:104E600006D090235A004E4B11001800F8F779F83D
:104E70007B681A688023DB059A4211D07B68DB6867
:104E8000002B07D07B68DA6880235B029A4201D24C
:104E9000012300E000231A1C01231340DBB204E0CD
:104EA0007B68DB685A1E9341DBB2002B07D12223BB
:104EB000FF331A003A4B11001800F8F752F87B68DC
:104EC0009B69002B0AD07B689B69802B06D09123BD
:104ED0005A00334B11001800F8F743F87B683D2265
:104EE0009B5CDBB2002B07D17B683C2200219954EC
:104EF0007B681800F8F74CFB7B683D22022199542F
:104F00007B681A687B6804331900100002F07EF891
:104F10007B684822012199547B683E2201219954E3
:104F20007B683F22012199547B68402201219954DA
:104F30007B684122012199547B68422201219954C6
:104F40007B684322012199547B68442201219954B2
:104F50007B684522012199547B684622012199549E
:104F60007B684722012199547B683D220121995495
:104F700000231800BD4602B080BDC046002C014091
:104F800000040040000800400010004000140040F1
:104F90000020004000400140004401400048014022
:104FA00078BA010880B584B000AF78607B681B6870
:104FB000464A934235D07B681A688023DB059A42C3
:104FC0002FD07B681B68424A93422AD07B681B68BB
:104FD000404A934225D07B681B683F4A934220D0C9
:104FE0007B681B683D4A93421BD07B681B683C4A28
:104FF000934216D07B681B683A4A934211D07B6873
:105000001B68394A93420CD07B681B68374A93422D
:1050100007D0DC23FF331A00354B11001800F7F7D7
:10502000A0FF7B683D229B5CDBB2012B01D00123FA
:1050300047E07B683D22022199547B681B68DA684F
:105040007B681B6801210A43DA607B681B681F4A82
:10505000934214D07B681A688023DB059A420ED0F5
:105060007B681B681A4A934209D07B681B68194AFF
:10507000934204D07B681B681A4A934216D17B681E
:105080001B689B681B4A1340FB60FB68062B16D00D
:10509000FA6880235B029A4211D07B681B681A6809
:1050A0007B681B6801210A431A6008E07B681B6863
:1050B0001A687B681B6801210A431A6000E0C04639
:1050C00000231800BD4604B080BDC046002C01403E
:1050D00000040040000800400010004000140040A0
:1050E00000200040004001400044014000480140D1
:1050F00078BA01080700010080B582B000AF78607F
:105100007B68002B01D10123E6E07B681B68744AB1
:10511000934233D07B681A688023DB059A422DD0F6
:105120007B681B686F4A934228D07B681B686E4A75
:10513000934223D07B681B686C4A93421ED07B68E5
:105140001B686B4A934219D07B681B68694A93427B
:1051500014D07B681B68684A93420FD07B681B6839
:10516000664A93420AD07B681B68654A934205D021
:10517000644A654B11001800F7F7F3FE7B689B68E3
:10518000002B15D07B689B68102B11D07B689B6827
:10519000202B0DD07B689B68402B09D07B689B68D7
:1051A000602B05D0594A584B11001800F7F7D9FE6B
:1051B0007B681B69002B11D07B681A6980235B0018
:1051C0009A420BD07B681A6980239B009A4205D0D3
:1051D0004F4A4D4B11001800F7F7C3FE7B681A6861
:1051E0008023DB059A4211D07B68DB68002B07D057
:1051F0007B68DA6880235B029A4201D2012300E0D7
:1052000000231A1C01231340DBB204E07B68DB6837
:105210005A1E9341DBB2002B05D13E4A3A4B110096
:105220001800F7F79EFE7B689B69002B09D07B680E
:105230009B69802B05D0384A334B11001800F7F7D3
:1052400090FE7B683D229B5CDBB2002B07D17B6824
:105250003C22002199547B681800F8F765FA7B68B6
:105260003D22022199547B681A687B680433190037
:10527000100001F0CBFE7B684822012199547B6825
:105280003E22012199547B683F22012199547B6879
:105290004022012199547B684122012199547B6865
:1052A0004222012199547B684322012199547B6851
:1052B0004422012199547B684522012199547B683D
:1052C0004622012199547B684722012199547B6829
:1052D0003D220121995400231800BD4602B080BD33
:1052E000002C014000040040000800400010004075
:1052F00000140040002000400040014000440140F4
:10530000004801403B05000078BA01083C05000058
:105310003D0500003E0500003F05000080B584B05B
:1053200000AF786039607B681B68AA4A934217D146
:105330003B68002B00D170E03B68042B00D16CE08F
:105340003B68082B00D168E03B680C2B00D164E07F
:105350003B68102B00D160E03B68142B00D15CE06F
:105360007B681A688023DB059A420BD13B68002BCF
:1053700053D03B68042B50D03B68082B4DD03B6882
:105380000C2B4AD07B681B68934A93420BD13B6835
:10539000002B42D03B68042B3FD03B68082B3CD00D
:1053A0003B680C2B39D07B681B688C4A93420BD12D
:1053B0003B68002B31D03B68042B2ED03B68082B78
:1053C0002BD03B680C2B28D07B681B68844A934207
:1053D00002D13B68002B20D07B681B68814A934236
:1053E00005D13B68002B18D03B68042B15D07B6897
:1053F0001B687D4A934202D13B68002B0DD07B682D
:105400001B687A4A934202D13B68002B05D0784A48
:10541000784B11001800F7F7A4FD3B68002B08D16A
:105420007B683E229B5CDBB2013B5A1E9341DBB2A0
:1054300037E03B68042B08D17B683F229B5CDBB2E2
:10544000013B5A1E9341DBB22BE03B68082B08D18D
:105450007B6840229B5CDBB2013B5A1E9341DBB26E
:105460001FE03B680C2B08D17B6841229B5CDBB2C0
:10547000013B5A1E9341DBB213E03B68102B08D16D
:105480007B6842229B5CDBB2013B5A1E9341DBB23C
:1054900007E07B6843229B5CDBB2013B5A1E9341D1
:1054A000DBB2002B01D0012390E03B68002B04D13C
:1054B0007B683E220221995423E03B68042B04D1EF
:1054C0007B683F22022199541BE03B68082B04D1E2
:1054D0007B6840220221995413E03B680C2B04D1D5
:1054E0007B684122022199540BE03B68102B04D1C8
:1054F0007B6842220221995403E07B684322022107
:1055000099547B681B6839680122180002F048FB37
:105510007B681B682F4A93420ED07B681B68314A18
:10552000934209D07B681B682F4A934204D07B6862
:105530001B682E4A934201D1012300E00023002B77
:1055400008D07B681B685A6C7B681B688021090245
:105550000A435A647B681B681E4A934214D07B68D6
:105560001A688023DB059A420ED07B681B681A4AB2
:10557000934209D07B681B68184A934204D07B6829
:105580001B68184A934216D17B681B689B681A4AAD
:105590001340FB60FB68062B16D0FA6880235B0281
:1055A0009A4211D07B681B681A687B681B680121CE
:1055B0000A431A6008E07B681B681A687B681B68EE
:1055C00001210A431A6000E0C04600231800BD46CE
:1055D00004B080BD002C01400004004000080040E1
:1055E00000200040004001400044014000480140CC
:1055F000C405000078BA01080700010080B582B038
:1056000000AF786039607B681B68784A934217D195
:105610003B68002B00D170E03B68042B00D16CE0AC
:105620003B68082B00D168E03B680C2B00D164E09C
:105630003B68102B00D160E03B68142B00D15CE08C
:105640007B681A688023DB059A420BD13B68002BEC
:1056500053D03B68042B50D03B68082B4DD03B689F
:105660000C2B4AD07B681B68614A93420BD13B6884
:10567000002B42D03B68042B3FD03B68082B3CD02A
:105680003B680C2B39D07B681B685A4A93420BD17C
:105690003B68002B31D03B68042B2ED03B68082B95
:1056A0002BD03B680C2B28D07B681B68524A934256
:1056B00002D13B68002B20D07B681B684F4A934285
:1056C00005D13B68002B18D03B68042B15D07B68B4
:1056D0001B684B4A934202D13B68002B0DD07B687C
:1056E0001B68484A934202D13B68002B05D0464ACA
:1056F000464B11001800F7F734FC7B681B683968CB
:105700000022180002F04CFA7B681B68374A93426B
:105710000ED07B681B68394A934209D07B681B68AE
:10572000374A934204D07B681B68364A934201D1C2
:10573000012300E00023002B13D07B681B681B6A49
:10574000334A13400DD17B681B681B6A314A1340F2
:1057500007D17B681B685A6C7B681B682E490A401E
:105760005A647B681B681B6A294A13400DD17B6809
:105770001B681B6A274A134007D17B681B681A689D
:105780007B681B6801218A431A603B68002B04D1A7
:105790007B683E220121995423E03B68042B04D10D
:1057A0007B683F22012199541BE03B68082B04D100
:1057B0007B6840220121995413E03B680C2B04D1F3
:1057C0007B684122012199540BE03B68102B04D1E6
:1057D0007B6842220121995403E07B684322012126
:1057E000995400231800BD4602B080BD002C014032
:1057F000000400400008004000200040004001403C
:105800000044014000480140FA05000078BA010850
:105810001111000044040000FF7FFFFF80B582B03B
:1058200000AF78607B68002B01D10123E7E07B6843
:105830001B68754A934233D07B681A688023DB0566
:105840009A422DD07B681B68704A934228D07B68AF
:105850001B686F4A934223D07B681B686D4A934252
:105860001ED07B681B686C4A934219D07B681B680A
:105870006A4A934214D07B681B68694A93420FD0EE
:105880007B681B68674A93420AD07B681B68664A3C
:10589000934205D0654A664B11001800F7F761FB8B
:1058A0007B689B68002B16D07B689B68102B12D0FE
:1058B0007B689B68202B0ED07B689B68402B0AD0AE
:1058C0007B689B68602B06D0FB23DA00584B1100E5
:1058D0001800F7F746FB7B681B69002B11D07B682B
:1058E0001A6980235B009A420BD07B681A69802377
:1058F0009B009A4205D04F4A4D4B11001800F7F714
:1059000030FB7B681A688023DB059A4211D07B68E4
:10591000DB68002B07D07B68DA6880235B029A4241
:1059200001D2012300E000231A1C01231340DBB243
:1059300004E07B68DB685A1E9341DBB2002B05D183
:105940003D4A3B4B11001800F7F70BFB7B689B6946
:10595000002B09D07B689B69802B05D0374A344BDC
:1059600011001800F7F7FDFA7B683D229B5CDBB263
:10597000002B07D17B683C22002199547B681800DA
:1059800000F05EF87B683D22022199547B681A681A
:105990007B6804331900100001F038FB7B68482253
:1059A000012199547B683E22012199547B683F2252
:1059B000012199547B684022012199547B6841223E
:1059C000012199547B684222012199547B6843222A
:1059D000012199547B684422012199547B68452216
:1059E000012199547B684622012199547B68472202
:1059F000012199547B683D2201219954002318000C
:105A0000BD4602B080BDC046002C014000040040ED
:105A1000000800400010004000140040002000403A
:105A2000004001400044014000480140D707000009
:105A300078BA0108D9070000DA070000DB07000088
:105A400080B582B000AF7860C046BD4602B080BD70
:105A500080B584B000AF786039600F23FB18002256
:105A60001A703B68002B04D17B683E229B5CDBB242
:105A700023E03B68042B04D17B683F229B5CDBB2B4
:105A80001BE03B68082B04D17B6840229B5CDBB2A7
:105A900013E03B680C2B04D17B6841229B5CDBB29A
:105AA0000BE03B68102B04D17B6842229B5CDBB28D
:105AB00003E07B6843229B5CDBB20E22BA181370B2
:105AC0003B68002B04D17B6844229B5CDBB213E073
:105AD0003B68042B04D17B6845229B5CDBB20BE066
:105AE0003B68082B04D17B6846229B5CDBB203E059
:105AF0007B6847229B5CDBB20D22BA1813707B686F
:105B00001B68AB4A934217D13B68002B00D170E071
:105B10003B68042B00D16CE03B68082B00D168E0A7
:105B20003B680C2B00D164E03B68102B00D160E097
:105B30003B68142B00D15CE07B681A688023DB058E
:105B40009A420BD13B68002B53D03B68042B50D0BA
:105B50003B68082B4DD03B680C2B4AD07B681B68F8
:105B6000944A93420BD13B68002B42D03B68042BF4
:105B70003FD03B68082B3CD03B680C2B39D07B686E
:105B80001B688D4A93420BD13B68002B31D03B6898
:105B9000042B2ED03B68082B2BD03B680C2B28D035
:105BA0007B681B68854A934202D13B68002B20D05A
:105BB0007B681B68824A934205D13B68002B18D052
:105BC0003B68042B15D07B681B687E4A934202D148
:105BD0003B68002B0DD07B681B687B4A934202D147
:105BE0003B68002B05D0794A794B11001800F7F774
:105BF000B8F90E23FB181B78012B04D10D23FB18D9
:105C00001B78012B01D00123CDE03B68002B04D190
:105C10007B683E220221995423E03B68042B04D187
:105C20007B683F22022199541BE03B68082B04D17A
:105C30007B6840220221995413E03B680C2B04D16D
:105C40007B684122022199540BE03B68102B04D160
:105C50007B6842220221995403E07B68432202219F
:105C600099543B68002B04D17B684422022199544B
:105C700013E03B68042B04D17B6845220221995430
:105C80000BE03B68082B04D17B6846220221995423
:105C900003E07B684722022199543B680C2B2AD0F1
:105CA0003B680C2B30D83B68082B1BD03B68082B7B
:105CB0002AD83B68002B03D03B68042B09D023E093
:105CC0007B681B68DA687B681B6802210A43DA601C
:105CD0001FE07B681B68DA687B681B6804210A4345
:105CE000DA6016E07B681B68DA687B681B6808214D
:105CF0000A43DA600DE07B681B68DA687B681B6822
:105D000010210A43DA6004E00F23FB1801221A7005
:105D1000C0460F23FB181B78002B41D17B681B6802
:105D200039680122180001F03BFF7B681B68204A9C
:105D3000934214D07B681A688023DB059A420ED008
:105D40007B681B681B4A934209D07B681B681A4A10
:105D5000934204D07B681B68194A934216D17B6832
:105D60001B689B681B4A1340BB60BB68062B16D0A0
:105D7000BA6880235B029A4211D07B681B681A685C
:105D80007B681B6801210A431A6008E07B681B6876
:105D90001A687B681B6801210A431A6000E0C0464C
:105DA0000F23FB181B781800BD4604B080BDC04609
:105DB000002C01400004004000080040002000408A
:105DC000004001400044014000480140B408000088
:105DD00078BA01080700010080B582B000AF786092
:105DE0007B681B681B6902221340022B24D17B684D
:105DF0001B68DB6802221340022B1DD17B681B68E5
:105E0000032252421A617B6801221A777B681B6861
:105E10009B690322134004D07B68180002F056FDF2
:105E200007E07B68180001F0D9F87B68180001F0E2
:105E3000DDF87B6800221A777B681B681B690422E7
:105E40001340042B25D17B681B68DB6804221340B8
:105E5000042B1ED17B681B68052252421A617B68A5
:105E600002221A777B681B689A69C0239B00134043
:105E700004D07B68180002F029FD07E07B68180059
:105E800001F0ACF87B68180001F0B0F87B680022E4
:105E90001A777B681B681B6908221340082B24D1E2
:105EA0007B681B68DB6808221340082B1DD17B68C8
:105EB0001B68092252421A617B6804221A777B68A8
:105EC0001B68DB690322134004D07B68180002F0D2
:105ED000FDFC07E07B68180001F080F87B68180083
:105EE00001F084F87B6800221A777B681B681B69C5
:105EF00010221340102B25D17B681B68DB68102211
:105F00001340102B1ED17B681B68112252421A616C
:105F10007B6808221A777B681B68DA69C0239B00BC
:105F2000134004D07B68180002F0D0FC07E07B68C7
:105F3000180001F053F87B68180001F057F87B68EF
:105F400000221A777B681B681B6901221340012B12
:105F50000FD17B681B68DB6801221340012B08D13D
:105F60007B681B68022252421A617B681800F6F7B0
:105F7000DBFF7B681B681B6980221340802B0FD1DD
:105F80007B681B68DB6880221340802B08D17B680C
:105F90001B68812252421A617B68180002F07EF968
:105FA0007B681B681A6980235B001A4080235B00B2
:105FB0009A420ED17B681B68DB6880221340802BDD
:105FC00007D17B681B681C4A1A617B68180002F0C5
:105FD0006DF97B681B681B6940221340402B0FD171
:105FE0007B681B68DB6840221340402B08D17B682C
:105FF0001B68412252421A617B68180000F0FEFFC4
:106000007B681B681B6920221340202B0FD17B6803
:106010001B68DB6820221340202B08D17B681B689B
:10602000212252421A617B68180002F02FF9C04603
:10603000BD4602B080BDC046FFFEFFFF80B586B002
:1060400000AFF860B9607A601723FB1800221A705D
:10605000FB681B68AF4A934229D0FB681A6880230B
:10606000DB059A4223D0FB681B68AB4A93421ED0E3
:10607000FB681B68A94A934219D0FB681B68A84AB1
:10608000934214D0FB681B68A64A93420FD0FB686A
:106090001B68A54A93420AD0FB681B68A34A934237
:1060A00005D0A34AA34B11001800F6F75AFFBB68AE
:1060B0001B68002B0DD0BB681B68022B09D0BB6886
:1060C0001B680A2B05D09C4A9A4B11001800F6F762
:1060D00048FFBB685B68012B0DD0BB685B68022B77
:1060E00009D0BB685B68032B05D0944A914B110023
:1060F0001800F6F736FFBB689B68002B11D0BB6811
:106100009B68042B0DD0BB689B68082B09D0BB682B
:106110009B680C2B05D08A4A864B11001800F6F7B5
:1061200020FFBB68DB680F2B05D9864A814B110025
:106130001800F6F716FFFB683C229B5C012B01D18F
:106140000223E2E0FB683C22012199547B68002B8A
:106150001BD1FB681868BB681968BB685A68BB68C4
:10616000DB6801F057FBFB681B689A69FB681B68DA
:106170000C218A439A61FB681B689969BB689A681D
:10618000FB681B680A439A61B8E07B68042B3CD12A
:10619000FB681B685F4A93421AD0FB681A68802329
:1061A000DB059A4214D0FB681B685B4A93420FD010
:1061B000FB681B68594A93420AD0FB681B68594A1E
:1061C000934205D0604A5B4B11001800F6F7C9FEF8
:1061D000FB681868BB681968BB685A68BB68DB68ED
:1061E00001F0A8FBFB681B689A69FB681B685749AC
:1061F0000A409A61FB681B689969BB689B681A0230
:10620000FB681B680A439A6178E07B68082B36D1EB
:10621000FB681B683F4A934215D0FB681A688023CD
:10622000DB059A420FD0FB681B683B4A93420AD0B9
:10623000FB681B68394A934205D0454A3D4B110023
:106240001800F6F78EFEFB681868BB681968BB6813
:106250005A68BB68DB6801F0E1FBFB681B68DA6920
:10626000FB681B680C218A43DA61FB681B68D969EB
:10627000BB689A68FB681B680A43DA613EE07B688A
:106280000C2B37D1FB681B68224A934215D0FB6860
:106290001A688023DB059A420FD0FB681B681E4AF0
:1062A00093420AD0FB681B681C4A934205D0294AD6
:1062B000204B11001800F6F754FEFB681868BB6805
:1062C0001968BB685A68BB68DB6801F0E7FBFB68CC
:1062D0001B68DA69FB681B681C490A40DA61FB68C5
:1062E0001B68D969BB689B681A02FB681B680A4374
:1062F000DA6103E01723FB1801221A70FB683C22C5
:10630000002199541723FB181B781800BD4606B0CE
:1063100080BDC046002C0140000400400008004041
:10632000002000400040014000440140004801407E
:106330005010000078BA01085110000052100000FF
:1063400053100000541000006A100000FFF3FFFF1C
:106350007A1000008A10000080B586B000AFF860A7
:10636000B9607A601723FB1800221A707B68002B33
:1063700017D07B68042B14D07B68082B11D07B6866
:106380000C2B0ED07B68102B0BD07B68142B08D005
:106390007B683C2B05D0C94AC94B11001800F6F7A1
:1063A000E0FDBB681B68602B1DD0BB681B68702BB1
:1063B00019D0BB681B68C34A934214D0BB681B68E2
:1063C000C14A93420FD0BB681B68C04A93420AD0AF
:1063D000BB681B68BE4A934205D0BE4AB84B110049
:1063E0001800F6F7BEFDBB689B68002B09D0BB68A0
:1063F0009B68022B05D0B84AB14B11001800F6F784
:10640000B0FDBB681B69002B09D0BB681B69042B5E
:1064100005D0B24AAA4B11001800F6F7A2FDFB689E
:106420003C229B5C012B01D10223AFE1FB683C22A3
:10643000012199547B68142B00D99BE17B689A0059
:10644000A74BD3181B689F46FB681B68A54A93425D
:1064500029D0FB681A688023DB059A4223D0FB68A9
:106460001B68A14A93421ED0FB681B689F4A934257
:1064700019D0FB681B689E4A934214D0FB681B68C6
:106480009C4A93420FD0FB681B689B4A93420AD0F8
:10649000FB681B68994A934205D0994A884B1100C2
:1064A0001800F6F75EFDFB681B68BA68110018005B
:1064B00000F036FEFB681B689A69FB681B680821C0
:1064C0000A439A61FB681B689A69FB681B68042190
:1064D0008A439A61FB681B689969BB681A69FB6803
:1064E0001B680A439A614AE1FB681B687D4A934234
:1064F0001AD0FB681A688023DB059A4214D0FB6827
:106500001B68794A93420FD0FB681B68774A934215
:106510000AD0FB681B68774A934205D0794A684BDA
:1065200011001800F6F71DFDFB681B68BA68110022
:10653000180000F0B5FEFB681B689A69FB681B68D1
:10654000802109010A439A61FB681B689A69FB680C
:106550001B686D490A409A61FB681B689969BB68B2
:106560001B691A02FB681B680A439A6107E1FB6812
:106570001B685C4A934215D0FB681A688023DB05D0
:106580009A420FD0FB681B68574A93420AD0FB68B7
:106590001B68564A934205D05C4A494B11001800CB
:1065A000F6F7DFFCFB681B68BA681100180000F002
:1065B00031FFFB681B68DA69FB681B6808210A4326
:1065C000DA61FB681B68DA69FB681B6804218A438F
:1065D000DA61FB681B68D969BB681A69FB681B68CC
:1065E0000A43DA61CBE0FB681B683E4A934215D050
:1065F000FB681A688023DB059A420FD0FB681B6892
:10660000394A93420AD0FB681B68384A934205D046
:106610003F4A2B4B11001800F6F7A3FCFB681B68E0
:10662000BA681100180000F0B3FFFB681B68DA6954
:10663000FB681B68802109010A43DA61FB681B685B
:10664000DA69FB681B6830490A40DA61FB681B683D
:10665000D969BB681B691A02FB681B680A43DA61C7
:106660008DE0FB681B681F4A934205D0294A144BF2
:1066700011001800F6F775FCFB681B68BA6811007A
:10668000180001F003F8FB681B685A6DFB681B6873
:1066900008210A435A65FB681B685A6DFB681B6832
:1066A00004218A435A65FB681B68596DBB681A69E7
:1066B000FB681B680A435A6561E0C046B7100000DA
:1066C00078BA01084000010050000100600001009C
:1066D00070000100B8100000B9100000BA100000EE
:1066E00060BE0108002C014000040040000800408A
:1066F00000200040004001400044014000480140AB
:10670000C4100000D5100000FFFBFFFFE6100000E2
:10671000F710000008110000FB681B681D4A934237
:1067200005D01D4A1D4B11001800F6F71AFCFB6836
:106730001B68BA681100180001F008F8FB681B68B4
:106740005A6DFB681B68802109010A435A65FB6882
:106750001B685A6DFB681B6811490A405A65FB6843
:106760001B68596DBB681B691A02FB681B680A43EA
:106770005A6504E01723FB1801221A70C046FB6813
:106780003C22002199541723FB181B781800BD46A2
:1067900006B080BD002C01401911000078BA010834
:1067A000FFFBFFFF80B584B000AF786039600F2336
:1067B000FB1800221A707B683C229B5C012B01D1E4
:1067C000022317E37B683C22012199547B683D2218
:1067D000022199543B681A6880235B019A422BD0AE
:1067E0003B681B68702B27D03B681A6880239B018D
:1067F0009A4221D03B681B68402B1DD03B681B6828
:10680000502B19D03B681B68602B15D03B681B6868
:10681000002B11D03B681B68102B0DD03B681B6808
:10682000202B09D03B681B68302B05D0BC4ABD4BE0
:1068300011001800F6F795FB7B681B689B68BB602E
:10684000BB68B94A1340BB60BB68B84A1340BB6021
:106850007B681B68BA689A603B681B68802292015B
:10686000934200D1EAE080229201934200D9B0E243
:1068700080225201934229D080225201934200D9B2
:10688000A7E2702B00D165E000D9A2E2602B00D115
:10689000C8E100D99DE2502B00D16DE100D998E20A
:1068A000402B00D115E200D993E2302B00D166E2F3
:1068B00000D98EE2202B00D161E200D989E2002BC1
:1068C00000D15CE2102B00D159E282E27B681B68A8
:1068D000974A934200D181E27B681A688023DB05E6
:1068E0009A4200D17AE27B681B68924A934200D1B7
:1068F00074E27B681B68904A934200D16EE27B6829
:106900001B688E4A934200D168E27B681B688C4A00
:10691000934200D162E27B681B688A4A934200D1AD
:106920005CE27B681B68884A934200D156E27B6830
:106930001B68864A934200D150E27B681B68844AF8
:10694000934200D14AE2834A764B11001800F6F7D1
:1069500008FB43E27B681B68754A934215D07B684D
:106960001A688023DB059A420FD07B681B68714A46
:1069700093420AD07B681B686F4A934205D0764ADF
:10698000684B11001800F6F7ECFA3B689B68002B87
:1069900017D03B689A6880235B019A4211D03B680C
:1069A0009A6880239B019A420BD03B689A68C02367
:1069B0009B019A4205D0694A5A4B11001800F6F71C
:1069C000D0FA3B685A6880231B029A4215D03B6874
:1069D0005B68002B11D03B685B68002B0DD03B68D7
:1069E0005B68022B09D03B685B680A2B05D05C4AC8
:1069F0004C4B11001800F6F7B4FA3B68DB680F2B1C
:106A000005D9584A474B11001800F6F7AAFA7B68D7
:106A100018683B6899683B685A683B68DB6801F016
:106A20009FF87B681B689B68BB60BB687722134339
:106A3000BB607B681B68BA689A60D0E17B681B68A2
:106A40003B4A934215D07B681A688023DB059A4243
:106A50000FD07B681B68374A93420AD07B681B685B
:106A6000354A934205D0404A2E4B11001800F6F7E4
:106A700078FA3B689B68002B17D03B689A688023A4
:106A80005B019A4211D03B689A6880239B019A422D
:106A90000BD03B689A68C0239B019A4205D0334AC9
:106AA000204B11001800F6F75CFA3B685A68802307
:106AB0001B029A4215D03B685B68002B11D03B68E3
:106AC0005B68002B0DD03B685B68022B09D03B68EC
:106AD0005B680A2B05D0264A124B11001800F6F706
:106AE00040FA3B68DB680F2B05D9224A0D4B110099
:106AF0001800F6F736FA7B6818683B6899683B68B7
:106B00005A683B68DB6801F02BF87B681B689A6861
:106B10007B681B688021C9010A439A605FE1C04617
:106B20006E15000078BA010888FFCEFFFF00FFFF56
:106B3000002C01400004004000080040001000400C
:106B4000001400400020004000400140004401408B
:106B5000004801407A1500008115000084150000EE
:106B60008515000086150000991500009C15000091
:106B70009D1500009E1500007B681B689F4A93428C
:106B80001AD07B681A688023DB059A4214D07B6890
:106B90001B689B4A93420FD07B681B68994A9342BB
:106BA0000AD07B681B68984A934205D0974A984B55
:106BB00011001800F6F7D5F93B685A6880231B02CC
:106BC0009A4215D03B685B68002B11D03B685B682C
:106BD000002B0DD03B685B68022B09D03B685B68DB
:106BE0000A2B05D08B4A8A4B11001800F6F7B9F929
:106BF0003B68DB680F2B05D9874A854B11001800CD
:106C0000F6F7AFF97B6818683B6859683B68DB6842
:106C10001A0000F061FE7B681B685021180000F02C
:106C200083FFDCE07B681B68744A93421AD07B6860
:106C30001A688023DB059A4214D07B681B68704A6F
:106C400093420FD07B681B686E4A93420AD07B68E0
:106C50001B686D4A934205D0704A6D4B11001800B5
:106C6000F6F77FF93B685A6880231B029A4216D0D8
:106C70003B685B68002B12D03B685B68002B0ED032
:106C80003B685B68022B0AD03B685B680A2B06D026
:106C9000AE235A015E4B11001800F6F762F93B680B
:106CA000DB680F2B05D95E4A594B11001800F6F727
:106CB00058F97B6818683B6859683B68DB681A00BC
:106CC00000F07AFE7B681B686021180000F02CFF42
:106CD00085E07B681B68494A93421AD07B681A6832
:106CE0008023DB059A4214D07B681B68444A934298
:106CF0000FD07B681B68434A93420AD07B681B68AD
:106D0000414A934205D0474A414B11001800F6F71B
:106D100028F93B685A6880231B029A4215D03B68C9
:106D20005B68002B11D03B685B68002B0DD03B6883
:106D30005B68022B09D03B685B680A2B05D03A4A96
:106D4000334B11001800F6F70CF93B68DB680F2B8A
:106D500005D9364A2E4B11001800F6F702F97B6868
:106D600018683B6859683B68DB681A0000F0B4FD9E
:106D70007B681B684021180000F0D6FE2FE07B687E
:106D80001B681E4A93421BD07B681A688023DB0570
:106D90009A4215D07B681B68194A934210D07B68D1
:106DA0001B68184A93420BD07B681B68164A9342B3
:106DB00006D0AF235A01164B11001800F6F7D1F890
:106DC0007B681A683B681B681900100000F0ACFE75
:106DD00005E00F23FB1801221A7000E0C0467B6813
:106DE0003D22012199547B683C22002199540F23B4
:106DF000FB181B781800BD4604B080BD002C014074
:106E0000000400400008004000400140AD150000B3
:106E100078BA0108B0150000B1150000BD150000DA
:106E2000C1150000CD150000D0150000D1150000DF
:106E300080B584B000AF786039600023FB603B68A8
:106E40000C2B00D18BE03B680C2B00D9A7E03B68F2
:106E5000082B00D163E03B68082B00D99FE03B681A
:106E6000002B03D03B68042B34D098E07B681B6870
:106E70004E4A934229D07B681A688023DB059A42E8
:106E800023D07B681B684A4A93421ED07B681B68EC
:106E9000484A934219D07B681B68474A934214D0F2
:106EA0007B681B68454A93420FD07B681B68444A45
:106EB00093420AD07B681B68424A934205D0424AFB
:106EC000424B11001800F6F74CF87B681B685B6BAF
:106ED000FB6065E07B681B68344A93421AD07B688C
:106EE0001A688023DB059A4214D07B681B68304AFD
:106EF00093420FD07B681B682E4A93420AD07B686E
:106F00001B682E4A934205D0314A304B11001800BD
:106F1000F6F727F87B681B689B6BFB6040E07B689B
:106F20001B68224A934215D07B681A688023DB05D0
:106F30009A420FD07B681B681D4A93420AD07B6837
:106F40001B681C4A934205D0224A204B11001800AE
:106F5000F6F707F87B681B68DB6BFB6020E07B685B
:106F60001B68124A934215D07B681A688023DB05A0
:106F70009A420FD07B681B680D4A93420AD07B6807
:106F80001B680C4A934205D0134A104B110018009D
:106F9000F5F7E7FF7B681B681B6CFB6000E0C046F1
:106FA000FB681800BD4604B080BDC046002C0140FF
:106FB0000004004000080040002000400040014064
:106FC00000440140004801407916000078BA0108E9
:106FD000831600008E1600009916000080B582B05E
:106FE00000AF7860C046BD4602B080BD80B582B0BB
:106FF00000AF7860C046BD4602B080BD80B582B0AB
:1070000000AF7860C046BD4602B080BD80B584B098
:1070100000AF786039607B681B68FB607B68384A2A
:1070200093420CD07A688023DB059A4207D07B68B4
:10703000344A934203D07B68334A934208D1FB68B9
:1070400070229343FB603B685B68FA681343FB6004
:107050007B682B4A93421CD07A688023DB059A42D6
:1070600017D07B68274A934213D07B68264A934205
:107070000FD07B68254A93420BD07B68244A934209
:1070800007D07B68234A934203D07B68224A93420D
:1070900008D1FB68214A1340FB603B68DB68FA6853
:1070A0001343FB60FB68802293431A003B685B69D3
:1070B0001343FB607B68FA681A603B689A687B68D8
:1070C000DA623B681A687B689A627B680C4A934272
:1070D0000BD07B680E4A934207D07B680D4A9342DF
:1070E00003D07B680C4A934203D13B681A697B68E2
:1070F0001A637B6801225A61C046BD4604B080BD58
:10710000002C014000040040000800400020004026
:10711000004001400044014000480140FFFCFFFFE7
:1071200080B586B000AF786039607B681B6A012249
:1071300093431A007B681A627B681B6A7B617B68D9
:107140005B683B617B689B69FB60FB68494A134055
:10715000FB60FB6803229343FB603B681B68FA6893
:107160001343FB607B69022293437B613B689B680E
:107170007A6913437B617B683F4A93420BD07B68FB
:107180003E4A934207D07B683D4A934203D07B68D6
:107190003C4A93421AD13B68DB68002B09D03B681C
:1071A000DB68082B05D0384A384B11001800F5F77A
:1071B000D8FE7B69082293437B613B68DB687A6970
:1071C00013437B617B69042293437B617B682A4A7A
:1071D00093420BD07B68294A934207D07B68284AA8
:1071E000934203D07B68274A934231D13B689A6926
:1071F00080239B009A4209D03B689B69002B05D0F5
:10720000234A224B11001800F5F7ABFE3B685A6980
:1072100080235B009A4209D03B685B69002B05D054
:107220001C4A1A4B11001800F5F79BFE3B691A4ADD
:1072300013403B613B69194A13403B613B685B6902
:107240003A6913433B613B689B693A6913433B616D
:107250007B683A695A607B68FA689A613B685A6849
:107260007B685A637B687A691A62C046BD4606B07D
:1072700080BDC0468FFFFEFF002C01400040014052
:107280000044014000480140891B000078BA010811
:10729000961B0000971B0000FFFEFFFFFFFDFFFF96
:1072A00080B586B000AF786039607B681B6A1022B9
:1072B00093431A007B681A627B681B6A7B617B6858
:1072C0005B683B617B689B69FB60FB68454A1340D8
:1072D000FB60FB68444A1340FB603B681B681B0271
:1072E000FA681343FB607B69202293437B613B6810
:1072F0009B681B017A6913437B617B683B4A93421D
:107300001BD13B68DB68002B09D03B68DB68082B8E
:1073100005D0374A374B11001800F5F722FE7B697C
:10732000802293437B613B68DB681B017A691343CE
:107330007B617B69402293437B617B682B4A93424C
:107340000BD07B682C4A934207D07B682B4A934230
:1073500003D07B682A4A934233D13B689A698023E1
:107360009B009A4209D03B689B69002B05D0254AB7
:10737000204B11001800F5F7F4FD3B685A69802393
:107380005B009A4209D03B685B69002B05D01E4A1E
:10739000184B11001800F5F7E4FD3B691B4A134038
:1073A0003B613B691A4A13403B613B685B699B0048
:1073B0003A6913433B613B689B699B003A691343FD
:1073C0003B617B683A695A607B68FA689A613B68FE
:1073D0005A687B689A637B687A691A62C046BD46C0
:1073E00006B080BDFF8FFFFEFFFCFFFF002C0140B9
:1073F000D41B000078BA010800400140004401405D
